:020000040800F2
:10000000A0480020490100086308000845080008CE
:100010005F08000821070008710D000800000000BB
:10002000000000000000000000000000C90A0008F5
:10003000250700080000000065080008B50B00084F
:100040006301000863010008630100086301000800
:1000500063010008630100086301000863010008F0
:1000600063010008630100086301000863010008E0
:1000700063010008630100086301000863010008D0
:1000800063010008630100086301000863010008C0
:1000900063010008630100086301000863010008B0
:1000A00063010008630100086301000863010008A0
:1000B0006301000863010008630100086301000890
:1000C0006301000863010008630100086301000880
:1000D0006301000863010008630100086301000870
:1000E0006301000863010008630100086301000860
:1000F0006301000863010008630100086301000850
:10010000630100086301000863010008630100083F
:10011000630100086301000863010008630100082F
:10012000630100086301000863010008630100081F
:10013000DFF810D000F054FA00480047DD3900081D
:10014000AFF30080A04800200648804706480047DB
:10015000FEE7FEE7FEE7FEE7FEE7FEE7FEE7FEE777
:10016000FEE7FEE7ED0B00083101000840EA01035D
:100170009B0703D009E008C9121F08C0042AFAD25D
:1001800003E011F8013B00F8013B521EF9D2704721
:10019000D2B201E000F8012B491EFBD270470022C9
:1001A000F6E710B513460A4604461946FFF7F0FF76
:1001B000204610BDCAB2401E10F8011F8A4202D06C
:1001C0000029F9D10020704730B5044600200346CD
:1001D00000E05B1C934203D2E05CCD5C401BF8D096
:1001E00030BD30B50B46014600202022012409E035
:1001F00021FA02F59D4205D303FA02F5491B04FAE0
:1002000002F52844151EA2F10102F1DC30BD2DE9F2
:10021000F05F0546002092469B468846064681468A
:1002200040241BE0284641464746224600F0F9F9A3
:1002300053465A46C01A914110D3114618462246D9
:1002400000F0E0F92D1A67EB01084F462246012025
:10025000002100F0D7F917EB00094E41201EA4F150
:100260000104DFDC484631462A464346BDE8F09F9C
:100270002DE9FE4F804681EA0300C00F0C46009036
:1002800021F0004123F00045B8EB0200A94105D25E
:100290004046214690461C460B46024623F000404D
:1002A000104347D0270DC7F30A00C3F30A51029049
:1002B000401A019040286BDAC3F3130040F4801B0E
:1002C0000098924620B10023D2EB030A63EB0B0B9C
:1002D00001985946C0F14002504600F093F9064695
:1002E0000D4650465946019A00F0ABF910EB080054
:1002F0006141002487EA115284EAE7731A4340D02F
:10030000009A62B3019A012A4FEA075215DC001BDA
:1003100061EB02014FF0004202EA0752CDE90042D0
:10032000001C41F5801132462B4600F0ABF903B0BA
:10033000BDE8F08F40462146F9E7001B61EB020162
:10034000001C41F5801300185B412018A2F500172E
:1003500047EB030140EAD570B6196D4111E06D0815
:100360004FEA360645EAC0754FEA0752001B61EBBB
:100370000201001C41F5801149084FEA30000019C4
:10038000514132462B4603B0BDE8F04F00F06BB947
:100390000098012240000023D0EB020263EBE073DF
:1003A000009821464FEAE074B8EB000061EB0401CD
:1003B000E9E783F000435BE781F0004158E72DE96E
:1003C000FE4F81EA030404F0004421F00041009450
:1003D0004FF0000B23F0004350EA01045ED052EAD4
:1003E00003045BD0C3F30A54C1F30A552C44A4F2AE
:1003F000F3340194A0FB0254C1F3130141F48011C2
:10040000C3F3130343F4801301FB024400FB034EC8
:10041000840A970A44EA815447EA8357A4FB076891
:1004200002958D0A05FB07854FEA932C04FB0C54BB
:100430002705029D4FEA065847EA1637B5EB08052F
:100440006EEB070C870E920E47EA811742EA831281
:10045000A7FB0201B6EB0B0164EB00042B0D43EA92
:100460000C335E1844EB1C50DA465146E7FB0201A0
:10047000C5F313044FEA0B3343EA14534FEA043233
:10048000019C43EA0603A4F10C040294009CCDE90C
:1004900000B400F0F7F803B0BDE8F08F002001468B
:1004A000F9E72DE9F04D81EA030404F0004B21F057
:1004B000004514464FF0000A23F0004150EA0502BF
:1004C00020D054EA01021DD0C5F30A570246C5F3F5
:1004D0001303C1F31300C1F30A5640F4801543F42B
:1004E0008013A7EB0608101BD64608F2FD3873EB05
:1004F000050002D308F1010801E092185B41B8F150
:10050000000F03DA00200146BDE8F08D00204FF413
:100510008011064684460EE0171B73EB050705D3D2
:10052000121B63EB050306434CEA010C49084FEA32
:10053000300092185B4150EA0107EDD152EA030006
:1005400012D082EA040083EA0501084305D0101B9B
:10055000AB4106D20122002306E000224FF0004307
:1005600002E06FF0010253101AEB06004CEB085149
:1005700010EB0A0041EB0B01BDE8F04D00F073B841
:10058000C1F30A52C1F3130140F2FF3341F4801169
:100590009A4202DA00200146704740F233439A4201
:1005A000A2F2334202DC524200F03BB800F02AB81B
:1005B00030B5041E71F1000404DB4FF000444042EA
:1005C00064EB0101141E73F1000405DB1C464FF0BF
:1005D0000043524263EB0403994208BF904230BD8E
:1005E000064C074D06E0E06840F0010394E8070080
:1005F00098471034AC42F6D3FFF79EFD08F102088D
:1006000028F10208202A04DB203A00FA02F1002037
:1006100070479140C2F1200320FA03F31943904040
:100620007047202A04DB203A21FA02F000217047AB
:1006300021FA02F3D040C2F120029140084319464A
:100640007047202A06DBCB17203A41FA02F043EA32
:10065000E07306E041FA02F3D040C2F1200291407B
:1006600008431946704710B5141E73F1000408DAE8
:10067000401C41F1000192185B411A4301D120F066
:10068000010010BD2DE9F04D92469B4611B1B1FA23
:1006900081F202E0B0FA80F220329046FFF7B2FF1A
:1006A00004460F4640EA0A0041EA0B0153465A4607
:1006B000084313D0114653EA010019D0C8F1400293
:1006C0005046FFF7AEFF05460E4650465946424695
:1006D000FFF798FF084305D0012004E02046394683
:1006E000BDE8F08D0020054346EAE0762C43374311
:1006F0000A986305E40AA0EB08000022FD0A44EA18
:1007000047540A3002D500200146E9E701051019D7
:100710006941DDE9084500196941BDE8F04DA2E7EE
:1007200000BFFEE770472DE9F04102460025002694
:10073000002000230024002791F803C00CF00F05CF
:1007400091F803C00CF0100CBCF1000F03D091F82D
:1007500002C04CEA050591F800C0BCF1000F31D091
:10076000146800202BE04FF0010C0CFA00F3B1F8F4
:1007700000C00CEA03069E4220D183004FF00F0C0C
:100780000CFA03F7BC4305FA03FC4CEA040491F8A5
:1007900003C0BCF1280F06D14FF0010C0CFA00FC8D
:1007A000C2F814C00AE091F803C0BCF1480F05D1AB
:1007B0004FF0010C0CFA00FCC2F810C0401C0828D5
:1007C000D1D31460B1F800C0BCF1FF0F34DD546820
:1007D00000202EE000F1080C4FF0010808FA0CF39D
:1007E000B1F800C00CEA03069E4221D183004FF00D
:1007F0000F0C0CFA03F7BC4305FA03FC4CEA0404A3
:1008000091F803C0BCF1280F05D100F1080C08FADB
:100810000CF8C2F8148091F803C0BCF1480F07D15E
:1008200000F1080C4FF0010808FA0CF8C2F810802B
:10083000401C0828CED35460BDE8F0814161704768
:100840000161704700BFFEE710B5482000F0B4F921
:100850004FF4E13000F08EFA00F080F810BD00BFD8
:10086000FEE770477047000029B1064A92690243CB
:10087000044B9A6104E0034A92698243014B9A61F6
:10088000704700000010024030B500210022002413
:1008900000232D4D6D6805F00C0121B1042905D010
:1008A000082923D105E0294D056022E0274D056088
:1008B0001FE0254D6D6805F47012234D6D6805F439
:1008C0008034022505EB92421CB9214D5543056049
:1008D0000BE01D4D6D6805F400351DB11C4D5543F1
:1008E000056002E0194D5543056002E0174D0560B3
:1008F00000BF00BF144D6D6805F0F0010909154DEA
:100900006B5C0568DD4045600F4D6D6805F4E06186
:10091000090A104D6B5C4568DD4085600A4D6D68C5
:1009200005F46051C90A0B4D6B5C4568DD40C5603C
:10093000054D6D6805F44041890B074D6B5CC5683A
:10094000B5FBF3F5056130BD0010024000127A00DE
:1009500000093D00000000201000002000B587B015
:10096000012141F21500FFF77FFF4FF40050ADF871
:10097000180010208DF81B0003208DF81A0006A91E
:100980002148FFF7D0FEA020ADF8180018208DF800
:100990001B0003208DF81A0006A91B48FFF7C3FEB1
:1009A0004020ADF8180004208DF81B0006A9164859
:1009B000FFF7B9FE1020ADF810000120ADF80C00D3
:1009C0000220ADF80A000720ADF814000020ADF8B1
:1009D0000800ADF80400ADF812004FF48270ADF8D5
:1009E00006004FF40070ADF80E0001A9074800F0B2
:1009F0004DF84FF400510448FFF722FF012103484E
:100A000000F02AF807B000BD0008014000300140A6
:100A100010B50024FF2000F003F80446204610BD66
:100A200010B5044600BF02210A4800F021F8002852
:100A3000F9D02146074800F027F800BF01210548FA
:100A400000F016F80028F9D0024800F01AF8C0B2F9
:100A500010BD00000030014021B1028842F0400288
:100A6000028004E002884FF6BF731A40028070478C
:100A70000246002013890B400BB1012000E000204A
:100A800070470146888970478181704710B5002200
:100A9000028802F441520B884C8823438C882343FC
:100AA000CC8823430C8923434C8923438C892343DB
:100AB000CC8923431A430280838B4FF2FF74234077
:100AC00083830B8A038210BD704710B500F002F8D3
:100AD00010BD00000CB50020019000903348006864
:100AE00040F480303149086000BF3048006800F4AD
:100AF000003000900198401C0190009818B90198AE
:100B0000B0F5A06FF1D12948006800F4003010B1B1
:100B10000120009001E0002000900098012843D1BE
:100B20002348006840F0100021490860084600682A
:100B300020F0030008600846006840F002000860EA
:100B40001A484068194948600846406848600846A5
:100B5000406840F4806048600846406820F47C109B
:100B600048600846406840F4E8104860084600685D
:100B700040F08070086000BF0C48006800F0007012
:100B80000028F9D00948406820F003000749486070
:100B90000846406840F00200486000BF03484068D3
:100BA00000F00C000828F9D10CBD00000010024034
:100BB00000200240704700004FF0E021096921F059
:100BC00004014FF0E0221161C21700EB5272D21003
:100BD000044B1A60194609684FF47A725143024A6D
:100BE000116070472C0000203000002010B5134821
:100BF000006840F00100114908600846406810494B
:100C000008400E494860084600680E4908400B49F4
:100C100008600846006820F48020086008464068A4
:100C200020F4FE0048604FF41F008860FFF74DFF7E
:100C30004FF000600449086010BD00000010024041
:100C40000000FFF8FFFFF6FE08ED00E001F400727F
:100C5000B2F5007F00D100BFCA430280704721B1C6
:100C6000828942F40052828104E082894DF6FF734A
:100C70001A408281704702460020B1F5007F00D102
:100C800000BF13880B400BB1012000E0002070472B
:100C90002DE9F04786B005460E460024A24600BF67
:100CA000A1460027B08900B100BF2F462C8A4CF620
:100CB000FF700440F08804432C82AC894EF6F31098
:100CC0000440B08831890843718908430443AC81EA
:100CD000AC8A4FF6FF400440B0890443AC8201A8BF
:100CE000FFF7D2FD1F48874202D1DDF810A001E0D6
:100CF000DDF80CA0A88900F4004040B10AEBCA005E
:100D000000EB0A1031684900B0FBF1F807E00AEB8C
:100D1000CA0000EB0A1031688900B0FBF1F86420CA
:100D2000B8FBF0F004012009642101FB1089A889B7
:100D300000F4004040B1322000EBC900B0FBF1F0FC
:100D400000F00700044308E0322000EB09106421A2
:100D5000B0FBF1F000F00F0004432C8106B0BDE8B9
:100D6000F087000000380140C1F30802828070471C
:100D700000BFFEE710B586B00446012144F205002D
:100D8000FFF772FD18208DF817004FF40070ADF8D2
:100D9000140003208DF8160005A91448FFF7C3FCC2
:100DA00004208DF817000002ADF8140005A90F48C3
:100DB000FFF7B9FC01940020ADF810000C20ADF84D
:100DC0000E000020ADF80C00ADF80A00ADF80800E8
:100DD00001A90748FFF75CFF60210548FFF736FFD0
:100DE00001210348FFF73BFF06B010BD000801409A
:100DF0000038014010B50446240300F01FF900F04C
:100E00008BF810210B48FFF719FD2020FFF708FE93
:100E1000C4F30740FFF704FEC4F30720FFF700FE0A
:100E2000E0B2FFF7FDFD10210248FFF709FD00F0D9
:100E300073F810BD000801402DE9F04106460C464C
:100E4000174610210F48FFF7F9FC0320FFF7E8FDD4
:100E5000C4F30740FFF7E4FDC4F30720FFF7E0FD0C
:100E6000E0B2FFF7DDFD002504E0FFF7D1FD70558E
:100E7000681C85B2BD42F8DB10210248FFF7E0FC98
:100E8000BDE8F0810008014010B5002410210E4893
:100E9000FFF7D4FC9020FFF7C3FD0020FFF7C0FD53
:100EA0000020FFF7BDFD0020FFF7BAFDFFF7B0FD02
:100EB00044EA0024FFF7ACFD044310210248FFF789
:100EC000BFFC204610BD00000008014010B5002402
:100ED00010210748FFF7B2FC0520FFF7A1FDFFF73F
:100EE00097FD044610210248FFF7AAFC204610BDDA
:100EF0000008014010B510210648FFF79FFCAB2009
:100F0000FFF78EFD10210348FFF79AFC032001F044
:100F1000A5F810BD0008014010B500BFFFF7D6FFCF
:100F200000F001000028F9D110BD00002DE9F05FAC
:100F300081460F461646DFF8A8B04FEA1738C7F3C8
:100F40000B0ACAF58054A64200DC344644E04FEA5E
:100F500008314FF480525846FFF76EFF002508E035
:100F60000AEB05001BF80000FF2800D003E0681C16
:100F700085B2A542F4DB00BFA54216DA4046FFF772
:100F800039FF002507E019F8050005EB0A010BF809
:100F90000100681C85B2A542F5DB4FEA08314FF429
:100FA0008052584600F05AF804E022463946484636
:100FB00000F054F8A64200D10FE008F101084FF00C
:100FC000000AA1442744301B86B2B6F5805F02DDDB
:100FD0004FF4805400E03446B9E700BFBDE8F09F0D
:100FE000A03400202DE9F04106460C46174600F0DB
:100FF00025F810211048FFF721FC0220FFF710FD13
:10100000C4F30740FFF70CFDC4F30720FFF708FD0A
:10101000E0B2FFF705FD002504E0705DFFF700FD7D
:10102000681C85B2BD42F8DB10210348FFF708FCBD
:10103000FFF772FFBDE8F0810008014010B51021F4
:101040000548FFF7FBFB0620FFF7EAFC10210248EA
:10105000FFF7F6FB10BD0000000801402DE9F0414C
:1010600007460E461446F0B2C0F58075AC4200DC6F
:10107000254612E02A4631463846FFF7B3FFAC4218
:1010800000D10BE02F442E44601B84B2B4F5807F66
:1010900002DD4FF4807500E02546EBE700BFBDE8B8
:1010A000F08100000FB4054B10B503A9044A029863
:1010B00000F0DAF810BC5DF814FB0000F936000807
:1010C0003C00002002E008C8121F08C1002AFAD123
:1010D00070477047002001E001C1121F002AFBD1B8
:1010E000704700002DE9FF5F82B00021DDE9043088
:1010F000020DDDF840B0034318D044F61050A2F2C0
:10110000FF3242431514119801281FD0A5EB0B00A4
:10111000401C5FEA000A4FF000064E4FDFF838919E
:10112000B046504615D5CAF1000413E011980124C9
:101130004AA3012801D16FEA0B010298119AC0E974
:101140000031C0E9024206B0BDE8F09FCBF10000DB
:10115000DFE704460021404A491842EB0450CDE93C
:10116000001012E0E00707D032463B4640464946B1
:10117000FFF725F98046894632463B461046194618
:10118000FFF71DF906460F466410002CEAD1DDE991
:101190000401DDE90023BAF1000F06DAFFF70FF9C9
:1011A00042464B46FFF70BF905E0FFF77AF9424656
:1011B0004B46FFF776F904460E460022284BFFF710
:1011C000F7F903D84FF0FF30014607E00022254B26
:1011D00020463146FFF74CF8FFF7D2F9102409E01A
:1011E000002C0ADB0A220023FFF711F8039B3032A0
:1011F0001A55641E50EA0102F2D1641C039AC4F12C
:1012000011031444119A012A03D0012208430DD17D
:101210000AE0084304D000204FF0110B119072E750
:10122000A3EB0B056D1E0DE05B4504DD4FF00002E6
:1012300005F1010504E003DA4FF00002A5F1010514
:10124000002AECD002981199C0E90231C0E90045AA
:1012500079E70000000014400000F03F300000007B
:101260000000F0430000E03F2DE9FF4F95B09A46A3
:10127000884606460025EEE1252877D1002427463A
:10128000F94A0121039400E0044316F8013F203B92
:1012900001FA03F01042F7D130782A2811D06FF00C
:1012A0002F033078A0F13002092A16D8039A44F0AF
:1012B000020402EB820203EB42021044761C03900C
:1012C000EFE758F8042B0392002A03DA504244F463
:1012D0000054039044F00204761C30782E2816D176
:1012E00016F8010F44F004042A280DD06FF02F02E5
:1012F0003078A0F13003092B09D807EB870302EB04
:101300004303C718761CF3E758F8047B761C307843
:101310006C280FD006DC4C2817D068280DD06A281E
:1013200014D104E0742810D07A280FD10DE044F4D1
:1013300000140AE044F4801401E044F4401472788C
:10134000824202D104F58014761C761C307866281F
:101350000BD013DC582877D009DC002875D045283D
:10136000F6D04628F4D047281AD193E118E0632834
:1013700035D0642879D0652812D18BE1702873D0DC
:1013800008DC6728F1D069286FD06E280DD06F284F
:1013900006D1ACE073282CD0752874D0782853D0AF
:1013A0005246179990476D1C54E1C4F3025002282D
:1013B00009D003280DD0D8F8001004280DD00D60F6
:1013C00008F1040846E1D8F80010EA17C1E9005214
:1013D000F6E7D8F800100D80F2E70D70F0E718F886
:1013E000041B8DF8001000208DF80100EB46012051
:1013F00003E058F804BB4FF0FF3061074FF00001E5
:1014000002D40DE009F101018946B9420FDA8145A4
:10141000F8DB1BF809100029F4D108E009F10101FB
:1014200089468142FADB1BF809100029F6D103989E
:101430005346A0EB090721463846179A00F080FA78
:10144000284400EB090507E044E008E10DE01BF843
:10145000010B524617999047B9F10109F7D253464B
:1014600021463846179AF2E039E00A21C4F30252C5
:101470004FF0000B0091022A06D058F8040BC11758
:10148000032A09D00AE023E008F1070020F0070250
:10149000F2E80201904605E000B2C117042A01D12A
:1014A00040B2C117002906DA0A460021404261EB2A
:1014B00002012D2202E0220504D52B228DF8042002
:1014C000012203E0E20701D02022F7E7914657E02E
:1014D0000A2100E010214FF0000B00910BE01021D9
:1014E0004FF0000B44F004040827009103E00820AB
:1014F0004FF0000B0090C4F30252022A05D058F8B6
:10150000040B0021032A08D008E008F1070020F0AE
:101510000702F2E80201904603E080B2042A00D1FB
:10152000C0B24FF0000922072AD53278702A07D0BE
:10153000DDF800C08CF0100C5CEA0B0C05D00EE05E
:1015400040228DF80420012208E050EA010306D071
:1015500030238DF804308DF8052002229146009B3F
:1015600083F0080353EA0B030AD150EA010201D1C8
:10157000620705D530228DF804204FF001097F1E47
:101580003278582A04D039A20C920CAA02920BE0AD
:101590003BA2F9E75B46009AFEF739FE0C9B9B5C89
:1015A000029A521E0292137050EA0102F2D102987E
:1015B00004A9081A00F1200B600702D524F4803436
:1015C00000E001275F4502DDA7EB0B0000E00020F3
:1015D00000EB0B01009003984944401A0390E0038C
:1015E00006D453462146179A039800F0A9F90544FA
:1015F000002706E001A85246C05D179990476D1C70
:101600007F1C4F45F6DBE0030CD553462146179A65
:10161000039800F095F9054404E0302052461799EC
:1016200090476D1C0099481E00900029F5DC08E0E9
:101630000298029952460078491C029117999047E6
:101640006D1CBBF10001ABF1010BF1DC5BE100F0C3
:1016500065F90544761C307800287FF40DAE19B08A
:101660002846BDE8F08F00000928010030313233F0
:1016700034353637383961626364656600000000CE
:1016800030313233343536373839414243444546B8
:1016900000000000600700D4062708F1070020F0D2
:1016A0000700F0E80223804603F0004C5FEA0C00DC
:1016B00001D097A009E0200501D596A005E0E0073C
:1016C00001D095A001E0AFF24C001390307823F0E8
:1016D000004365280CD006DC452809D046281DD0DB
:1016E00047287FD13BE0662818D067287AD136E0BA
:1016F0000021112F01DB112000E0781CCDE9000151
:1017000004A90CA8FFF7EEFCDDE90D010C9A4FF0DF
:10171000000B07F10109109200914EE04FF00040DC
:101720000097CDE9011004A90CA8FFF7DBFCDDE967
:101730000D020C9B0F994FF0000B914610930092F5
:1017400011B9791C00EB0109B7EB090003D4C0F112
:10175000FF3B07F10109A9EB0700019042E0012FCF
:1017600000DA01270021112F01DD112000E03846A9
:10177000CDE9000104A90CA8FFF7B4FCDDE90D01D7
:101780000C9A00914FF0000BB946109221070FD42C
:10179000009A4A4503DA914601E0A9F10109B9F13D
:1017A000010F05DD109AA9F10101515C3029F4D037
:1017B000B84202DA10F1040F03DA0121CDE9011079
:1017C00010E0002803DC8344A9EB000102E0411C87
:1017D000494500DD8946A0EB0B00401C01904FF00D
:1017E00000400290200705D40198484502DB4FF0E5
:1017F000FF30019000208DF84B0002980DF14B074F
:10180000B0F1004F25D002200C902B200D900298B3
:1018100000280CDA404202902D200D9007E00A21AA
:101820000298FEF7DEFC3031029007F8011D0C999A
:10183000481E0C900029F2DC02980028EFD1791E96
:101840000D980870307800F0200040F0450007F84F
:10185000020D11A8C01BC01D02901398007800B1A2
:10186000012000EB0901019801EBE07102980144AD
:101870000398401A401E0390E00306D453462146C5
:10188000179A039800F05CF805441398007818B193
:101890005246179990476D1CE00323D553462146C5
:1018A000179A039800F04CF805441BE0BBF1000FB9
:1018B00007DB0098584504DD1098179910F80B00C5
:1018C00001E0179930205246904701980BF1010B27
:1018D000401E05F10105019004D12E2052461799B2
:1018E00090476D1CB9F10001A9F10109DEDC05E0AA
:1018F00017F8010B5246179990476D1C0299481E24
:1019000002900029F4DC53462146179A03989EE67C
:101910002D0000002B000000200000002DE9F04108
:10192000044600251E461746880404D405E03946BF
:101930002020B0476D1C641EF9D52846BDE8F08113
:101940002DE9F041044600251E469046C80301D506
:10195000302700E02027880404D505E041463846BA
:10196000B0476D1C641EF9D52846BDE8F081000023
:101970002DE9F0410446884600202071401E606237
:101980004146204602F06CFB10B10420BDE8F08116
:1019900004F2362001F0FDFF074694F83850EB2D95
:1019A00003D0E92D01D0E82D43D14AF655208742D6
:1019B00008D1082223A104F18A00FEF705FC08B92A
:1019C0000020E3E704F1430001F0E3FF0646452071
:1019D000055D701E304060BBB6F5007F29DBB6F5B3
:1019E000805F26DC2DB3681E284010BB04F1460042
:1019F00001F0CFFFE8B14820005D401E012818D853
:101A000004F1490001F0C5FF98B104F14B0001F069
:101A1000C0FF802806DA04F1580001F0C0FFB0F5DD
:101A2000803F06D304F14E0001F0B3FF08B100205F
:101A3000ACE74AF65520874201D10220A6E70320F1
:101A4000A4E700004641543332202020000000006B
:101A50000246891ED069801E884201D80020704746
:101A60005389506B03FB0100F9E700002DE9F047B3
:101A700080460C4604F11A0001F08BFF10B10020E3
:101A8000BDE8F087207800F03F00401E00EB8001A9
:101A900001EBC0054FF00109002621E01849895DDE
:101AA000081901F076FF0746B9F1000F11D0FF2D9C
:101AB0000BD8384601F038FD824629466D1C38F8AF
:101AC000110001F031FD824501D00020D8E7B94670
:101AD00005E04FF6FF70874201D00020D0E7761C6A
:101AE0000D2EDBD3207800F0400038B1B9F1000FA3
:101AF00004D038F8150008B10020C1E70120BFE785
:101B00000C4500082DE9F04782468846DAF8004087
:101B1000B8F1000F06D1676917B1E069B84215D86E
:101B2000012713E04146504601F06CFE0546022DA8
:101B300002D20120BDE8F087681C08B92846F9E701
:101B4000E069A84201D92846F4E74746A06908B9E8
:101B50000020EFE70026474518D17E1CE069B0421F
:101B600000D802263146504601F04CFE0546012DB4
:101B700001D0681C08B92846DCE73DB16569022D33
:101B800003D3E069A84200D92F460026E6B93E46B5
:101B900000BF761CE069B04204D80226BE4201D9DB
:101BA0000020C7E73146504601F02CFE054605B936
:101BB00009E0012D01D0681C08B92846BAE7BE42E9
:101BC000E7D10020B6E700BF4FF0FF323146204694
:101BD00002F060FA8146B9F1000F08D1B8F1000FA8
:101BE00005D032464146204602F054FA8146B9F10A
:101BF000000F0FD16661A069A0B1D4E90610801E64
:101C000081420FD8A069401EA061607940F00100B8
:101C1000607107E0B9F1010F02D14FF0FF3000E031
:101C200001200646304685E72DE9F34F85B0814611
:101C3000069800680490D9F80000D0F810A000259C
:101C400000BF04A802F01DFC83460BF1010018B987
:101C5000062007B0BDE8F08FBBF5803F05D34FEA03
:101C60001B4228466D1C2AF810201FFA8BF4202CEA
:101C700003DB2F2C01D05C2C00D111E0802C06DA84
:101C800021467BA0FEF796FA08B10620E1E7FF2D7A
:101C900001D30620DDE728466D1C2AF81040D0E766
:101CA00000BF202C01DA042611E002E00498401C59
:101CB0000490049800782F28F8D0049800785C28C5
:101CC000F4D0002604980078202800D20426049935
:101CD0000698016008E0681E3AF81040202C02D0F7
:101CE0002E2C00D002E06D1E002DF4D100BF00208C
:101CF0002AF815000DB90620ABE7002700E07F1C8D
:101D00003AF817002028FAD01FB93AF817002E2801
:101D100001D146F0030600E06D1E25B1681E3AF8B9
:101D200010002E28F8D120220B2109F12000FEF707
:101D30002FFA4FF00008CDF80C800820029000BF69
:101D400038467F1C3AF8104004B966E0202C03D0D6
:101D50002E2C04D1AF4202D046F00306F0E7DDE9B5
:101D60000210884201D2AF4216D102980B2802D14C
:101D700046F0030651E0AF4201D046F00306AF4201
:101D800000D94AE02F46082003900B2002904FEA2A
:101D900088604FEA1068D3E7802C0ADB46F0020621
:101DA000204601F0C1FB4FF46A71019001F082FB03
:101DB0000446FF2C11DD0298401E0399884204D886
:101DC00046F0030602980390BAE722120398411CDA
:101DD000039109F120010A5418E024B1214627A0FB
:101DE000FEF7E8F918B15F2446F003060EE0412C37
:101DF00003DB5A2C01DC48F00208612C06DB7A2C4C
:101E000004DC48F00108A4F1200084B20398411CCE
:101E1000039109F120010C5492E700BF99F82000CA
:101E2000E52802D1052089F820000298082803D16E
:101E30004FEA88604FEA106808F00C000C2803D0C5
:101E400008F00300032801D146F0020606F0020064
:101E500048B908F0010008B146F0100608F0040087
:101E600008B146F008062B2000F809600020F0E6D3
:101E70002A3A3C3E7C223F7F000000002B2C3B3D59
:101E80005B5D00002DE9FF4F85B09A4603AA012152
:101E9000059800F064FB18B1012009B0BDE8F08F8F
:101EA000DDF80C904FF03F08082701E07806070E98
:101EB00037B1B9FBF7F0B0FBF8F0B0F5806FF5D8AB
:101EC00007B9FF274FF480515046FEF768F90AF52D
:101ED000DF764FF0000B444669E0069850F82B502F
:101EE000642D07D801D1484603E06420B9FBF0F027
:101EF000684305466019484501D8601901D3A9EB2C
:101F0000040505B959E0214606F1080002F01DFA62
:101F1000294606F10C0002F018FA07983071B4FB5C
:101F2000F8F0B0FBF7F00490B4FBF8F0B0FBF7F179
:101F300007FB1100C0B20290B4FBF8F008FB1040A0
:101F4000401CC0B2019002987070C021049801EA50
:101F5000900001990843B0700498F0706019401E19
:101F6000B0FBF8F0B0FBF7F004906019401EB0FB36
:101F7000F8F0B0FBF7F107FB1100C0B20290601956
:101F8000401EB0FBF8F108FB1100401CC0B20190EC
:101F900002987071C021049801EA900001990843E9
:101FA000B0710498F07110360BF1010B2C44BBF1A9
:101FB000040F02D20CB14C458FD300BF4AF6552115
:101FC0000AF5FF7002F0BBF9012300225146059883
:101FD00000F014FB08B101205FE700205DE700007E
:101FE00001460B48007888420FDC09484078884257
:101FF00001DB0120704706488078884205DC0448F0
:10200000C078884201DB0120F4E70020F2E70000FD
:1020100019450008014610480079884219DC0E482D
:102020004079884201DB012070470B488079884263
:1020300005DC0948C079884201DB0120F4E7064845
:10204000007A884205DC0448407A884201DB01209E
:10205000EAE70020E8E70000194500080146114AB8
:1020600012684A434FF0E0235A6100229A611A46EF
:10207000126942F001021A6100BF4FF0E0221069BC
:1020800000F001021AB100F48032002AF5D04FF0BE
:10209000E022126922F001024FF0E0231A610022CF
:1020A0009A6170472C0000202DE9F04104460E464D
:1020B000D4F800800021204600F0E5F90546EDB98E
:1020C000002700BF4046A16901F0CAFF054605B1DF
:1020D00013E0E0690078E52802D0E069007820B9D3
:1020E000781C0746B04201D107E0002701212046B5
:1020F00000F0B7F80546002DE4D000BF042D00D154
:1021000007252846BDE8F0812DE9F04704468946B9
:10211000204602F091F910B10120BDE8F087494650
:102120002046FFF795FC064666624FF4805104F1A5
:102130003800FEF734F804F138080127002500E0E4
:102140003D446089A84207D9721960783B464146F0
:1021500000F054FA0028F3D06089A84201D0012091
:10216000DBE70020D9E72DE9F0470446D4F800A0CA
:102170000021204600F087F9064616B13046BDE83A
:10218000F0874FF0FF08C1464FF0FF30E06200BF1C
:102190005046A16901F064FF064606B15EE0E069C1
:1021A00005780DB9042659E0E069C07A00F03F07D0
:1021B000A771E52D04D007F0080038B10F2F05D026
:1021C0004FF0FF084FF0FF30E06240E00F2F22D1C8
:1021D0002B20005D00F0400098BB05F0400038B1B6
:1021E00005F0BF05A8462069E062E06990F80D900F
:1021F00045450CD1E069407B484508D1E169DAF8F2
:102200001000FFF733FC10B1A8F1010000E0FF203F
:1022100000F0FF081BE0B8F1000F05D1E06902F003
:10222000B2F8484500D119E02B20005D00F0010014
:1022300040B90B2204F12001E069FDF7C5FF08B9A0
:102240000CE004E04FF0FF084FF0FF30E0620021A7
:10225000204600F006F80646002E99D000BF304612
:102260008DE72DE9F041044688462668206900F193
:102270002007B7F5001F01D30020A061A06910B9A5
:102280000420BDE8F081B089B7FBF0F100FB1170CC
:10229000002847D1A069401CA061606938B9308925
:1022A000B0EB571F3ED80020A0610420E9E7B089B9
:1022B000B7FBF0F07189491E084098BB2046616960
:1022C00001F0A0FA0546012D01D80220D9E7681CCB
:1022D00008B90120D5E7F069A8421DD8B8F1000F70
:1022E00003D10020A0610420CBE720466169FFF7FD
:1022F00009FC05460DB90720C3E7012D01D10220D5
:10230000BFE7681C08B90120BBE729463046FFF744
:10231000FBFE08B10120B4E7656129463046FFF7AE
:1023200097FBA0612761B089B7FBF0F100FB117149
:1023300006F138000844E0610020A2E72DE9FE4FD5
:10234000044626682B20005D00F0A00010B1062096
:10235000BDE8FE8F4FF0000901E009F10109306985
:1023600030F819000028F8D1D4E90912206A8DE864
:1023700007009DF80B0000F0010030B340212B2036
:1023800001554FF001080FE01FFA88F3694604F188
:102390002000326901F0C2F92046FFF7E4FE05464D
:1023A00005B104E008F10108B8F1640FECD300BFF7
:1023B000B8F1640F01D10720CAE7042D01D02846E7
:1023C000C6E79DF80B102B2001559DF80B0000F07F
:1023D000020030B109F10C000D21B0FBF1F0401CFE
:1023E00000E00120074639462046FFF75DFE05461E
:1023F00055BB781E071E27D02069A0EB4711204649
:1024000000F041F80546FDB904F1200001F0BBFFE2
:10241000824600BF3046A16901F022FE054605B1A3
:1024200010E0FAB2E1695346306901F0FBFE012089
:10243000307100212046FFF714FF054615B9781EBC
:10244000071EE7D100BF00BFDDB93046A16901F02A
:1024500007FE0546ADB92021E069FDF7A0FEE06961
:10246000216A0160616A4160218D018194F82A101E
:1024700081722B20005D00F01800E16908730120D3
:102480003071284664E72DE9F04104460E46256880
:10249000B6F5001F02D206F01F0010B10220BDE801
:1024A000F0812661A7681FB92878032800DB2F6B0D
:1024B00047B92889B0EB561F01D80220EFE7286BF7
:1024C000A0611DE06889A98900FB01F811E0394687
:1024D000204601F097F90746781C08B90120DEE78D
:1024E000022F02D3E869B84201D80220D7E7A6EB51
:1024F00008064645EBD239462846FFF7A9FAA061FF
:102500006761A06908B90220C9E7A889B6FBF0F0A5
:10251000A1690844A061A889B6FBF0F100FB116134
:1025200005F138000844E0610020B8E770B50446C2
:1025300001267CB9FEF712FA4FF4FA7500BF681E47
:1025400080B2051EFBD1FEF7D5FC002000F041F85B
:10255000064601E0012600BF00BF304670BD10B541
:1025600003460420A3B9012904D0022906D0032977
:102570000BD107E04FF4C064146006E04FF48054C0
:10258000148002E00124146000BF00BF002001E0BD
:10259000042000BF00BF10BD2DE9F04105460E46E6
:1025A00014461F464FF0040865B904F500744FF651
:1025B000FF7000EA073221033046FEF73DFC4FF082
:1025C000000802E04FF0040800BF00BF4046BDE82D
:1025D000F08170B5044601255CB9FEF755FC06464E
:1025E0004EF61770864202D125F0010500E0012564
:1025F00001E0012500BF00BF284670BD2DE9F0476E
:1026000006460F4614461D464FF0040915B904202E
:10261000BDE8F08776B904F500744FEA04384FF648
:10262000FF7000EA053241463846FEF77FFC4FF066
:10263000000902E04FF0040900BF00BF4846E7E789
:1026400038B50546284600F0A6FD04463CB9694663
:10265000284601F03CFF04460CB9002028602046C3
:1026600038BD00002DE9FF4F99B00E4619A801F0C2
:1026700067F903900398002803DA0B201DB0BDE82A
:10268000F08FFE49039851F8200028B10021FB4A41
:10269000039852F8200001700398C0B216900020F1
:1026A00015901698FFF742FF0290029800F0010083
:1026B00008B10320E2E7029800F0040008B10A2004
:1026C000DCE706B9EE4E70681290129820B912AA93
:1026D00003211698FFF743FF129840B11298B0F506
:1026E000004F04D81298401E1299084008B10120EA
:1026F000129014AA02211698FFF731FF08B10120A9
:10270000BCE7BDF85000B0F5805F0BDCBDF85000B1
:10271000B0F5007F06DBBDF85000401EBDF850103C
:10272000084008B10120A9E7307800F00F001890A8
:102730007078012804DB7078022801DC707800E0F2
:1027400001200590B16889B1B168B1F5004F0DD88D
:10275000BDF85000C11700EBD1614911B268B2FB5E
:10276000F1F301FB132109B9B16801E04FF40071E5
:102770000491F068B0F1807F05D8F068411E0840F0
:1027800008B9F06800E000200690BDF850100698E7
:10279000B0FBF1F00690BDF850101C98B0FBF1F0C2
:1027A0001390139808B9112068E71B9C0CB91120ED
:1027B00064E74FF0000ACDF83CA000BF0FAA01214A
:1027C0001698FFF7CCFE08B1012057E7189800F0E3
:1027D000080040B90F983F2805D94FF03F0A0F98DD
:1027E000A0EB0A000F900F98802801D20E2045E739
:1027F00000BF00BF0698802801D980200690189855
:1028000000F0020028B1189800F0010008B9032771
:1028100007E0189800F0010008B913202EE70227FE
:1028200000BF00BF01F088F80F990844109000BF66
:10283000069D032F2DD195B90F984FEA50494FF0BF
:10284000000B012502E00BF1010B6D008D4830F803
:102850001B0020B18B4830F81B004845F3D90F9876
:10286000B0FBF5F8082000EB8800BDF850100844D4
:10287000401EB0FBF1F00890202009900020079046
:102880004FF6F570804502D97F48804539D90E2032
:10289000F4E695B90F984FEA10394FF0000B012577
:1028A00002E00BF1010B6D00784830F81B0020B1FD
:1028B000764830F81B004845F3D90F98B0FBF5F87F
:1028C00040F6F570804503D9042000EB480906E086
:1028D000012708EB4800401C032101EB5009BDF81B
:1028E00050004844401EBDF85010B0FBF1F0089075
:1028F0000120099004984001BDF85010B0FBF1F0A0
:102900000790099850440E90059A08990E9801FB7B
:102910000201079808440D9012990D980844401E32
:10292000491E20EA01010D98A1EB0009032F06D1F1
:102930000998484409900E9848440E9013E0059871
:10294000B9FBF0F100FB119038B1A9F10109099828
:10295000401C09900E98401C0E900598B9FBF0F1B0
:102960000898084408900D9800EB0510A0EB0A00A9
:102970000F99884201D90E2080E60F9909980A1A0A
:102980000599089800FB11210798081AB0FBF5F883
:10299000032F0BD14FF6F570804507D8069818B96C
:1029A0006808069000B135E00E2067E6022F28D1B6
:1029B0004FF6F570804517D9069830B94020B0EB36
:1029C000450F02D36800069024E0189800F002003A
:1029D00008B103271EE0069820B9680006908028F9
:1029E00000D817E00E2049E640F6F570804508D87B
:1029F000069820B968000690802800D80AE00E20CA
:102A00003CE6012F05D140F6F570804501D90E2036
:102A100034E600E00CE700BFBDF850102046FDF79B
:102A2000BEFB1BA0016821604168616001892181B2
:102A3000807AA072BDF8501004F10B0001F07FFC09
:102A40006573099881B204F10E0001F078FC0598D5
:102A50002074032F01D1002000E0049881B204F11A
:102A6000110001F06CFC0F98B0F5803F16D20F9862
:102A700081B204F1130001F062FC14E03400002084
:102A80004045000832450008F5FFFF0F24450008C7
:102A9000EBFE904D53444F53352E300004F120008F
:102AA0000F9901F052FCF82060753F2104F11800E5
:102AB00001F045FCFF2104F11A0001F040FC5146F1
:102AC00004F11C0001F041FC032F25D104F1430067
:102AD000109901F03AFC04F12400089901F035FC4A
:102AE000022104F12C0001F030FC012104F130003E
:102AF00001F025FC062104F1320001F020FC8020C9
:102B000084F84000292084F84200132283A104F1B4
:102B10004700FDF72BFB16E004F12700109901F0A8
:102B200014FC089881B204F1160001F008FC802022
:102B300084F82400292084F8260013227CA104F1C3
:102B40002B00FDF713FB4AF6552104F5FF7001F049
:102B5000F6FB0123524621461698FFF74FFD08B1B8
:102B600001208BE5032F33D101230AF10602214610
:102B70001698FFF743FDBDF850102046FDF70FFBF8
:102B80007049204601F0E1FB6F4904F5F27001F055
:102B9000DCFBA8F1010104F5F47001F0D6FB022181
:102BA00004F5F67001F0D1FB4AF6552104F5FF70EB
:102BB00001F0C5FB01230AF1070221461698FFF731
:102BC0001DFD01230AF1010221461698FFF716FDAB
:102BD000BDF85020139800FB02F12046FDF7DFFA04
:102BE0000E980C904FF0000B40E0032F0FD16FF0C8
:102BF0000701204601F0A9FB391F201D01F0A5FBAC
:102C00006FF0704104F1080001F09FFB09E0012F13
:102C100001D14E4801E06FF007000146204601F067
:102C200094FB0898119000BF13991198884201D91C
:102C3000139800E0119881464B4621460C9A16984D
:102C4000FFF7DCFC08B1012018E5BDF85010204664
:102C5000FDF7A5FA0C9848440C901198A0EB0900D8
:102C6000119011980028DFD10BF1010B05988345D5
:102C7000BBD3032F01D1284600E00798119000BF75
:102C800013991198884201D9139800E01198814650
:102C90004B4621460C9A1698FFF7B0FC08B101206C
:102CA000ECE40C9848440C901198A0EB09001190AA
:102CB00011980028E4D100BF032F02D10C201790F7
:102CC0000DE00F98B0F5803F02D30620179006E084
:102CD000022F02D10420179001E00120179000BFBD
:102CE000189800F0080070B90F980A9000200B9017
:102CF00023460AA9DDE91602FFF7C4F801900198FE
:102D000008B10198BAE4002211461698FFF727FC93
:102D100008B10120B2E40020B0E400004E4F204E84
:102D2000414D4520202020464154333220202000B0
:102D30004E4F204E414D452020202046415420201A
:102D4000202020005252614172724161F8FFFF0061
:102D5000F7B582B016460398019001A800F0F0FD87
:102D60000446002C02DA0B2005B0F0BD0F4850F8E5
:102D7000245025B100200D4941F824002870029804
:102D800040B102994C7000200299087007490298DE
:102D900041F824000EB90020E6E7002202A903A8AA
:102DA00000F0E4FF07463846DEE70000340000206C
:102DB0002DE9F747ADF50D7D0446164624B90920E7
:102DC0000DF5107DBDE8F08706F03F06324680A97C
:102DD0008EA800F0CBFF0546002D73D180982060AF
:102DE000809881908099C1F810D081A88E9900F0C8
:102DF0002FFC05462DB99DF82F0200F0800000B190
:102E0000062506F01C00002854D045B1042D03D13E
:102E100081A8FFF793FA054646F008060AE006F097
:102E2000040008B1082505E09DF80A0200F0110031
:102E300000B10725002D4FD106F0080000284BD027
:102E400000F07AFD8146889901F10E00494601F0B3
:102E50007CFA889901F11600494601F076FA8899C2
:102E6000809800F0A8FD074620208899C8720022AB
:102E70008899809801F075FA889901F11C00002169
:102E800001F063FA01208099087197B18098D0F819
:102E900024800022394681A801F004FA05463DB994
:102EA0004146809801F0DCF80546781E809948611B
:102EB00000BF11E085B99DF80A0200F0100010B1C2
:102EC000042509E076E006F0020028B19DF80A0228
:102ED00000F0010000B107254DB906F0080008B167
:102EE00046F040068098406A206288986062002D13
:102EF00060D18899809800F05EFDA060889901F10A
:102F00001C0000F04CFDE0608098C088A080267412
:102F100000206074E06160614FF4805104F128008A
:102F2000FDF73DF906F02000002843D0E0680028B6
:102F300040D0E0686061809840898099898900FB71
:102F400001F9A768D4F80C800CE03946204600F05F
:102F500059FC0746012F00D80225781C00B901252D
:102F6000A8EB09080DB9C845EFD8A7610DBB80983B
:102F70008089B8FBF0F100FB1180D0B13946809810
:102F8000FEF766FD8246BAF1000F01D102250FE07F
:102F900080988089B8FBF0F05044E061E269809944
:102FA0004878012304F12801FFF7F6FA00B1012562
:102FB00000BF00BF0DB100202060284600E72DE9CA
:102FC000FF4F85B0044615469B46069801900020A9
:102FD000CBF8000003A9204601F079FA0490049888
:102FE00010B9607C049018B1049809B0BDE8F08F66
:102FF000207C00F0010008B90720F6E76169E0686D
:10300000401A02900298854200D9029DBEE0606994
:1030100003998989B0FBF1F201FB1200002879D1F4
:10302000606903998989B0FBF1F003994989491EC8
:1030300000EA010ABAF1000F18D1606910B9D4F89A
:10304000088004E02046A16900F0DCFB8046B8F16E
:10305000020F02D202206074C7E708F1010010B924
:1030600001206074C1E7C4F8188000BFA16903980B
:10307000FEF7EEFC064616B902206074B5E756442A
:1030800003988089B5FBF0F9B9F1000F2FD00AEB56
:10309000090003994989884203D903984089A0EB24
:1030A0000A09039948784B4632460199FFF774FAAA
:1030B00010B10120607498E7207C00F0800088B196
:1030C000E069801B48450DD2E1698B1B0399B1F87B
:1030D0000CC0019903FB0C1003998A8904F12801A3
:1030E000FDF744F80398808900FB09F742E0E069A6
:1030F000B04220D0207C00F0800080B1E2690399CA
:103100004878012304F12801FFF778FA18B101206B
:1031100060746AE710E0207C00F07F00207403995F
:1031200048780123324604F12801FFF735FA10B13F
:103130000120607459E7E661606903998989B0FBF1
:10314000F1F201FB1200039989890F1AAF4200D9ED
:103150002F46606903998989B0FBF1F201FB1201E6
:1031600004F1280001EB00083A4641460198FCF7BB
:10317000FDFF00BFED1BDBF800003844CBF800007A
:10318000019838440190606938446061002D7FF4F3
:103190003EAF002029E7F8B504466946204601F015
:1031A00096F90646002E45D1207C00F0400000280C
:1031B00040D0207C00F0800070B1E269009948782E
:1031C000012304F12801FFF719FA08B10120F8BD25
:1031D000207C00F07F002074216A009800F040FFFE
:1031E00006463EBB656AE87A40F02000E872294650
:1031F000A268206801F0B5F805F11C00E16801F053
:10320000A4F800F099FB0746394605F1160001F0D5
:103210009CF8002105F1120001F091F801200099BD
:103220000871009801F0C0F80646207C00F0BF004D
:10323000207400BF3046CAE72DE9FF4F85B0044631
:1032400015469B46069802900020CBF8000003A983
:10325000204601F03CF90490049810B9607C049079
:1032600018B1049809B0BDE8F08F207C00F002008E
:1032700008B90720F6E700BF606928446169884201
:1032800002D26069C0F1FF35D6E06069039989898F
:10329000B0FBF1F201FB120000287DD160690399B7
:1032A0008989B0FBF1F003994989491E00EA010AB6
:1032B000BAF1000F1ED1606938B9A76857B900216B
:1032C0002046FEF71FFC074604E02046A169FEF7F2
:1032D00019FC074607B9B2E0012F02D10220607441
:1032E000C0E7781C10B901206074BBE7A761A06833
:1032F00000B9A760207C00F0800078B1E2690399F2
:103300004878012304F12801FFF778F910B1012072
:103310006074A7E7207C00F07F002074A169039807
:10332000FEF796FB064616B9022060749AE75644EB
:1033300003988089B5FBF0F9B9F1000F31D00AEBA1
:10334000090003994989884203D903984089A0EB71
:103350000A09039948784B4632460299FFF74EF91D
:1033600010B1012060747DE7E069801B484511D2EF
:10337000E069831B0398B0F80CC0029803FB0C01B2
:103380000398828904F12800FCF7F0FE207C00F00D
:103390007F002074039800E017E0808900FB09F8A3
:1033A00035E0E069B0420FD0E168606988420BD235
:1033B000039948780123324604F12801FFF7ECF81D
:1033C00010B1012060744DE7E66160690399898955
:1033D000B0FBF1F201FB120003998989A1EB00080F
:1033E000A84500D9A846606903998989B0FBF1F224
:1033F00001FB120104F128000844424601900299A1
:10340000FCF7B4FE207C40F08000207400BFA5EBE8
:103410000805DBF800004044CBF800000298404467
:103420000290606940446061E1686069884201D946
:10343000606900E0E068E060002D7FF426AF00BF27
:10344000207C40F04000207400200BE7F0B50246DD
:103450000E4600200021802A01DA104627E0B6F54A
:103460006A7F24D1124B45F220570025102414E026
:10347000A7EB050C05EB5C014FEA410C33F81CC0CF
:10348000944500D10BE04FEA410C33F81CC0944541
:1034900001DA0D4600E00F46641E002CE8D100BFA3
:1034A0002CB14FF0010C0CEB410C33F81C00F0BDBB
:1034B000D49901082DE9F04102460F460020002171
:1034C000802A01D290B22BE0B2F5803F28D2B7F526
:1034D0006A7F25D195B2134B45F2205C002610245B
:1034E00014E0ACEB060806EB58014FEA410833F84C
:1034F0001880A84500D10BE04FEA410833F8188046
:10350000A84501DA0E4600E08C46641E002CE8D186
:1035100000BF2CB14FF0010808EB410833F8180048
:10352000BDE8F0815045000870B5B0F5803F4DD240
:1035300081B2B1F5805F01DA254E00E0254E3246BA
:1035400000BF32F8023B0BB1994200DA3CE032F89E
:10355000024B2512E4B21E198E4230DD092D2CD209
:10356000DFE805F005090F13171B1F232700CE1AEC
:1035700032F8161021E0CE1A06F001068E1BB1B209
:103580001BE0A1F11006B1B217E0A1F12006B1B223
:1035900013E0A1F13006B1B20FE0A1F11A06B1B209
:1035A0000BE001F10806B1B207E0A1F15006B1B29B
:1035B00003E0A1F5E356B1B200BF00BF04E0002D67
:1035C000BFD102EB4402BCE700BF084670BD00005B
:1035D00058EE02084AF002082DE9FF4107460D4661
:1035E00000213846FEF7C4F90646022E06D0032E07
:1035F00000D21DB9304604B0BDE8F08100BF002400
:103600000AE007F5FB7101EB041101F1080000F07D
:10361000C6F94DF82400641C042CF2D30DB1681EC9
:1036200000E00020044600BF5DF8240028B15DF8EA
:1036300024103846FEF79CF900E0032006462DB919
:10364000022E03D3601C04460428EDD33046D2E793
:103650002DE9F3410446276802E00198401C0190DF
:10366000019800782F28F8D0019800785C28F4D0D1
:103670000020A06001980078202808D280212B200B
:10368000015500212046FEF7FEFE054631E000BF51
:1036900001A92046FEF7C8FA054605B128E02B200F
:1036A000065D2046FEF75FFD05463DB1042D04D1C1
:1036B00000BF06F0040000B9052519E006F004007B
:1036C00000B115E0A07900F0100008B905250FE061
:1036D000B9892069B0FBF1F201FB120107F1380052
:1036E00001EB00084146384600F065F9A060CFE7DD
:1036F00000BF2846BDE8FC8170B504460D46E1B226
:103700000548FDF731FB00BF40210348FDF7B3FA40
:103710000128F9D1204670BD003801402DE9FC4751
:1037200007468A4690461C46DAF800003860DAF808
:1037300004007860BAF8080038819AF80A00B87274
:10374000052C18DD204610E038F8021B00250AE0A1
:103750000A4660F35F021046491000F480320AB155
:10376000274A50406D1C102DF2D3B8F80020002AD3
:10377000EAD184B200BF072500BF2046E11704EB61
:1037800011710911A4EB0111303101F0FF09E117AA
:1037900004EB1171C1F30F14B9F1390F03DD09F115
:1037A000070000F0FF0928466D1E0DF800900DB1CE
:1037B000002CE2D17E200DF80500002609E0B85D5E
:1037C000FEF70EFC20B1681EB04200D106E0761C68
:1037D000761CAE4202D2B85D2028F0D100BF00BFF7
:1037E000082D04D228466D1C1DF8000000E02020A2
:1037F0003146761C7854082EF2D3BDE8FC870000D1
:10380000211001002DE9F05F81460D46D9F80040F6
:10381000022D02D3E069A84202D84FF0010887E0E8
:103820004FF0FF382078012804D002283AD003282E
:103830007AD156E02E4606EB5606A089B6FBF0F08C
:10384000E16A00EB010A5146204600F009FC00B194
:103850006DE03046761CA189B0FBF1F201FB12014C
:1038600004F13800475CA089B6FBF0F0E16A00EB98
:10387000010A5146204600F0F3FB00B157E0A08951
:10388000B6FBF0F100FB116104F13800405C47EA3F
:10389000002705F0010008B1380901E0C7F30B006B
:1038A000804644E0B4F80CA00AEBDA704010B5FB97
:1038B000F0F0E16A00EB010B5946204600F0D0FB26
:1038C00000B134E06800A189B0FBF1F201FB120104
:1038D00004F1380001EB000A504600F05AF8804627
:1038E00025E0B4F80CA04FEAEA700AEB9070801063
:1038F000B5FBF0F0E16A00EB010B5946204600F001
:10390000AFFB00B113E0A800A189B0FBF1F201FB0D
:10391000120104F1380001EB000A504600F03FF8B4
:1039200020F0704803E0FFE74FF0010800BF00BF40
:103930004046BDE8F09F0000004870470000215A53
:1039400030B5044620680146024611B94FF0FF30F9
:1039500030BD00BF12F8013B202B01D33A2BF9D127
:103960003A2B14D101250878302808DB087839284B
:1039700005DC881C904202D10878A0F13005012DA9
:1039800002DB4FF0FF30E3E722602846E0E700204B
:10399000DEE7014648780A7842EA0020704701468F
:1039A000C8788A7842EA00204A7842EA00200A78F9
:1039B00042EA0020704770B505460C4604F11A0033
:1039C000FFF7E7FF06462878032805D104F1140025
:1039D000FFF7DFFF46EA0046304670BDFCF734FFD4
:1039E000FDF752FA0446214654A0FDF75BFB012285
:1039F00054A15548FFF7ACF95449087008460078BF
:103A00000D2824D152A0FDF74DFB4FF480535B4AA3
:103A100000214CA0FEF726FE4C49087008460078AD
:103A200088B957A0FDF73EFB012246A10020FFF711
:103A30008FF946490870012242A14348FFF788F9EF
:103A4000424908700DE055A0FDF72CFB09E03F4806
:103A5000007818B155A0FDF725FB02E05AA0FDF74C
:103A600021FB60A0FDF71EFB0A2269A16D48FFF74C
:103A70009FF93649087008460078002820D16AA0CE
:103A8000FDF710FB774B0D2277496648FFF7D4FB13
:103A90002E4908700846007848B97248016873A03A
:103AA000FDF700FB704979A0FDF7FCFA04E0274818
:103AB00001787DA0FDF7F6FA5A48FEF7C1FD02E055
:103AC0007EA0FDF7EFFA82A0FDF7ECFA012250A1EB
:103AD0005448FFF76DF91D49087008460078002822
:103AE0001ED185A0FDF7DEFA5E4B4FF48062864959
:103AF0004C48FFF764FA154908700846007848B941
:103B00005848016881A0FDF7CDFA7F4987A0FDF7ED
:103B1000C9FA08E00D4801788BA0FDF7C3FA02E06E
:103B20008EA0FDF7BFFA3F48FEF78AFD012205A1EE
:103B30000020FFF70DF900BFFEE7000025640D0A25
:103B400000000000303A0000400000201400002077
:103B5000666C617368BBB9C3BBD3D0CEC4BCFECFA7
:103B6000B5CDB3A3ACBCB4BDABBDF8D0D0B8F1CA31
:103B7000BDBBAF2E2E2E0D0A00000000A024002099
:103B8000666C617368D2D1B3C9B9A6B8F1CABDBBBE
:103B9000AFCEC4BCFECFB5CDB30D0A00B8F1CABDDF
:103BA000BBAFCAA7B0DC0D0A00000000CDE2B2BF77
:103BB000666C617368B9D2D4D8CEC4BCFECFB5CD23
:103BC000B3CAA7B0DC0D0A00CDE2B2BF666C617368
:103BD00068B9D2D4D8CEC4BCFECFB5CDB3B3C9B9C1
:103BE000A60D0A000D0A2A2A2A2A2A2A20BCB4BDB8
:103BF000ABBDF8D0D0CEC4BCFED0B4C8EBB2E2CAE4
:103C0000D42E2E2E202A2A2A2A2A2A0D0A00000023
:103C1000303A4661744673B6C1D0B4B2E2CAD42E0B
:103C20007478740078100020B4F2BFAA2FB4B4BD29
:103C3000A84661744673B6C1D0B4B2E2CAD4CEC449
:103C4000BCFE2E747874CEC4BCFEB3C9B9A6A3ACB6
:103C5000CFF2CEC4BCFED0B4C8EBCAFDBEDDA1A37A
:103C60000D0A0000180000201C000020CEC4BCFE7D
:103C7000D0B4C8EBB3C9B9A6A3ACD0B4C8EBD7D6FF
:103C8000BDDACAFDBEDDA3BA25640A00CFF2CEC4F8
:103C9000BCFED0B4C8EBB5C4CAFDBEDDCEAAA3BA83
:103CA0000D0A25730D0A0000CEC4BCFED0B4C8EBCB
:103CB000CAA7B0DCA3BA282564290A00B4F2BFAAB7
:103CC0002FB4B4BDA8CEC4BCFECAA7B0DC0D0A0098
:103CD0002A2A2A2A2A2A20BCB4BDABBDF8D0D0CECD
:103CE000C4BCFEB6C1C8A1B2E2CAD42E2E2E202A70
:103CF0002A2A2A2A2A0D0A00B4F2BFAACEC4BCFE80
:103D0000B3C9B9A60D0A0000A0200020CEC4BCFE95
:103D1000B6C1C8A1B3C9B9A62CB6C1B5BDD7D6BD69
:103D2000DACAFDBEDDA3BA25640D0A00B6C1C8A17A
:103D3000B5C3B5C4CEC4BCFECAFDBEDDCEAAA3BA0F
:103D40000D0A2573200D0A00CEC4BCFEB6C1C8A161
:103D5000CAA7B0DCA3BA282564290A00B4F2BFAA16
:103D6000CEC4BCFECAA7B0DC0D0A00002DE9F74F97
:103D700084B00021059801600498FFF7E1FD0390ED
:103D80000398002803DA0B2007B0BDE8F08FAE4996
:103D9000039851F820400CB90C20F5E70598046011
:103DA000069800F0FE000690207878B16078FEF763
:103DB00010FC074607F0010040B9069820B107F053
:103DC000040008B10A20DFE70020DDE700202070B2
:103DD0006078FEF7ABFB074607F0010008B103204F
:103DE000D2E7069820B107F0040008B10A20CBE71B
:103DF000607804F10C020221FEF7B1FB08B101204A
:103E0000C2E7A089B0F5805F07DCA089B0F5007F2C
:103E100003DBA089411E084008B10120B4E700215E
:103E20002046FFF7D9FB0546042D01D10120ABE761
:103E3000022D01D30D20A7E7D4F8249004F143000C
:103E4000FFF7A7FDA189884201D00D209CE704F16E
:103E50004E00FFF79EFD064626B904F15C00FFF711
:103E60009EFD064626624820005DE070E07801284D
:103E700004D0E078022801D00D2085E7E0784643A1
:103E80004520005D6081608918B16089411E08404D
:103E900008B10D2078E704F14900FFF77AFD208191
:103EA000A089C11700EBD1614911228992FBF1F37E
:103EB00001FB132109B10D2066E704F14B00FFF768
:103EC00068FD8246BAF1000F04D104F15800FFF7F3
:103ED00066FD824604F14600FFF75BFD8346BBF1B9
:103EE000000F01D10D204FE7A089C11700EBD16170
:103EF0004911228992FBF1F10BEB06021144029168
:103F000002998A4501D20D203EE70298AAEB0000F3
:103F10006189B0FBF1F8B8F1000F01D10D2033E752
:103F200000254A48804500D803254FF6F5708045A6
:103F300000D8022540F6F570804500D801250DB95E
:103F40000D2021E708F10200E061C4F8289009EB98
:103F50000B00E062029848446063032D13D104F122
:103F60006200FFF716FD08B10D200DE7208908B1AA
:103F70000D2009E704F16400FFF711FD2063E069FB
:103F80008000019014E0208908B90D20FCE6E06A69
:103F900030442063022D02D1E069400007E0207F19
:103FA00000F00100E16901EB410100EB51000190DB
:103FB000A089401E01990844A189B0FBF1F0216A53
:103FC000884201D90D20DFE64FF0FF30A06160612B
:103FD00080206071032D2CD104F16800FFF7D9FC1B
:103FE000012826D109F10101204600F039F800BB73
:103FF0000020607104F13800FFF7D1FC14498842B9
:1040000017D104F50770FFF7CAFC1249884210D196
:1040100004F50D70FFF7C3FC0F49884209D104F580
:104020000870FFF7BCFCA06104F50970FFF7B7FC4E
:104030006061257009480088401C80B207490880EB
:10404000E0800020A0E6000034000020F5FFFF0F14
:104050005252614172724161000055AA380000203D
:1040600070B504460D460026606AA84210D020466E
:1040700000F0E2F906465EB9607801232A4604F1B1
:104080003801FEF789FA10B14FF0FF35012665625D
:10409000304670BD2DE9F05F04460D4616464FF0E0
:1040A0000209022D72D3E069A8426FD92078012855
:1040B00004D0022857D0032811D179E02F4607EB0E
:1040C0005707A089B7FBF0F0E16A00EB010A5146FF
:1040D0002046FFF7C5FF8146B9F1000F00D09DE0F3
:1040E00038467F1CA189B0FBF1F201FB120104F1FB
:1040F000380001EB000805F0010028B1F1B298F892
:10410000000061F31F1000E0304688F80000012035
:104110002071A089B7FBF0F0E16A00EB010A51467B
:104120002046FFF79DFF8146B9F1000F00D075E0F2
:10413000A089B7FBF0F100FB117104F1380001EB2D
:10414000000805F0010010B1C6F3071006E098F86A
:10415000000000F0F000C6F30321084388F80000D7
:10416000012020715AE0B4F80CA00AEBDA7040107C
:10417000B5FBF0F0E16A00EB010B59462046FFF772
:104180006FFF8146B9F1000F01D047E047E06800BA
:10419000A189B0FBF1F201FB120104F1380001EB3F
:1041A000000AB1B2504600F0CAF80120207135E093
:1041B000B4F80CA04FEAEA700AEB90708010B5FBDF
:1041C000F0F0E16A00EB010B59462046FFF748FF8B
:1041D0008146B9F1000F00D020E0A800A189B0FB12
:1041E000F1F201FB120104F1380001EB000A504624
:1041F000FFF7D5FB66F31B000646A800A189B0FBBC
:10420000F1F201FB120104F1380001EB000A314622
:10421000504600F09AF80120207100BF00BF4846C8
:10422000BDE8F09F2DE9F04707460C461546984635
:1042300084F80D800F20E07200202073002104F12B
:104240001A0000F07CF8681E00EB800101EBC00949
:1042500000200646824600BF4FF6FF70864204D01B
:10426000484609F1010937F810600D4911F80A10A4
:104270000819314600F063F80EB94FF6FF760AF1DF
:10428000010082460D28E7D34FF6FF70864202D028
:1042900037F8190008B945F040052570BDE8F087EA
:1042A0000C4500082DE9F04781460E4617464FF0B1
:1042B0000008D9F80040022E02D3E069B04202D8CB
:1042C0000220BDE8F08767B100BF4FF0FF323946EA
:1042D0002046FFF7DFFE8046B8F1000F01D04046D0
:1042E000EFE700BF31464846FFF78CFA054605B9AF
:1042F00022E0012D01D10220E3E7681C08B901206A
:10430000DFE7002231462046FFF7C4FE8046B8F1C1
:10431000000F01D04046D4E7D4E90610801E814248
:1043200006D2A069401CA061607940F00100607174
:104330002E46E069B042D5D800BF0020C1E700F8A2
:10434000011B091200F8011B704700F8011B090A44
:1043500000F8011B090A00F8011B090A00F8011BFB
:10436000704770B506460C461546A9B204F11A000E
:10437000FFF7E5FF3078032804D1290C04F114007D
:10438000FFF7DDFF70BD30B5014600200B2200BFF6
:10439000431003EBC01411F8015B6319D8B2531E2C
:1043A0001A1EF5D130BD000070B50446204600F05D
:1043B00043F80546002D37D1607901282DD1002022
:1043C00060712078032828D14FF4805104F138001F
:1043D000FBF7E5FE154904F13800FFF7B6FF144975
:1043E00004F50770FFF7B1FF04F50870A169FFF746
:1043F000ACFF04F509706169FFF7A7FF0D4904F5EB
:104400000D70FFF7A2FFA16A491C0A46616260783D
:10441000012304F13801FEF7F1F86078002211461B
:10442000FEF79DF800B10125284670BD525261414A
:1044300072724161000055AA70B5044600252079CA
:10444000E8B16078012304F13801626AFEF7D6F81A
:10445000A0B900202071E16A606A401A216A88428E
:104460000DD2E07802280AD1D4E90831CA18607860
:10447000012304F13801FEF7C1F800E001252846C8
:1044800070BD2DE9F0410646356815F8014B204610
:10449000FDF7A6FD60B115F8017B3846FDF7BAFDC2
:1044A00018B94FF0FF30BDE8F08107EB042084B26B
:1044B0004CB14FF46A712046FEF7C8FF044614B9A8
:1044C0004FF0FF30EFE7A04635604046EBE770B5B0
:1044D00004460D4609268CB1206878B12068007822
:1044E00060B1A0882168C988884207D121684878CE
:1044F000FEF76FF800F0010000B900260EB9206841
:1045000000E000202860304670BD00000103050770
:10451000090E10121416181C1E81FE0000407E8029
:10452000FE00000001000400100040000001000235
:10453000000001000200040008001000200000003C
:104540000700000000000000000000000000000064
:10455000A400E8A1A700ECA1A800A7A1B000E3A1D6
:10456000B100C0A1B700A4A1D700C1A1E000A4A8D8
:10457000E100A2A8E800A8A8E900A6A8EA00BAA855
:10458000EC00ACA8ED00AAA8F200B0A8F300AEA819
:10459000F700C2A1F900B4A8FA00B2A8FC00B9A8BB
:1045A0000101A1A81301A5A81B01A7A82B01A9A877
:1045B0004401BDA84801BEA84D01ADA86B01B1A83A
:1045C000CE01A3A8D001ABA8D201AFA8D401B3A853
:1045D000D601B5A8D801B6A8DA01B7A8DC01B8A8F9
:1045E0005102BBA86102C0A8C702A6A1C902A5A129
:1045F000CA0240A8CB0241A8D90242A89103A1A6B1
:104600009203A2A69303A3A69403A4A69503A5A62A
:104610009603A6A69703A7A69803A8A69903A9A6FA
:104620009A03AAA69B03ABA69C03ACA69D03ADA6CA
:104630009E03AEA69F03AFA6A003B0A6A103B1A69A
:10464000A303B2A6A403B3A6A503B4A6A603B5A666
:10465000A703B6A6A803B7A6A903B8A6B103C1A627
:10466000B203C2A6B303C3A6B403C4A6B503C5A6CA
:10467000B603C6A6B703C7A6B803C8A6B903C9A69A
:10468000BA03CAA6BB03CBA6BC03CCA6BD03CDA66A
:10469000BE03CEA6BF03CFA6C003D0A6C103D1A63A
:1046A000C303D2A6C403D3A6C503D4A6C603D5A606
:1046B000C703D6A6C803D7A6C903D8A60104A7A7CF
:1046C0001004A1A71104A2A71204A3A71304A4A76E
:1046D0001404A5A71504A6A71604A8A71704A9A73C
:1046E0001804AAA71904ABA71A04ACA71B04ADA70A
:1046F0001C04AEA71D04AFA71E04B0A71F04B1A7DA
:104700002004B2A72104B3A72204B4A72304B5A7A9
:104710002404B6A72504B7A72604B8A72704B9A779
:104720002804BAA72904BBA72A04BCA72B04BDA749
:104730002C04BEA72D04BFA72E04C0A72F04C1A719
:104740003004D1A73104D2A73204D3A73304D4A7AD
:104750003404D5A73504D6A73604D8A73704D9A77B
:104760003804DAA73904DBA73A04DCA73B04DDA749
:104770003C04DEA73D04DFA73E04E0A73F04E1A719
:104780004004E2A74104E3A74204E4A74304E5A7E9
:104790004404E6A74504E7A74604E8A74704E9A7B9
:1047A0004804EAA74904EBA74A04ECA74B04EDA789
:1047B0004C04EEA74D04EFA74E04F0A74F04F1A759
:1047C0005104D7A710205CA9132043A81420AAA144
:1047D000152044A81620ACA11820AEA11920AFA125
:1047E0001C20B0A11D20B1A1252045A82620ADA1E7
:1047F0003020EBA13220E4A13320E5A1352046A8EA
:104800003B20F9A1AC2080000321E6A1052147A8A7
:10481000092148A81621EDA1212159A96021F1A261
:104820006121F2A26221F3A26321F4A26421F5A224
:104830006521F6A26621F7A26721F8A26821F9A2F4
:104840006921FAA26A21FBA26B21FCA27021A1A21C
:104850007121A2A27221A3A27321A4A27421A5A2F4
:104860007521A6A27621A7A27721A8A27821A9A2C4
:104870007921AAA29021FBA19121FCA19221FAA168
:104880009321FDA1962149A897214AA898214BA8D8
:1048900099214CA80822CAA10F22C7A11122C6A1A2
:1048A00015224DA81A22CCA11D22D8A11E22DEA1BC
:1048B0001F224EA82022CFA123224FA82522CEA11D
:1048C0002722C4A12822C5A12922C9A12A22C8A120
:1048D0002B22D2A12E22D3A13422E0A13522DFA1A6
:1048E0003622C3A13722CBA13D22D7A14822D6A18F
:1048F0004C22D5A1522250A86022D9A16122D4A174
:104900006422DCA16522DDA1662251A8672252A89B
:104910006E22DAA16F22DBA1952292A89922D1A161
:10492000A522CDA1BF2253A81223D0A16024D9A2D1
:104930006124DAA26224DBA26324DCA26424DDA267
:104940006524DEA26624DFA26724E0A26824E1A237
:104950006924E2A27424C5A27524C6A27624C7A243
:104960007724C8A27824C9A27924CAA27A24CBA227
:104970007B24CCA27C24CDA27D24CEA27E24CFA2F7
:104980007F24D0A28024D1A28124D2A28224D3A2C7
:104990008324D4A28424D5A28524D6A28624D7A297
:1049A0008724D8A28824B1A28924B2A28A24B3A2DF
:1049B0008B24B4A28C24B5A28D24B6A28E24B7A2D7
:1049C0008F24B8A29024B9A29124BAA29224BBA2A7
:1049D0009324BCA29424BDA29524BEA29624BFA277
:1049E0009724C0A29824C1A29924C2A29A24C3A247
:1049F0009B24C4A20025A4A90125A5A90225A6A936
:104A00000325A7A90425A8A90525A9A90625AAA9BA
:104A10000725ABA90825ACA90925ADA90A25AEA98A
:104A20000B25AFA90C25B0A90D25B1A90E25B2A95A
:104A30000F25B3A91025B4A91125B5A91225B6A92A
:104A40001325B7A91425B8A91525B9A91625BAA9FA
:104A50001725BBA91825BCA91925BDA91A25BEA9CA
:104A60001B25BFA91C25C0A91D25C1A91E25C2A99A
:104A70001F25C3A92025C4A92125C5A92225C6A96A
:104A80002325C7A92425C8A92525C9A92625CAA93A
:104A90002725CBA92825CCA92925CDA92A25CEA90A
:104AA0002B25CFA92C25D0A92D25D1A92E25D2A9DA
:104AB0002F25D3A93025D4A93125D5A93225D6A9AA
:104AC0003325D7A93425D8A93525D9A93625DAA97A
:104AD0003725DBA93825DCA93925DDA93A25DEA94A
:104AE0003B25DFA93C25E0A93D25E1A93E25E2A91A
:104AF0003F25E3A94025E4A94125E5A94225E6A9EA
:104B00004325E7A94425E8A94525E9A94625EAA9B9
:104B10004725EBA94825ECA94925EDA94A25EEA989
:104B20004B25EFA9502554A8512555A8522556A824
:104B3000532557A8542558A8552559A856255AA88D
:104B400057255BA858255CA859255DA85A255EA85D
:104B50005B255FA85C2560A85D2561A85E2562A82D
:104B60005F2563A8602564A8612565A8622566A8FD
:104B7000632567A8642568A8652569A866256AA8CD
:104B800067256BA868256CA869256DA86A256EA89D
:104B90006B256FA86C2570A86D2571A86E2572A86D
:104BA0006F2573A8702574A8712575A8722576A83D
:104BB000732577A8812578A8822579A883257AA8E6
:104BC00084257BA885257CA886257DA887257EA8A9
:104BD000882580A8892581A88A2582A88B2583A875
:104BE0008C2584A88D2585A88E2586A88F2587A845
:104BF000932588A8942589A895258AA8A025F6A19B
:104C0000A125F5A1B225F8A1B325F7A1BC258BA854
:104C1000BD258CA8C625F4A1C725F3A1CB25F0A1FD
:104C2000CE25F2A1CF25F1A1E2258DA8E3258EA8FE
:104C3000E4258FA8E52590A80526EFA10626EEA17C
:104C4000092691A84026E2A14226E1A10030A1A1B7
:104C50000130A2A10230A3A10330A8A10530A9A16F
:104C6000063065A9073096A90830B4A10930B5A16E
:104C70000A30B6A10B30B7A10C30B8A10D30B9A1E4
:104C80000E30BAA10F30BBA11030BEA11130BFA1B0
:104C9000123093A81330FEA11430B2A11530B3A185
:104CA0001630BCA11730BDA11D3094A81E3095A8A8
:104CB000213040A9223041A9233042A9243043A900
:104CC000253044A9263045A9273046A9283047A9D0
:104CD000293048A94130A1A44230A2A44330A3A462
:104CE0004430A4A44530A5A44630A6A44730A7A4C8
:104CF0004830A8A44930A9A44A30AAA44B30ABA498
:104D00004C30ACA44D30ADA44E30AEA44F30AFA467
:104D10005030B0A45130B1A45230B2A45330B3A437
:104D20005430B4A45530B5A45630B6A45730B7A407
:104D30005830B8A45930B9A45A30BAA45B30BBA4D7
:104D40005C30BCA45D30BDA45E30BEA45F30BFA4A7
:104D50006030C0A46130C1A46230C2A46330C3A477
:104D60006430C4A46530C5A46630C6A46730C7A447
:104D70006830C8A46930C9A46A30CAA46B30CBA417
:104D80006C30CCA46D30CDA46E30CEA46F30CFA4E7
:104D90007030D0A47130D1A47230D2A47330D3A4B7
:104DA0007430D4A47530D5A47630D6A47730D7A487
:104DB0007830D8A47930D9A47A30DAA47B30DBA457
:104DC0007C30DCA47D30DDA47E30DEA47F30DFA427
:104DD0008030E0A48130E1A48230E2A48330E3A4F7
:104DE0008430E4A48530E5A48630E6A48730E7A4C7
:104DF0008830E8A48930E9A48A30EAA48B30EBA497
:104E00008C30ECA48D30EDA48E30EEA48F30EFA466
:104E10009030F0A49130F1A49230F2A49330F3A436
:104E20009B3061A99C3062A99D3066A99E3067A91C
:104E3000A130A1A5A230A2A5A330A3A5A430A4A50A
:104E4000A530A5A5A630A6A5A730A7A5A830A8A5DA
:104E5000A930A9A5AA30AAA5AB30ABA5AC30ACA5AA
:104E6000AD30ADA5AE30AEA5AF30AFA5B030B0A57A
:104E7000B130B1A5B230B2A5B330B3A5B430B4A54A
:104E8000B530B5A5B630B6A5B730B7A5B830B8A51A
:104E9000B930B9A5BA30BAA5BB30BBA5BC30BCA5EA
:104EA000BD30BDA5BE30BEA5BF30BFA5C030C0A5BA
:104EB000C130C1A5C230C2A5C330C3A5C430C4A58A
:104EC000C530C5A5C630C6A5C730C7A5C830C8A55A
:104ED000C930C9A5CA30CAA5CB30CBA5CC30CCA52A
:104EE000CD30CDA5CE30CEA5CF30CFA5D030D0A5FA
:104EF000D130D1A5D230D2A5D330D3A5D430D4A5CA
:104F0000D530D5A5D630D6A5D730D7A5D830D8A599
:104F1000D930D9A5DA30DAA5DB30DBA5DC30DCA569
:104F2000DD30DDA5DE30DEA5DF30DFA5E030E0A539
:104F3000E130E1A5E230E2A5E330E3A5E430E4A509
:104F4000E530E5A5E630E6A5E730E7A5E830E8A5D9
:104F5000E930E9A5EA30EAA5EB30EBA5EC30ECA5A9
:104F6000ED30EDA5EE30EEA5EF30EFA5F030F0A579
:104F7000F130F1A5F230F2A5F330F3A5F430F4A549
:104F8000F530F5A5F630F6A5FC3060A9FD3063A933
:104F9000FE3064A90531C5A80631C6A80731C7A8E7
:104FA0000831C8A80931C9A80A31CAA80B31CBA851
:104FB0000C31CCA80D31CDA80E31CEA80F31CFA821
:104FC0001031D0A81131D1A81231D2A81331D3A8F1
:104FD0001431D4A81531D5A81631D6A81731D7A8C1
:104FE0001831D8A81931D9A81A31DAA81B31DBA891
:104FF0001C31DCA81D31DDA81E31DEA81F31DFA861
:105000002031E0A82131E1A82231E2A82331E3A830
:105010002431E4A82531E5A82631E6A82731E7A800
:105020002831E8A82931E9A82032E5A22132E6A2F8
:105030002232E7A22332E8A22432E9A22532EAA2F0
:105040002632EBA22732ECA22832EDA22932EEA2C0
:1050500031325AA9A33249A98E334AA98F334BA9B9
:105060009C334CA99D334DA99E334EA9A1334FA922
:10507000C43350A9CE3351A9D13352A9D23353A945
:10508000D53354A9004EBBD2014EA1B6024E408189
:10509000034EDFC6044E4181054E4281064E4381D8
:1050A000074EF2CD084EC9D5094EFDC80A4ECFC9EC
:1050B0000B4EC2CF0C4EA2D80D4EBBB20E4EEBD350
:1050C0000F4E4481104EA4D8114EF3B3124E4581B9
:1050D000134EA8D7144ED2C7154EA7D8164EC0CA25
:1050E000174E4681184EF0C7194EFBB11A4EB5D275
:1050F0001B4ED4B41C4EABB61D4EBFCB1E4EA9D812
:105100001F4E4781204E4881214E4981224EAAB62A
:10511000234E4A81244EBDC1254ECFD1264E4B8110
:10512000274EA5C9284EADD8294E4C812A4EF6B837
:105130002B4EBED12C4EDCE32D4ED0D62E4E4D81C3
:105140002F4E4E81304EE1B7314E4F81324EAEB4CC
:10515000334E5081344ED9C1354E5181364EBCD874
:10516000374E5281384EE8CD394EA4B53A4EAACECC
:105170003B4EF7D63C4E53813D4EF6C03E4ED9BE17
:105180003F4EAFD8404E5481414E5581424E5681DC
:10519000434ECBC4444E5781454EC3BE464E588104
:1051A000474EB1D8484EB4C3494EE5D24A4E598114
:1051B0004B4EAED64C4EDACE4D4EA7D54E4EF5BA2E
:1051C0004F4EA6B7504ED6C0514E5A81524EB9C618
:1051D000534ED2C5544EC7C7554E5B81564ED4B9B7
:1051E000574E5C81584ECBB3594ED2D25A4E5D8148
:1051F0005B4E5E815C4EBFD85D4EC5BE5E4EF2C654
:105200005F4EB2D2604EB0CF614EE7CF624E5F814B
:10521000634E6081644E6181654E6281664EE9CA6B
:10522000674E6381684E6481694EC0D86A4E65815D
:105230006B4E66816C4E67816D4E68816E4E6981E2
:105240006F4E6A81704EF2C2714ED2C2724E6B8145
:10525000734EE9C8744E6C81754E6D81764E6E81C9
:10526000774E6F81784E7081794E71817A4E72815E
:105270007B4E73817C4E74817D4E75817E4EACC7B2
:105280007F4E7681804E7781814E7881824E798102
:10529000834E7A81844E7B81854E7C81864ECBC144
:1052A000874E7D81884EE8D3894EF9D58A4E7E811E
:1052B0008B4EC2CA8C4EFEB68D4EA1D88E4EDAD31E
:1052C0008F4EF7BF904E8081914EC6D4924EA5BBB3
:1052D000934EC1D8944EE5CE954EAEBE964E81818A
:1052E000974E8281984EA8D8994E83819A4EC7D105
:1052F0009B4EA9D09C4E84819D4E85819E4E868179
:105300009F4EBDD8A04EEFD9A14EF6CDA24EBABF4A
:10531000A34E8781A44EBBBDA54EA5BAA64EE0D232
:10532000A74EFAB2A84EE0BAA94EB6C4AA4E8881DA
:10533000AB4EEDCFAC4EA9BEAD4EA4CDAE4EC1C16D
:10534000AF4E8981B04E8A81B14E8B81B24ED7C7A4
:10535000B34EF1D9B44E8C81B54EF4D9B64E8D8191
:10536000B74E8E81B84E8F81B94E9081BA4ECBC860
:10537000BB4EE9D8BC4E9181BD4E9281BE4E938109
:10538000BF4EDAD2C04EB2CAC14ECAC8C24EECD865
:10539000C34EEAD8C44EC6D8C54EF6BDC64ECDC61D
:1053A000C74EF0B3C84E9481C94EEBD8CA4EF1BD7A
:1053B000CB4EE9BDCC4E9581CD4ED4C8CE4ED3B4A4
:1053C000CF4E9681D04E9781D14ED8C2D24E988181
:1053D000D34ED6B2D44ED0D7D54ECBCAD64EFBCBB9
:1053E000D74ECCD5D84EB6B8D94EC9CFDA4E998162
:1053F000DB4E9A81DC4E9B81DD4EDAD9DE4EF0D851
:10540000DF4EAAC7E04E9C81E14EEED8E24E9D8170
:10541000E34EFAB4E44EEEC1E54ED4D2E64E9E81A0
:10542000E74E9F81E84EEDD8E94EA081EA4EC7D203
:10543000EB4EEFD8EC4EC7C3ED4EA181EE4EA281EC
:10544000EF4EA381F04EF6D1F14EA481F24ED9D6A3
:10545000F34EF2D8F44EA581F54EF5D8F64EFEBCCB
:10546000F74EDBBCF84EA681F94EA781FA4EA88113
:10547000FB4ECEC8FC4EA981FD4EDDB7FE4EAA8183
:10548000FF4EC2B7004FAB81014FF3C6024FAC8154
:10549000034FAD81044FAE81054FAF81064FB08100
:1054A000074FB181084FB281094FF8D80A4FC1D2D6
:1054B0000B4FB3810C4FB4810D4FE9CE0E4FBFBCE3
:1054C0000F4FFCB7104FA5B7114FDDD0124FB5816C
:1054D000134FB681144FB781154FB881164FB9815C
:1054E000174FDAD6184FC5D3194FEFBB1A4FE1BB90
:1054F0001B4FF1D81C4FBA811D4FBB811E4FA1C954
:105500001F4FB0CE204FABB4214FBC81224FF3D8F8
:10551000234FBD81244FCBC9254FF6D8264FD7C284
:10552000274FF7D8284FBE81294FBF812A4FB1CED0
:105530002B4FF9D82C4FC0812D4FC1812E4FC281E6
:105540002F4FAEB2304FC0B9314FC381324FA3D9C4
:10555000334FC481344FE9B0354FC581364FE6C172
:10556000374FC681384FECC9394FC7813A4FC5CB49
:105570003B4FC8813C4FC6CB3D4FA4D93E4FC9815C
:105580003F4FCA81404FCB81414FCC81424FCD81AB
:10559000434FE8B5444FCE81454FCF81464FABB521
:1055A000474FD081484FD181494FD2814A4FD38153
:1055B0004B4FD4814C4FD5814D4FBBCE4E4FCDB5C7
:1055C0004F4FA1D7504FF4D7514FD3D3524FD6811D
:1055D000534FE5CC544FD781554FCEBA564FD88153
:1055E000574FA2D9584FDCD9594FE0D35A4FFDD865
:1055F0005B4FF0B75C4FF7D75D4FFED85E4FFAD8E0
:105600005F4FA1D9604FE3C4614FD981624FDA8106
:10561000634FB6D3644FF4D8654FDDD9664FDB8155
:10562000674FFBD8684FDC81694FE5C56A4FDD8164
:105630006B4FDE816C4FD0C06D4FDF816E4FE081CC
:105640006F4FF0D1704FDBB0714FE181724FE2814B
:10565000734FD1BC744FA6D9754FE381764FA5D94E
:10566000774FE481784FE581794FE6817A4FE78182
:105670007B4FACD97C4FAED97D4FE8817E4FABD903
:105680007F4FB9CA804FE981814FEA81824FEB8118
:10569000834FA9D9844FB6D6854FEC81864FED81D3
:1056A000874FEE81884FDEB3894FA8D98A4FEF81AB
:1056B0008B4FFDC08C4FF0818D4FCCCA8E4FF18146
:1056C0008F4FAAD9904FF281914FA7D9924FF38172
:1056D000934FF481944FB0D9954FF581964FF68151
:1056E000974FB1B6984FF781994FF8819A4FF9814A
:1056F0009B4FA9B99C4FFA819D4FC0D29E4FFB8111
:105700009F4FFC81A04FC0CFA14FFD81A24FFE81D2
:10571000A34FC2C2A44F4082A54FC4BDA64FECD533
:10572000A74FE0B2A84FC8C7A94FEBBFAA4FADD94A
:10573000AB4F4182AC4FAFD9AD4F4282AE4FEACEB4
:10574000AF4FEEBAB04F4382B14F4482B24F458261
:10575000B34F4682B44F4782B54FD6C7B64F488243
:10576000B74F4982B84F4A82B94F4B82BA4F4C82E9
:10577000BB4F4D82BC4F4E82BD4F4F82BE4F5082B9
:10578000BF4FE3B1C04F5182C14F5282C24F5382CB
:10579000C34FD9B4C44FEDB6C54FB4D9C64F548228
:1057A000C74F5582C84F5682C94F5782CA4FA1BFB3
:1057B000CB4F5882CC4F5982CD4F5A82CE4FDED933
:1057C000CF4FCEC7D04FFEC0D14FB8D9D24F5B829A
:1057D000D34F5C82D44F5D82D54F5E82D64F5F82BD
:1057E000D74FD7CBD84FFDB7D94F6082DA4FB5D955
:1057F000DB4F6182DC4FB7D9DD4FA3B1DE4FE1D380
:10580000DF4FB9D9E04F6282E14FC5D0E24F6382EA
:10581000E34FB6D9E44F6482E54F6582E64FB1D9D4
:10582000E74F6682E84FB2D9E94FA9C1EA4FB3D931
:10583000EB4F6782EC4F6882ED4FF3BCEE4FDED04A
:10584000EF4FA9B8F04F6982F14FE3BEF24F6A8281
:10585000F34FBDD9F44F6B82F54F6C82F64F6D82DA
:10586000F74F6E82F84FBAD9F94F6F82FA4FB3B043
:10587000FB4F7082FC4F7182FD4F7282FE4FC2D986
:10588000FF4F7382005074820150758202507682FD
:1058900003507782045078820550798206507A82CC
:1058A00007507B8208507C8209507D820A507E829C
:1058B0000B5080820C50C4D90D50B6B10E5081826D
:1058C0000F50BFD910508282115083821250B9B547
:1058D000135084821450F3BE155085821650868270
:1058E000175087821850C8CC1950F2BA1A50D0D22B
:1058F0001B5088821C50C3D91D5089821E508A8239
:105900001F50E8BD20508B822150ABB322508C82B7
:1059100023508D8224508E822550C5D92650EBBE4F
:1059200027508F822850C6D92950BBD92A50DFC4AE
:105930002B5090822C50BED92D50C1D92E50C0D999
:105940002F50918230509282315093823250948203
:1059500033509582345096823550978236509882D3
:105960003750998238509A8239509B823A50AED53E
:105970003B509C823C50B5D63D509D823E50E3C783
:105980003F509E8240509F824150A0824250A1824F
:105990004350C8D94450A2824550A3824650A482A5
:1059A0004750D9BC4850CAD94950A5824A50A6820E
:1059B0004B50A7824C50BCD94D50A8824E50CBD9E9
:1059C0004F50ABC65050A9825150AA825250AB8260
:1059D0005350AC825450AD825550C9D95650AE8206
:1059E0005750AF825850B0825950B1825A50F6D7B2
:1059F0005B50B2825C50A3CD5D50B3825E50B482E6
:105A00005F50B5826050B6826150B7826250B882F2
:105A10006350B9826450BA826550A1BD6650BB82A2
:105A20006750BC826850BD826950BE826A50BF8296
:105A30006B50C0826C50CCD96D50C1826E50C28206
:105A40006F50C3827050C4827150C5827250C6823A
:105A50007350C7827450C8827550C9827650BCC5D5
:105A60007750B5CD7850CA827950CB827A50CC82AB
:105A70007B50CDD97C50CD827D50CE827E50C7D90F
:105A80007F50A5B38050FEBF8150CF828250D0821C
:105A90008350D1828450D2828550B5B88650D3824B
:105AA0008750D4828850FCC08950D5828A50D682D3
:105AB0008B50D7828C50D8828D50F8B08E50D982BE
:105AC0008F50DA829050DB829150DC829250DD82DE
:105AD0009350DE829450DF829550E0829650E182AE
