:020000040800F2
:1000000028070020490100089104000801040008A5
:1000100031040008AD020008130D000800000000C4
:100020000000000000000000000000006906000859
:10003000B10200080000000019050008550700087B
:100040006301000863010008630100086301000800
:1000500063010008630100086301000863010008F0
:1000600063010008630100086301000863010008E0
:1000700063010008630100086301000863010008D0
:1000800063010008630100086301000863010008C0
:1000900063010008630100086301000863010008B0
:1000A00063010008630100086301000863010008A0
:1000B0006301000863010008630100086301000890
:1000C0006301000863010008630100086301000880
:1000D0006301000863010008630100086301000870
:1000E0006301000863010008630100086301000860
:1000F0006301000863010008630100086301000850
:10010000630100086301000863010008630100083F
:100110008109000863010008ED0700086301000879
:10012000630100086301000863010008630100081F
:10013000DFF810D000F05EF80048004721120008F8
:10014000AFF3008028070020064880470648004794
:10015000FEE7FEE7FEE7FEE7FEE7FEE7FEE7FEE777
:10016000FEE7FEE75907000831010008D2B201E0BE
:1001700000F8012B491EFBD270470022F6E710B5AC
:1001800013460A4604461946FFF7F0FF204610BD05
:100190002DE9F05F0546002092469B4688460646BC
:1001A000814640241BE0284641464746224600F04F
:1001B00042F853465A46C01A914110D31146184688
:1001C000224600F029F82D1A67EB01084F46224617
:1001D0000120002100F020F817EB00094E41201EFD
:1001E000A4F10104DFDC484631462A464346BDE817
:1001F000F09F0000064C074D06E0E06840F0010368
:1002000094E8070098471034AC42F6D3FFF794FF08
:1002100088120008A8120008202A04DB203A00FAFD
:1002200002F1002070479140C2F1200320FA03F34D
:10023000194390407047202A04DB203A21FA02F04B
:100240000021704721FA02F3D040C2F12002914010
:1002500008431946704770B58C1810F8015B15F00B
:10026000070301D110F8013B2A1106D110F8012B28
:1002700003E010F8016B01F8016B5B1EF9D12B074D
:1002800005D40023521E0DD401F8013BFAE710F803
:10029000013BCB1A921C03E013F8015B01F8015BF0
:1002A000521EF9D5A142D8D3002070BD00BFFEE791
:1002B00070472DE9F041024600250026002000236A
:1002C0000024002791F803C00CF00F0591F803C03B
:1002D0000CF0100CBCF1000F03D091F802C04CEAF6
:1002E000050591F800C0BCF1000F31D01468002062
:1002F0002BE04FF0010C0CFA00F3B1F800C00CEA4F
:1003000003069E4220D183004FF00F0C0CFA03F736
:10031000BC4305FA03FC4CEA040491F803C0BCF1A9
:10032000280F06D14FF0010C0CFA00FCC2F814C0E3
:100330000AE091F803C0BCF1480F05D14FF0010C61
:100340000CFA00FCC2F810C0401C0828D1D314607D
:10035000B1F800C0BCF1FF0F34DD546800202EE07E
:1003600000F1080C4FF0010808FA0CF3B1F800C0D6
:100370000CEA03069E4221D183004FF00F0C0CFAC9
:1003800003F7BC4305FA03FC4CEA040491F803C0EC
:10039000BCF1280F05D100F1080C08FA0CF8C2F8DE
:1003A000148091F803C0BCF1480F07D100F1080C8C
:1003B0004FF0010808FA0CF8C2F81080401C082819
:1003C000CED35460BDE8F08170B502460C46FF25DF
:1003D000FF2309E012F8010B80EA03010648405CA4
:1003E00080EA05030548455C201EA4F10106B4B26D
:1003F000F0D143EA052070BD140000201401002054
:1004000000BFFEE710B54FF4A06000F07BF8482075
:1004100000F0D2F94FF4E13000F0E2FA4FF4165058
:1004200000F024FB40F2CF21632000F079FA10BDE8
:1004300000BFFEE72DE9FC4106460C4615460020AC
:10044000009001908DF8006003208DF801002012CB
:100450008DF80200E0B28DF8030028128DF8040038
:10046000E8B28DF8050006216846FFF7ADFF0746A4
:10047000F8B28DF8060038128DF807000822694698
:10048000024800F0D5F8BDE8FC810000004C0040B7
:100490007047000070B5002100230F22C47804B318
:1004A000154C246804F4E064C4F5E064210AC1F149
:1004B0000403CA40447804FA03F1847814402143C9
:1004C00009010E4C0678A155047804F01F0501249B
:1004D000AC4005786D11AD0005F1E025C5F800418F
:1004E00009E0047804F01F050124AC40044D0678AF
:1004F000761145F8264070BD0CED00E000E400E008
:1005000080E100E002490143024A116070470000A7
:100510000000FA050CED00E07047000029B1064A22
:10052000D2690243044BDA6104E0034AD269824390
:10053000014BDA61704700000010024029B1064A01
:1005400092690243044B9A6104E0034A9269824330
:10055000014B9A61704700000010024030B5002145
:100560000022002400232D4D6D6805F00C0121B1FF
:10057000042905D0082923D105E0294D056022E092
:10058000274D05601FE0254D6D6805F47012234D61
:100590006D6805F48034022505EB92421CB9214DAB
:1005A000554305600BE01D4D6D6805F400351DB128
:1005B0001C4D5543056002E0194D5543056002E0AE
:1005C000174D056000BF00BF144D6D6805F0F001C8
:1005D0000909154D6B5C0568DD4045600F4D6D6880
:1005E00005F4E061090A104D6B5C4568DD408560EB
:1005F0000A4D6D6805F46051C90A0B4D6B5C456886
:10060000DD40C560054D6D6805F44041890B074D1F
:100610006B5CC568B5FBF3F5056130BD00100240A9
:1006200000127A0000093D000000002010000020A8
:100630002DE9F04107460D461646002410E0295DDD
:10064000384600F062FB00BF4021384600F090FAC7
:100650000128F9D14021384600F066FA601C84B2C6
:10066000B442ECDBBDE8F081704710B500F002F851
:1006700010BD00000CB500200190009033480068C8
:1006800040F480303149086000BF3048006800F411
:10069000003000900198401C0190009818B9019812
:1006A000B0F5A06FF1D12948006800F4003010B116
:1006B0000120009001E0002000900098012843D123
:1006C0002348006840F0100021490860084600688F
:1006D00020F0030008600846006840F0020008604F
:1006E0001A4840681949486008464068486008460A
:1006F000406840F4806048600846406820F47C1000
:1007000048600846406840F4E810486008460068C1
:1007100040F08070086000BF0C48006800F0007076
:100720000028F9D00948406820F0030007494860D4
:100730000846406840F00200486000BF0348406837
:1007400000F00C000828F9D10CBD00000010024098
:10075000002002407047000010B51348006840F0C8
:1007600001001149086008464068104908400E49D8
:100770004860084600680E4908400B490860084672
:10078000006820F4802008600846406820F4FE00DD
:1007900048604FF41F008860FFF767FF4FF000606C
:1007A0000449086010BD0000001002400000FFF87E
:1007B000FFFFF6FE08ED00E04FF0E021096921F0AF
:1007C00004014FF0E0221161C21700EB5272D21007
:1007D000044B1A60194609684FF47A725143024A71
:1007E00011607047180200201402002010B501218A
:1007F0000D4800F030F8012815D101210A4800F019
:100800001BF80A48007870B109480078401C084974
:10081000087008460078052805DB012003490870A8
:1008200000200449087010BD001000401F02002085
:100830001E02002020020020CA430282704721B11C
:10084000028842F00102028004E002884FF6FE7343
:100850001A400280704702460020138A0B400BB1F9
:10086000012000E0002070471AB183890B43838187
:1008700002E083898B438381704700000022028855
:100880001D4B98420ED01D4B98420BD0B0F1804FBB
:1008900008D01B4B984205D01A4B984202D01A4BF5
:1008A000984204D14FF68F731A404B881A43174B66
:1008B000984207D0164B984204D04FF6FF431A4097
:1008C000CB881A4302808B8883850B8803850A4B6B
:1008D00098420BD0094B984208D00E4B984205D055
:1008E0000D4B984202D00D4B984201D10B7A0386F2
:1008F0000123838270470000002C01400034014036
:100900000004004000080040000C004000100040BF
:1009100000140040004001400044014000480140F4
:100920007FB505460C4601211020FFF7F7FD00209A
:10093000ADF80600ADF80200ADF80450ADF8004087
:100940008DF8080069460D48FFF798FF012211460F
:100950000A48FFF789FF36208DF80C0001208DF83A
:100960000F008DF80D008DF80E0003A8FFF792FD23
:1009700001210248FFF763FF7FBD00000010004027
:1009800010B540F22551114800F0FFF801281CD1A4
:1009900020210E4800F0D1F800200D4908700120F8
:1009A0000C4908700C480088FF2802DD00200A4925
:1009B0000880064800F0A4F9C1B207480288008800
:1009C000401C054B18800548815410BD004C004068
:1009D0001E0200201F0200201C020020280200200E
:1009E00010B586B00446012144F20500FFF7A6FDCC
:1009F00018208DF817004FF40070ADF81400032094
:100A00008DF8160005A91748FFF753FC48208DF80C
:100A100017004FF48060ADF8140003208DF8160025
:100A200005A91048FFF745FC01940020ADF810001F
:100A30000C20ADF80E000020ADF80C00ADF80A0057
:100A4000ADF8080001A9084800F0EEF8012240F2D4
:100A50002551054800F0C3F80121034800F07CF857
:100A600006B010BD000801400038014010B586B046
:100A7000044601211120FFF761FD0121C804FFF7A1
:100A80004DFD18208DF817004FF48060ADF814006C
:100A900003208DF8160005A92148FFF70AFC042061
:100AA0008DF817004002ADF8140003208DF81600F1
:100AB00005A91B48FFF7FDFB01940020ADF81000CD
:100AC0000C20ADF80E004FF48060ADF80C00002053
:100AD000ADF80A004FF48050ADF8080001A91148A4
:100AE00000F0A2F8012240F225510E4800F077F8FC
:100AF00034208DF8000001208DF803008DF80100EE
:100B000000208DF802006846FFF7C4FC602105480C
:100B100000F00AF80121034800F01EF806B010BDED
:100B200000100140004C004001F40072B2F5007F5B
:100B300000D100BFCA430280704710B500220023D5
:100B400040F66A14A14200D100BF0A120124944069
:100B5000A3B2DC43048010BD21B1828942F400526B
:100B6000828104E082894DF6FF731A4082817047CA
:100B700002460020B1F5007F00D100BF13880B4072
:100B80000BB1012000E00020704770B50246002440
:100B900000230025002040F66A16B14200D100BFB4
:100BA000C1F3421501F01F03012606FA03F3012DDC
:100BB00002D19689334006E0022D02D1168A3340D5
:100BC00001E0968A33400C12012606FA04F41688D6
:100BD000344013B10CB1012000E0002070BDF0B52D
:100BE0000346002400260025002040F66A17B9427B
:100BF00000D100BF1846C1F3421401F01F060127BF
:100C000007FA06F5012C01D10C3004E0022C01D1C9
:100C1000103000E014301AB107682F43076002E07B
:100C20000768AF430760F0BD2DE9F04786B0054681
:100C30000E460024A24600BFA1460027B08900B19D
:100C400000BF2F462C8A4CF6FF700440F088044306
:100C50002C82AC894EF6F3100440B08831890843E9
:100C6000718908430443AC81AC8A4FF6FF400440CD
:100C7000B0890443AC8201A8FFF770FC1F4887428B
:100C800002D1DDF810A001E0DDF80CA0A88900F485
:100C9000004040B10AEBCA0000EB0A10316849007D
:100CA000B0FBF1F807E00AEBCA0000EB0A1031686C
:100CB0008900B0FBF1F86420B8FBF0F004012009D2
:100CC000642101FB1089A88900F4004040B1322062
:100CD00000EBC900B0FBF1F000F00700044308E0AE
:100CE000322000EB09106421B0FBF1F000F00F009E
:100CF00004432C8106B0BDE8F087000000380140B5
:100D000001468888C0F308007047C1F3080282805A
:100D1000704700BFFEE700000FB4054B10B503A9F4
:100D2000044A029800F018F810BC5DF814FB0000AB
:100D3000FD1100082402002002E008C8121F08C1AB
:100D4000002AFAD170477047002001E001C1121F4C
:100D5000002AFBD1704700002DE9FF4F8DB00F46F0
:100D60000546002606E025280BD0DDE90F12904746
:100D70006D1C761C28780028F5D111B03046BDE8EE
:100D8000F08F0024A246A1460122E94900E0044375
:100D900015F8013F203B02FA03F00842F7D128780A
:100DA0002A2810D06FF02F022878A0F130010929ED
:100DB00014D80AEB8A0102EB410144F0020400EB73
:100DC000010A6D1CF0E701CF5FEA000A03D544F485
:100DD0000054CAF1000A44F002046D1C28782E2841
:100DE00017D115F8010F44F004042A280ED06FF033
:100DF0002F022878A0F1300109290AD809EB8901CE
:100E000002EB410100EB01096D1CF2E757F8049B6E
:100E10006D1C28786C280FD006DC4C2817D0682869
:100E20000DD06A2814D104E0742810D07A280FD18C
:100E30000DE044F400140AE044F4801401E044F4AA
:100E400040146978814202D104F580146D1C6D1C38
:100E500028786E281ED00CDC632830D004DC0028F3
:100E60008BD0582811D19FE0642867D069280CD115
:100E700064E073282DD004DC6F2872D0702804D170
:100E800094E075286ED078286DD0DDE90F12904778
:100E9000761C4BE1C4F30250022806D0032809D087
:100EA000042801CF09D0066040E101CFF117C0E965
:100EB00000613BE101CF068038E1067036E117F8AA
:100EC000040B8DF8000000208DF80100EB46012096
:100ED00003E057F804BB4FF0FF3061074FF000010B
:100EE00002D40DE008F10101884649450FDA80453A
:100EF000F8DB1BF808100029F4D108E008F1010123
:100F000088468142FADB1BF808100029F6D1DDE99A
:100F10000F23AAEB08008146214600F031F9304446
:100F200000EB080604E0DDE90F121BF8010B904707
:100F3000B8F10108F7D221464846F2E00A21C4F38D
:100F400002524FF0000B0891022A04D001CFC117C2
:100F5000032A09D00AE0FF1D27F00707F7E802017E
:100F600008E02CE01EE01FE000B2C117042A01D106
:100F700040B2C117021E71F1000206DA0023D0EB65
:100F8000030063EB01012D2202E0220504D52B2290
:100F90008DF82420012203E0E20701D02022F7E7A8
:100FA000904653E00A210BE0102109E010214FF098
:100FB000000B44F004044FF00809089103E00821F5
:100FC0004FF0000B0891C4F30252022A04D001CF63
:100FD0000021032A06D006E0FF1D27F00707F7E8E7
:100FE000020103E080B2042A00D1C0B24FF0000831
:100FF00022072BD52A78702A07D0DDF820C08CF084
:10100000100C5CEA0B0C05D00EE040228DF8242079
:10101000012208E050EA010306D030238DF8243085
:101020008DF8252002229046089B83F0080353EA9E
:101030000B030BD150EA010201D1620706D5302221
:101040008DF824204FF00108A9F101092A78582AC7
:1010500004D038A20B9208AA0A920BE03AA2F9E750
:101060005B46089AFFF794F80B9B9B5C0A9A521E0A
:101070000A92137050EA0102F2D10A98ADEB000017
:1010800000F1200B600702D524F4803401E04FF01A
:101090000109D94502DDA9EB0B0000E0002000EBBF
:1010A0000B0141440890AAEB010AE00306D4DDE9F4
:1010B0000F232146504600F063F806444FF0000924
:1010C00008E009A911F80900DDE90F12904709F1BC
:1010D0000109761CC145F4DBE0030CD5DDE90F23E3
:1010E0002146504600F04CF8064404E0DDE90F12BA
:1010F00030209047761C0899481E08900029F5DC9E
:1011000008E00A980A990078491C0A91DDE90F1253
:101110009047761CBBF10001ABF1010BF1DC2146DD
:101120005046DDE90F2300F019F806446D1C21E656
:1011300009280100303132333435363738396162AD
:101140006364656600000000303132333435363771
:101150003839414243444546000000002DE9F04142
:10116000044600251E461746880404D405E0394687
:101170002020B0476D1C641EF9D52846BDE8F081DB
:101180002DE9F041044600251E469046C80301D5CE
:10119000302700E02027880404D505E04146384682
:1011A000B0476D1C641EF9D52846BDE8F0810000EB
:1011B0000146114A12684A434FF0E0235A61002267
:1011C0009A611A46126942F001021A6100BF4FF09B
:1011D000E022106900F001021AB100F48032002A06
:1011E000F5D04FF0E022126922F001024FF0E02327
:1011F0001A6100229A6170471402002070B50446FB
:101200000D46A1B20548FFF780FD00BF402103480D
:10121000FFF7AEFC0128F9D1204670BD003801402F
:10122000FFF7F0F823E0022200210120FFF702F986
:101230004FF49670FFF7BCFF0D480078B8B100245A
:1012400006E00C48015D0CA0FFF766FD601C84B24F
:101250000B4800888442F4DB4FF480710548FEF7A8
:101260008CFF00200649088006A0FFF755FDDAE74D
:1012700020020020280200202530325820000000E3
:101280001C0200200D0A0000A81200080000002027
:101290002802000056020008E0130008280200207F
:1012A00000050000480D0008412D01020304041050
:1012B0000906070809020406082808C1814001C080
:1012C000804104690C2908E918A91C091A3009167B
:1012D00038093660092E70092F6000FF00C0C10177
:1012E000C30302C2C60607C705C5C404CC0C0DCD96
:1012F0000FCFCE0E0ACACB0BC90908C8D81819D906
:101300001BDBDA1A1EDEDF1FDD1D1CDC14D4D51535
:10131000D71716D6D21213D311D1D010F03031F125
:1013200033F3F23236F6F737F53534F43CFCFD3D55
:10133000FF3F3EFEFA3A3BFB39F9F83828E8E92945
:10134000EB2B2AEAEE2E2FEF2DEDEC2CE42425E5F5
:1013500027E7E62622E2E323E12120E0A06061A165
:1013600063A3A26266A6A767A56564A46CACAD6D15
:10137000AF6F6EAEAA6A6BAB69A9A86878B8B97985
:10138000BB7B7ABABE7E7FBF7DBDBC7CB47475B5B5
:1013900077B7B67672B2B373B17170B050909151A5
:1013A0009353529296565797559594549C5C5D9DD5
:1013B0005F9F9E5E5A9A9B5B9959589888484989C5
:1013C0004B8B8A4A4E8E8F4F8D4D4C8C4484854575
:1013D0008747468682424383418180021440000051
:0400000508000131BD
:00000001FF
