:020000040800F2
:1000000000040020A1010008F9010008F101000826
:10001000F5010008E9010008DD0200080000000009
:1000200000000000000000000000000001020008C5
:10003000ED01000800000000FD01000805020008B5
:10004000BB010008BB010008BB010008BB010008A0
:10005000BB010008BB010008BB010008BB01000890
:10006000BB010008BB010008BB010008BB01000880
:10007000BB010008BB010008BB010008BB01000870
:10008000BB010008BB010008BB010008BB01000860
:10009000BB010008BB010008BB010008BB01000850
:1000A000BB010008BB010008BB010008BB01000840
:1000B000BB010008BB010008BB010008BB01000830
:1000C000BB010008BB010008BB010008BB01000820
:1000D000BB010008BB010008BB010008BB01000810
:1000E000BB010008BB010008BB010008BB01000800
:1000F000BB010008BB010008BB010008BB010008F0
:10010000BB010008BB010008BB010008BB010008DF
:10011000BB010008BB010008BB010008BB010008CF
:10012000BB010008BB010008BB010008BB010008BF
:10013000BB010008BB010008BB010008BB010008AF
:10014000BB010008BB010008BB010008BB0100089F
:10015000BB010008BB010008BB010008BB0100088F
:10016000BB010008BB010008BB010008BB0100087F
:10017000BB010008BB010008BB0100080000000033
:10018000BB010008BB010008DFF810D000F01AF82E
:1001900000480047FF020008AFF300800004002081
:1001A0000648804706480047FEE7FEE7FEE7FEE711
:1001B000FEE7FEE7FEE7FEE7FEE7FEE709020008CE
:1001C00089010008064C074D06E0E06840F0010395
:1001D00094E8070098471034AC42F6D3FFF7D8FFF5
:1001E000140400082404000800BFFEE700BFFEE777
:1001F00000BFFEE700BFFEE700BFFEE700BFFEE76F
:1002000000BFFEE77047000008B53048006840F4C2
:1002100070002E4908602E48006840F001002C490B
:10022000086000BF2A48006800F002000028F9D0EA
:1002300000BF27480830006840F08000244908319A
:1002400008600020009002E00098401C0090009898
:100250005028F9D31E480830006840F090001C492F
:10026000083108600020009002E00098401C0090D7
:1002700000985028F9D300BF15480830006820F0D6
:10028000030013490831086011480068114908400B
:100290000F4908600846006820F4802008600020AC
:1002A0000B490831086000BF094808300068002089
:1002B0000028F9D108480649091D086000200449B2
:1002C0000C31086000F0A2F808BD000088ED00E0E5
:1002D00000380240FFFFF6FE1030002400BFFEE7AA
:1002E00002E008C8121F08C1002AFAD170477047FF
:1002F000002001E001C1121F002AFBD1704700BF9E
:10030000FEE70000002000213D4A126842F48032DE
:100310003B4B1A6000BF401C394A126802F400319E
:1003200019B94FF6FF729042F5D1354A126802F4BE
:10033000003232B900BF324A126802F40032002A99
:10034000F9D02F4A4032126842F080522C4B403391
:100350001A602C4A126842F440422A4B1A60284A1A
:1003600008321268264B08331A601A46126842F4A3
:1003700000421A601A46126842F4A0521A60224AD9
:100380001B1F1A601A1F126842F080721B1F1A602E
:1003900000BF1B4A126802F00072002AF9D0194A05
:1003A000126842F48032174B1A6000BF154A526837
:1003B00002F48032002AF9D0124A126842F4003264
:1003C000104B1A6000BF0F4A526802F40032002A34
:1003D000F9D00B4A0832126822F00302084B0833A6
:1003E0001A601A46126842F002021A6000BF044AFC
:1003F0000832126802F00802002AF8D070470000A4
:1004000000380240007000401978400A10B5FFF72C
:1004100079FF10BD24040008000000200004000043
:04042000F0020008DE
:040000050800018965
:00000001FF
