:020000040800F2
:10000000280400204901000881070008470600086D
:100010007D070008AB030008E310000800000000A3
:100020000000000000000000000000003909000886
:10003000AF0300080000000009080008490B000891
:100040006301000863010008630100086301000800
:100050006301000863010008B1030008D903000828
:10006000630100086301000801040008630100083F
:1000700063010008630100086301000863010008D0
:1000800063010008630100086301000863010008C0
:1000900063010008630100086301000863010008B0
:1000A00063010008630100086301000863010008A0
:1000B0006301000863010008630100086301000890
:1000C0006301000863010008630100086301000880
:1000D00063010008A10E0008630100086301000825
:1000E0006301000863010008630100086301000860
:1000F0006301000863010008630100086301000850
:10010000630100086301000863010008630100083F
:100110006301000863010008E10B000863010008A7
:10012000630100086301000863010008630100081F
:10013000DFF810D000F01AF800480047A9110008B5
:10014000AFF3008028040020064880470648004797
:10015000FEE7FEE7FEE7FEE7FEE7FEE7FEE7FEE777
:10016000FEE7FEE74D0B000831010008064C074D85
:1001700006E0E06840F0010394E807009847103477
:10018000AC42F6D3FFF7D8FF101300083013000875
:1001900000B587B0012140F2052000F053FB4FF479
:1001A000004000F033FB00208DF807000420ADF87C
:1001B000040001A91C4800F0BBF901208DF80D00D6
:1001C000002005904FF46020049000200290012050
:1001D0008DF8180000208DF80C0002A9134800F0DB
:1001E0004BF8072301220221104800F06DF801218D
:1001F0000E4800F01DF80D4800F0C2F800BF0B4893
:1002000000F02FF80128FAD0084800F0C9F803E000
:100210000121064800F0B9F8044800F014F801285C
:10022000F6D007B000BD00000008014000240140E6
:1002300021B1826842F00102826003E0826822F00C
:10024000010282607047014600208A6802F00402C1
:100250000AB1012000E0002070470146C86C80B25E
:100260007047014600208A6802F008020AB10120A6
:1002700000E000207047000030B502460020002357
:1002800050680F4C20400D790C6844EA0524204347
:10029000506090680B4C2040D1E902542C434D79BA
:1002A00044EA450420439060D06A20F470000C7C3E
:1002B000641EE4B2234340EA0350D06230BD000024
:1002C000FFFEF0FFFDF7F1FFF0B504460D460020FC
:1002D0000021092D11DDE068A5F10A0606EB4607AD
:1002E000072606FA07F18843A5F10A0606EB46063B
:1002F00003FA06F10843E0600CE0206905EB4507CE
:10030000072606FA07F1884305EB450603FA06F1CE
:1003100008432061072A0FDA606B561E06EB86073A
:100320001F2606FA07F18843561E06EB860605FAD5
:1003300006F10843606322E00D2A0FDA206BD61F16
:1003400006EB86071F2606FA07F18843D61F06EB41
:10035000860605FA06F10843206310E0E06AA2F180
:100360000D0606EB86071F2606FA07F18843A2F161
:100370000D0606EB860605FA06F10843E062F0BDBD
:10038000816841F008018160704721B1826842F4C0
:10039000A002826003E0826822F4A00282607047BB
:1003A000816841F004018160704700BFFEE770473B
:1003B00010B5012000F03EF8012809D100F034F812
:1003C0000021044800F017FD0121024800F07DFCE7
:1003D00010BD00000010004010B5022000F02AF807
:1003E00001280AD1022000F01FF80021034800F084
:1003F00002FD0121014800F068FC10BD0010004022
:1004000010B5102000F016F801280AD1102000F0D5
:100410000BF80021034800F0EEFC0121014800F038
:1004200054FC10BD001000400149086070470000F6
:1004300014040140014600200022074B1B6803EA18
:100440000102054B14331B680B4013B10AB10120A4
:1004500000E0002070470000000401400021234913
:100460008279002A3AD00A46126803689A430B46FA
:100470001A600A1D126803689A430B1D1A600279FC
:1004800011440A6803681A430A60184A083212685D
:1004900003689A43154B08331A601A1D12680368E3
:1004A0009A43124B0C331A604279102A0ED11A1F4C
:1004B000126803681A430D4B08331A601A1D12683C
:1004C00003681A43094B0C331A600DE0074942795F
:1004D00011440A6803681A430A6005E0027911446E
:1004E0000A6803689A430A607047000000040140EC
:1004F00030B500228B071C0F0F2303FA04F20B4BBD
:100500008C1053F824309343084C8D1044F8253058
:1005100023468C1053F824308C07240F00FA04F47F
:100520002343024C8D1044F8253030BD08000140B3
:100530002DE9F0410246002500260020002300247A
:10054000002791F803C00CF00F0591F803C00CF0E0
:10055000100CBCF1000F03D091F802C04CEA050565
:1005600091F800C0BCF1000F31D0146800202BE0DE
:100570004FF0010C0CFA00F3B1F800C00CEA0306CE
:100580009E4220D183004FF00F0C0CFA03F7BC43BE
:1005900005FA03FC4CEA040491F803C0BCF1280FEF
:1005A00006D14FF0010C0CFA00FCC2F814C00AE0AE
:1005B00091F803C0BCF1480F05D14FF0010C0CFAC3
:1005C00000FCC2F810C0401C0828D1D31460B1F858
:1005D00000C0BCF1FF0F34DD546800202EE000F1B4
:1005E000080C4FF0010808FA0CF3B1F800C00CEA4F
:1005F00003069E4221D183004FF00F0C0CFA03F743
:10060000BC4305FA03FC4CEA040491F803C0BCF1B6
:10061000280F05D100F1080C08FA0CF8C2F8148074
:1006200091F803C0BCF1480F07D100F1080C4FF05E
:10063000010808FA0CF8C2F81080401C0828CED334
:100640005460BDE8F08100BFFEE710B54FF4A06034
:1006500000F0D0F8482000F0A9FA4FF4E13000F0A3
:1006600039FC00F00DF841F61F41632000F0EAFA72
:1006700040F26711632000F0FBFDFFF789FD10BD1C
:100680001FB50121052000F0DDF800210846FFF725
:100690002FFF01210020FFF72BFF04210020FFF78F
:1006A00027FF28208DF80F000120ADF80C00032053
:1006B0008DF80E0003A93048FFF73AFF48208DF867
:1006C0000F001220ADF80C0003208DF80E0003A9D6
:1006D0002948FFF72DFF012001908DF80A00002026
:1006E0008DF8080008208DF8090001A8FFF7B6FE74
:1006F0000220019001208DF80A0000208DF80800EA
:100700000C208DF8090001A8FFF7A8FE1020019029
:1007100001208DF80A0000208DF808000C208DF8CB
:10072000090001A8FFF79AFE06208DF800000120BD
:100730008DF803008DF801008DF80200684600F086
:1007400021F807208DF8000001208DF803008DF8B6
:1007500001008DF80200684600F014F80A208DF8B8
:10076000000001208DF803008DF801008DF80200D3
:10077000684600F007F81FBD0008014000BFFEE713
:100780007047000070B5002100230F22C47804B325
:10079000154C246804F4E064C4F5E064210AC1F156
:1007A0000403CA40447804FA03F1847814402143D6
:1007B00009010E4C0678A155047804F01F050124A8
:1007C000AC4005786D11AD0005F1E025C5F800419C
:1007D00009E0047804F01F050124AC40044D0678BC
:1007E000761145F8264070BD0CED00E000E400E015
:1007F00080E100E002490143024A116070470000B5
:100800000000FA050CED00E07047000001460020F2
:10081000034A506820F4404008435060704700008D
:100820000010024029B1064AD2690243044BDA6142
:1008300004E0034AD2698243014BDA617047000049
:100840000010024029B1064A92690243044B9A61A2
:1008500004E0034A92698243014B9A6170470000A9
:100860000010024030B500210022002400232D4D4D
:100870006D6805F00C0121B1042905D0082923D1A8
:1008800005E0294D056022E0274D05601FE0254D5C
:100890006D6805F47012234D6D6805F480340225EF
:1008A00005EB92421CB9214D554305600BE01D4DEF
:1008B0006D6805F400351DB11C4D5543056002E01F
:1008C000194D5543056002E0174D056000BF00BF9C
:1008D000144D6D6805F0F0010909154D6B5C056854
:1008E000DD4045600F4D6D6805F4E061090A104D6B
:1008F0006B5C4568DD4085600A4D6D6805F46051AC
:10090000C90A0B4D6B5C4568DD40C560054D6D68DF
:1009100005F44041890B074D6B5CC568B5FBF3F5E9
:10092000056130BD0010024000127A0000093D0050
:100930000000002010000020704710B500F002F801
:1009400010BD00000CB500200190009033480068F5
:1009500040F480303149086000BF3048006800F43E
:10096000003000900198401C0190009818B901983F
:10097000B0F5A06FF1D12948006800F4003010B143
:100980000120009001E0002000900098012843D150
:100990002348006840F010002149086008460068BC
:1009A00020F0030008600846006840F0020008607C
:1009B0001A48406819494860084640684860084637
:1009C000406840F4806048600846406820F47C102D
:1009D00048600846406840F4E810486008460068EF
:1009E00040F08070086000BF0C48006800F00070A4
:1009F0000028F9D00948406820F003000749486002
:100A00000846406840F00200486000BF0348406864
:100A100000F00C000828F9D10CBD000000100240C5
:100A20000020024010B500243F480078052877D206
:100A3000DFE800F003112E395C003C48006848B143
:100A40000120394908700021394800F0D4F900200C
:100A50003849087064E03748007803280DDB3348D4
:100A6000006850B10220304908700021304800F081
:100A7000C2F900203049087009E02E4800780328A8
:100A800005DB2A48006810B900202749087047E0B4
:100A90002648006830B928480078284908700320A3
:100AA000214908703CE025480078642804DB0224D2
:100AB00000201D49087018E021480078042806D15C
:100AC00003240020184908701D4908700DE01648DD
:100AD00000781B490870042013490870002114484D
:100AE00000F089F900201749087019E015480078CE
:100AF000322804DB012400200B4908700FE00B486A
:100B0000006860B10120084908700021084800F021
:100B100072F900200749087004200949087000BFD5
:100B200000BF204610BD0000190000200001214236
:100B30000010004015000020160000201A000020C0
:100B40001B000020170000207047000010B513485C
:100B5000006840F0010011490860084640681049EB
:100B600008400E494860084600680E4908400B4995
:100B700008600846006820F4802008600846406845
:100B800020F4FE0048604FF41F008860FFF7D5FE98
:100B90004FF000600449086010BD000000100240E2
:100BA0000000FFF8FFFFF6FE08ED00E04FF0E02147
:100BB000096921F004014FF0E0221161C21700EB36
:100BC0005272D210044B1A60194609684FF47A72B7
:100BD0005143024A11607047200000201C00002091
:100BE00010B50121134800F08BF8012821D11248DB
:100BF0000078401CC0B210490870FF2801DBFF20BC
:100C000008700E480078401CC0B20C490870FF28DC
:100C100001DBFF2008700A480078401CC0B2084978
:100C20000870FF2801DBFF2008700121014800F057
:100C300049F810BD001000401500002016000020EB
:100C4000170000207FB505460C4601211020FFF754
:100C5000E9FD0020ADF80A00ADF80600ADF8085037
:100C6000ADF804408DF80C0001A90F4800F0C6F85B
:100C700001210D4800F026F8012211460A4800F033
:100C800050F836208DF8000001208DF803008DF813
:100C900001008DF802006846FFF774FD012102484B
:100CA00000F013F87FBD00000010004021B1028861
:100CB00042F08002028004E002884FF67F731A40FF
:100CC00002807047CA430282704721B1028842F015
:100CD0000102028004E002884FF6FE731A4002808F
:100CE000704731B1B0F8442042F40042A0F84420EB
:100CF00005E0B0F84420C2F30E02A0F8442070478B
:100D000030B50246002000230024158A05EA0103BD
:100D1000958905EA010413B10CB1012000E000201F
:100D200030BD1AB183890B43838102E083898B43F1
:100D30008381704770B5002400220023058C4FF694
:100D4000FE7635400584028C8388048B4FF68F75C0
:100D50002C40B51E2C400D882C43751E2A400D8951
:100D60002A434D882A43144DA8420BD0134DA84264
:100D700008D0134DA84205D0124DA84202D0124D02
:100D8000A84213D14FF6F7752A404D892A434FF6F2
:100D9000FB752A408D882A434FF6FF652B404FF69E
:100DA000FF552B408D892B43CD892B4383800483B2
:100DB000CD888586028470BD002C0140003401403E
:100DC0000040014000440140004801400A46002123
:100DD000018B4FF6F77319401143018370470021CF
:100DE000018041808180C180018141818181C181F7
:100DF0007047818670478184704700000022028816
:100E00001D4B98420ED01D4B98420BD0B0F1804F35
:100E100008D01B4B984205D01A4B984202D01A4B6F
:100E2000984204D14FF68F731A404B881A43174BE0
:100E3000984207D0164B984204D04FF6FF431A4011
:100E4000CB881A4302808B8883850B8803850A4BE5
:100E500098420BD0094B984208D00E4B984205D0CF
:100E60000D4B984202D00D4B984201D10B7A03866C
:100E70000123838270470000002C014000340140B0
:100E80000004004000080040000C0040001000403A
:100E9000001400400040014000440140004801406F
:100EA00010B540F225510A4800F07CF801280DD118
:100EB00040F22551064800F04DF8054800F008F9C9
:100EC00004462146024800F008F900BF10BD0000AA
:100ED0000038014010B586B00446012144F20500F7
:100EE000FFF7B0FC18208DF817004FF40070ADF834
:100EF000140003208DF8160005A91448FFF718FB0D
:100F000048208DF817004FF48060ADF814000320DE
:100F10008DF8160005A90D48FFF70AFB0194002083
:100F2000ADF810000C20ADF80E000020ADF80C005C
:100F3000ADF80A00ADF8080001A9054800F05CF81A
:100F40000121034800F015F806B010BD000801406B
:100F50000038014010B50022002340F66A14A14277
:100F600000D100BF0A1201249440A3B2DC430480E4
:100F700010BD21B1828942F40052828104E082894D
:100F80004DF6FF731A408281704702460020B1F58A
:100F9000007F00D100BF13880B400BB1012000E09F
:100FA0000020704770B50246002400230025002071
:100FB00040F66A16B14200D100BFC1F3421501F0FC
:100FC0001F03012606FA03F3012D02D1968933404F
:100FD00006E0022D02D1168A334001E0968A3340A2
:100FE0000C12012606FA04F41688344013B10CB131
:100FF000012000E0002070BD2DE9F04786B00546D5
:101000000E460024A24600BFA1460027B08900B1C9
:1010100000BF2F462C8A4CF6FF700440F088044332
:101020002C82AC894EF6F3100440B0883189084315
:10103000718908430443AC81AC8A4FF6FF400440F9
:10104000B0890443AC8201A8FFF70CFC1F4887421B
:1010500002D1DDF810A001E0DDF80CA0A88900F4B1
:10106000004040B10AEBCA0000EB0A1031684900A9
:10107000B0FBF1F807E00AEBCA0000EB0A10316898
:101080008900B0FBF1F86420B8FBF0F004012009FE
:10109000642101FB1089A88900F4004040B132208E
:1010A00000EBC900B0FBF1F000F00700044308E0DA
:1010B000322000EB09106421B0FBF1F000F00F00CA
:1010C00004432C8106B0BDE8F087000000380140E1
:1010D00001468888C0F308007047C1F30802828087
:1010E000704700BFFEE70000014A024900F013B854
:1010F000851100082400002002E008C8121F08C162
:10110000002AFAD170477047002001E001C1121F88
:10111000002AFBD170472DE9F04116460F460446E0
:10112000002503E03946B047641C6D1C2078002878
:10113000F8D12846BDE8F0810146114A12684A43B9
:101140004FF0E0235A6100229A611A46126942F078
:1011500001021A6100BF4FF0E022106900F00102A5
:101160001AB100F48032002AF5D04FF0E022126963
:1011700022F001024FF0E0231A6100229A617047C9
:101180001C00002070B504460D46A1B20548FFF7CB
:10119000A4FF00BF40210348FFF7F7FE0128F9D163
:1011A000204670BD00380140FFF74FFA00BF002510
:1011B0003CE0FFF737FC0446022C03D11CA0FFF7EC
:1011C00093FF33E0012C28D11BA0FFF78DFF22E015
:1011D0001C48FFF742F8282190FBF1F0C6B2FFF758
:1011E00021FC0446032C03D117A0FFF77DFF13E079
:1011F00031461B48FFF7FDFD0520FFF79DFF681CEA
:1012000085B242F6E060854204D100211448FFF720
:10121000F0FD01E000BFDBE708E0032C06D111A0E0
:10122000FFF762FF00210E48FFF7E3FDC1E7000072
:10123000B3A4B0B40A000000B5A5B4CEB6CCB0B427
:101240000A00000000240140CBABBBF720A1FA202C
:10125000CDCBB3F650574DB5F7D5FB0A00000000D3
:10126000002C0140CBABBBF7B6CCB0B40A000000F9
:1012700030B589B005460C46012140F60500FFF760
:10128000E1FA18208DF823004FF48070ADF82000AB
:1012900003208DF8220008A91B48FFF749F9002018
:1012A000ADF81A00ADF81600ADF81850ADF81440BE
:1012B0008DF81C0005A91548FFF7A0FD01A8FFF750
:1012C0008EFD6020ADF804000020ADF80C00012078
:1012D000ADF806000020ADF80A0001A90B48FFF7A1
:1012E00029FD01210948FFF7FCFC01210748FFF710
:1012F000DDFC08210548FFF769FD01210348FFF7E0
:10130000E4FC09B030BD000000080140002C0140A1
:10131000301300080000002028000000F81000082A
:1013200058130008280000200004000008110008DD
:10133000000000000102030401020304060708097B
:101340000204060800000000010000000000000088
:08135000000000000000000095
:0400000508000131BD
:00000001FF
