:020000040800F2
:100000002004002049010008CF020008AD020008CA
:10001000CB020008910100088B07000800000000D7
:10002000000000000000000000000000DD030008E8
:100030009501000800000000E5020008C90400085E
:100040006301000863010008630100086301000800
:1000500063010008630100086301000863010008F0
:1000600063010008630100086301000863010008E0
:1000700063010008630100086301000863010008D0
:1000800063010008630100086301000863010008C0
:1000900063010008630100086301000863010008B0
:1000A00063010008630100086301000863010008A0
:1000B0006301000863010008630100086301000890
:1000C0006301000863010008630100086301000880
:1000D0006301000863010008630100086301000870
:1000E0006301000863010008630100086301000860
:1000F0006301000863010008630100086301000850
:10010000630100086301000863010008630100083F
:10011000630100086105000863010008630100082D
:10012000630100086301000863010008630100081F
:10013000DFF810D000F01AF800480047AD070008BB
:10014000AFF300802004002006488047064800479F
:10015000FEE7FEE7FEE7FEE7FEE7FEE7FEE7FEE777
:10016000FEE7FEE7CD04000831010008064C074D0C
:1001700006E0E06840F0010394E807009847103477
:10018000AC42F6D3FFF7D8FFB4070008D407000845
:1001900000BFFEE770472DE9F0410246002500262A
:1001A000002000230024002791F803C00CF00F0565
:1001B00091F803C00CF0100CBCF1000F03D091F8C3
:1001C00002C04CEA050591F800C0BCF1000F31D027
:1001D000146800202BE04FF0010C0CFA00F3B1F88A
:1001E00000C00CEA03069E4220D183004FF00F0CA2
:1001F0000CFA03F7BC4305FA03FC4CEA040491F83B
:1002000003C0BCF1280F06D14FF0010C0CFA00FC22
:10021000C2F814C00AE091F803C0BCF1480F05D140
:100220004FF0010C0CFA00FCC2F810C0401C08286A
:10023000D1D31460B1F800C0BCF1FF0F34DD5468B5
:1002400000202EE000F1080C4FF0010808FA0CF332
:10025000B1F800C00CEA03069E4221D183004FF0A2
:100260000F0C0CFA03F7BC4305FA03FC4CEA040438
:1002700091F803C0BCF1280F05D100F1080C08FA71
:100280000CF8C2F8148091F803C0BCF1480F07D1F4
:1002900000F1080C4FF0010808FA0CF8C2F81080C1
:1002A000401C0828CED35460BDE8F08100BFFEE7B3
:1002B00010B54FF4A06000F00BF8482000F036F9BC
:1002C0004FF4E13000F066F910BD00BFFEE7704763
:1002D00002490143024A1160704700000000FA051C
:1002E0000CED00E07047000029B1064A9269024314
:1002F000044B9A6104E0034A92698243014B9A617C
:10030000704700000010024030B500210022002498
:1003100000232D4D6D6805F00C0121B1042905D095
:10032000082923D105E0294D056022E0274D05600D
:100330001FE0254D6D6805F47012234D6D6805F4BE
:100340008034022505EB92421CB9214D55430560CE
:100350000BE01D4D6D6805F400351DB11C4D554376
:10036000056002E0194D5543056002E0174D056038
:1003700000BF00BF144D6D6805F0F0010909154D6F
:100380006B5C0568DD4045600F4D6D6805F4E0610C
:10039000090A104D6B5C4568DD4085600A4D6D684B
:1003A00005F46051C90A0B4D6B5C4568DD40C560C2
:1003B000054D6D6805F44041890B074D6B5CC568C0
:1003C000B5FBF3F5056130BD0010024000127A0064
:1003D00000093D000000002010000020704710B50B
:1003E00000F002F810BD00000CB500200190009054
:1003F0003348006840F480303149086000BF30481D
:10040000006800F4003000900198401C01900098B2
:1004100018B90198B0F5A06FF1D12948006800F42F
:10042000003010B10120009001E000200090009801
:10043000012843D12348006840F01000214908609A
:100440000846006820F0030008600846006840F095
:10045000020008601A484068194948600846406828
:1004600048600846406840F480604860084640683C
:1004700020F47C1048600846406840F4E81048606A
:100480000846006840F08070086000BF0C480068B3
:1004900000F000700028F9D00948406820F00300FF
:1004A000074948600846406840F00200486000BFC5
:1004B0000348406800F00C000828F9D10CBD00008A
:1004C00000100240002002407047000010B51348A1
:1004D000006840F001001149086008464068104972
:1004E00008400E494860084600680E4908400B491C
:1004F00008600846006820F48020086008464068CC
:1005000020F4FE0048604FF41F008860FFF767FF8B
:100510004FF000600449086010BD00000010024068
:100520000000FFF8FFFFF6FE08ED00E04FF0E021CD
:10053000096921F004014FF0E0221161C21700EBBC
:100540005272D210044B1A60194609684FF47A723D
:100550005143024A11607047180000201400002027
:1005600010B540F225510A4800F06FF801280DD16E
:1005700040F22551064800F04DF8054800F0FCF81F
:1005800004462146024800F0FCF800BF10BD000000
:100590000050004010B586B00446012144F2050029
:1005A000FFF7A2FE18208DF817004FF40070ADF889
:1005B000140003208DF8160005A91448FFF7EBFD81
:1005C00048208DF817004FF48060ADF81400032028
:1005D0008DF8160005A90D48FFF7DDFD01940020F8
:1005E000ADF810000C20ADF80E000020ADF80C00A6
:1005F000ADF80A00ADF8080001A9054800F050F870
:100600000121034800F015F806B010BD00080140B4
:100610000038014010B50022002340F66A14A142C0
:1006200000D100BF0A1201249440A3B2DC4304802D
:1006300010BD21B1828942F40052828104E0828996
:100640004DF6FF731A408281704770B50246002450
:1006500000230025002040F66A16B14200D100BFF9
:10066000C1F3421501F01F03012606FA03F3012D21
:1006700002D19689334006E0022D02D1168A33401A
:1006800001E0968A33400C12012606FA04F416881B
:10069000344013B10CB1012000E0002070BD000017
:1006A0002DE9F04786B005460E460024A24600BF5D
:1006B000A1460027B08900B100BF2F462C8A4CF616
:1006C000FF700440F08804432C82AC894EF6F3108E
:1006D0000440B08831890843718908430443AC81E0
:1006E000AC8A4FF6FF400440B0890443AC8201A8B5
:1006F000FFF70AFE1F48874202D1DDF810A001E093
:10070000DDF80CA0A88900F4004040B10AEBCA0053
:1007100000EB0A1031684900B0FBF1F807E00AEB82
:10072000CA0000EB0A1031688900B0FBF1F86420C0
:10073000B8FBF0F004012009642101FB1089A889AD
:1007400000F4004040B1322000EBC900B0FBF1F0F2
:1007500000F00700044308E0322000EB0910642198
:10076000B0FBF1F000F00F0004432C8106B0BDE8AF
:10077000F08700000038014001468888C0F3080077
:100780007047C1F308028280704700BFFEE702E0B5
:1007900008C8121F08C1002AFAD17047704700200C
:1007A00001E001C1121F002AFBD17047FFF780FD55
:1007B00000BFFEE7D4070008000000201C00000076
:1007C0008E070008F00700081C0000200404000049
:1007D0009E07000800000000010203040102030458
:1007E00006070809020406080000000000000000D7
:0400000508000131BD
:00000001FF
