:020000040800F2
:10000000701C002039020008AF060008A70600088F
:10001000AB060008550300082F0C00080000000084
:10002000000000000000000000000000FD070008C4
:1000300059030008000000004F0200083B090008B7
:10004000530200085302000853020008530200083C
:10005000530200085302000853020008530200082C
:10006000530200085302000853020008530200081C
:10007000530200085302000853020008530200080C
:100080005302000853020008F5020008530200085A
:1000900053020008530200085302000853020008EC
:1000A00053020008530200085302000853020008DC
:1000B00053020008530200085302000853020008CC
:1000C00053020008530200085302000853020008BC
:1000D00053020008530200085302000853020008AC
:1000E000530200085302000853020008530200089C
:1000F000530200085302000853020008530200088C
:10010000530200085302000853020008530200087B
:10011000530200085302000853020008530200086B
:10012000530200085302000853020008530200085B
:10013000530200085302000853020008530200084B
:10014000530200085302000853020008530200083B
:10015000530200085302000853020008530200082B
:10016000530200085302000853020008530200081B
:10017000530200085302000853020008530200080B
:1001800053020008530200085302000853020008FB
:10019000530200085302000800F002F800F03CF897
:1001A0000AA090E8000C82448344AAF10107DA45D2
:1001B00001D100F031F8AFF2090EBAE80F0013F0E8
:1001C000010F18BFFB1A43F0010318470C0B000086
:1001D0002C0B0000103A24BF78C878C1FAD8520717
:1001E00024BF30C830C144BF04680C6070470000B1
:1001F0000023002400250026103A28BF78C1FBD830
:10020000520728BF30C148BF0B6070471FB500F0D0
:100210003DFD1FBD10B510BD00F031F81146FFF7D0
:10022000F5FF00F027FD00F04FF803B4FFF7F2FFF1
:1002300003BC00F057F80000094880470948004710
:10024000FEE7FEE7FEE7FEE7FEE7FEE7FEE7FEE786
:10025000FEE7FEE704480549054A064B70470000E3
:100260003D0900089901000870000020701C002062
:10027000700800207008002070477047704775466E
:1002800000F02CF8AE4605006946534620F0070002
:10029000854618B020B5FFF7DDFFBDE820404FF0E0
:1002A00000064FF000074FF000084FF0000B21F060
:1002B0000701AC46ACE8C009ACE8C009ACE8C0092D
:1002C000ACE8C0098D46704710B50446AFF3008016
:1002D0002046BDE81040FFF7A8BF00000048704767
:1002E0001000002001491820ABBEFEE726000200E6
:1002F0007047000010B54FF40871074800F018F877
:1003000040B10221044800F00BF8034800F00CF85B
:100310000249088010BD0000000C024004000020CB
:100320007F228A43026070470146C86C80B27047E2
:1003300070B502460020002300240B125568CEB28F
:1003400005EA060415681D4015B10CB1012000E056
:10035000002070BD00BFFEE770470000F0B5024608
:100360000C460023002600210025002002F08047D3
:10037000B7F1804F02D1844F396A11E002F0005783
:10038000B7F1005F02D1804F796A09E002F080572F
:10039000B7F1805F02D17C4FB96A01E07A4F79688A
:1003A000C2F3034593B2794F1740B7F5401F0AD106
:1003B00021F07061744F7F6827F07067DFF8C8C163
:1003C000CCF80470BDE002F48017B7F5801F13D19C
:1003D00002F40017B7F5001F03D10327AF403E0416
:1003E00002E0032707FA05F6B14302F0E047002FC9
:1003F000E8D141F07061A4E002F08077B7F1807F2E
:1004000047D102F00407042F29D102F00077B7F199
:10041000007F16D1C2F340573F0103FA07F7B943F3
:100420003CB1594F786840F0010040F0706078604E
:1004300087E0554F786820F0010040F070607860E8
:100440007FE0C2F340573F0103FA07F7B9434E4F2D
:10045000786820F0010040F07060786071E043F04F
:100460000407C2F3405C4FEA0C1C07FA0CF7B943CF
:100470003CB1454F786840F0010040F07060786012
:100480005FE0414F786820F0010040F070607860D4
:1004900057E002F08067B7F1806F47D102F008079C
:1004A000082F29D102F00077B7F1007F16D1C2F3EF
:1004B00040573F0103FA07F7B9433CB1324F786820
:1004C00040F0080040F0706078603AE02E4F7868A5
:1004D00020F0080040F07060786032E0C2F34057CE
:1004E0003F0103FA07F7B943274F786820F0080067
:1004F00040F07060786024E043F00807C2F3405C8D
:100500004FEA0C1C07FA0CF7B9433CB11E4F786850
:1005100040F0080040F07060786012E01A4F786890
:1005200020F0080040F0706078600AE0C2F34057A5
:100530003F0103FA07F7B94302F0E0470FB941F072
:1005400070612CB1C2F340573F0103FA07F73943FA
:1005500002F08047B7F1804F02D10B4F396211E0B2
:1005600002F00057B7F1005F02D1074F796209E04E
:1005700002F08057B7F1805F02D1034FB96201E00A
:10058000014F7960F0BD00000000014000003070B4
:100590002DE9F0410246002500260020002300241A
:1005A000002791F803C00CF00F0591F803C00CF080
:1005B000100CBCF1000F03D091F802C04CEA050505
:1005C00091F800C0BCF1000F31D0146800202BE07E
:1005D0004FF0010C0CFA00F3B1F800C00CEA03066E
:1005E0009E4220D183004FF00F0C0CFA03F7BC435E
:1005F00005FA03FC4CEA040491F803C0BCF1280F8F
:1006000006D14FF0010C0CFA00FCC2F814C00AE04D
:1006100091F803C0BCF1480F05D14FF0010C0CFA62
:1006200000FCC2F810C0401C0828D1D31460B1F8F7
:1006300000C0BCF1FF0F34DD546800202EE000F153
:10064000080C4FF0010808FA0CF3B1F800C00CEAEE
:1006500003069E4221D183004FF00F0C0CFA03F7E2
:10066000BC4305FA03FC4CEA040491F803C0BCF156
:10067000280F05D100F1080C08FA0CF8C2F8148014
:1006800091F803C0BCF1480F07D100F1080C4FF0FE
:10069000010808FA0CF8C2F81080401C0828CED3D4
:1006A0005460BDE8F08100BFFEE700BFFEE7704781
:1006B00029B1064AD2690243044BDA6104E0034AD5
:1006C000D2698243014BDA6170470000001002409A
:1006D00029B1064A92690243044B9A6104E0034A35
:1006E00092698243014B9A617047000000100240FA
:1006F000F0B5002100BF002200250024384E7668A6
:10070000384F06EA0702364E766806F4803502F066
:1007100000661EB9022606EB924204E04FF4F8761A
:10072000C6EB9246721C1DB92F4E02FB06F30BE07E
:100730002B4E766806F400361EB12B4E02FB06F3F4
:1007400002E02A4E02FB06F3254E766806F00C0105
:1007500021B1042905D0082908D105E0234E0660FF
:1007600007E0224E066004E0036002E01F4E0660D0
:1007700000BF00BF1A4E766806F0F00109091C4E52
:10078000745C0668E6404660154E766806F4E061E3
:10079000090A174E745C4668E6408660104E76681B
:1007A00006F46051C90A124E745C4668E640C660A1
:1007B0000B4EF66A06F00F010E4E745C4668B6FBEF
:1007C000F4F64661064EF66A06F4F871090901F07E
:1007D0000F06094F37F81640B3FBF4F60661F0BD7B
:1007E0000010024000003C0800093D0000127A00A1
:1007F000960C0008A60C0008B60C00087047000014
:1008000030B500210022002300202B4C246844F442
:100810008034294D2C6000BF274C2468C4F340422B
:100820005B1C12B9B3F5004FF6D1234C2468C4F316
:1008300040421AB9214C224D2C6030BD214C206819
:1008400020F0070040F0040020601B4C64681A4D43
:100850006C602C46646844F400546C602C466468F8
:1008600044F4A0646C6000202C466068164C204064
:10087000014641F4803100BF144C21432C46616095
:10088000246844F080742C6000BF0B4C246804F092
:100890000074002CF9D00020074C606820F00300A1
:1008A00040F00200606000BF034C646804F00C0478
:1008B000082CF9D100BFC0E70010024000127A00F6
:1008C0000000002000200240FFFFC0F700000408E5
:1008D00000200021104AD26942F080520E4BDA61AA
:1008E0000E4A1168C1F304610D4AD06820F4787093
:1008F000891C29B11F2903D240EA4110D06003E0CE
:1009000040F47870064AD060034AD26922F08052DF
:10091000014BDA61704700000010024000180040EF
:1009200000700040042807D14FF0E021096941F030
:1009300004014FF0E02211617047704710B529485B
:10094000006840F47000274908602748006840F0BC
:1009500001002549086008464068244908402249AA
:10096000486008460068224908401F490860084658
:10097000006820F480200860084640681D4908404F
:10098000194948604FF46050C8624FF461500863E1
:100990004FF41F0088600846C06940F08050C8616D
:1009A0001548C06840F001001349C8600E48C0698E
:1009B00020F080500C49C8611048006840F0900059
:1009C0000E490860FFF71CFF4FF0006005498039B1
:1009D00008600B4800680B49884201D0FFF778FF98
:1009E00010BD000088ED00E00010024000C0FFF8DC
:1009F000FFFFF6FEFFFF00F70070004000200240FE
:100A000098F2FF1F424B524910B504460420FFF7ED
:100A100089FF0448046000684FF47A714843024932
:100A2000086010BD0C0000200800002010B586B042
:100A3000044601210920FFF74BFE01210805FFF7BD
:100A400037FE18208DF8170003208DF816004FF49C
:100A50000050ADF8140005A91648FFF799FD0420D1
:100A60008DF8170003208DF816004FF48040ADF884
:100A7000140005A90F48FFF78BFD01210E48FFF771
:100A80006DFC01940020ADF810000C20ADF80E00B4
:100A90000020ADF80C00ADF80A00ADF8080001A97F
:100AA000064800F057F80121044800F03AF806B073
:100AB00010BD0000000C01404000364000500040D6
:100AC00010B504462021074800F037F8012807D167
:100AD0002021044800F01CF8024800F09FF804466A
:100AE000204610BD0050004010B504468021074844
:100AF00000F023F8012807D18021044800F008F80D
:100B00002146024800F08FF810BD00000050004060
:100B100001F40072B2F5007F00D100BFCA43028029
:100B2000704721B1828942F40052828104E08289B7
:100B30004DF6FF731A408281704702460020B1F5DE
:100B4000007F00D100BF13880B400BB1012000E0F3
:100B5000002070472DE9F04786B005460F46002477
:100B6000A24600BF00BF0026B88900B100BF2E46D4
:100B70002C8A4CF6FF700440F88804432C82AC8920
:100B80004EF6F3100440B888398908437989084340
:100B90000443AC81AC8A4FF6FF400440B88904435B
:100BA000AC826846FFF7A4FD1948864205D0194873
:100BB000864202D01848864202D1DDF80CA001E03E
:100BC000DDF808A00AEBCA0000EB0A1039688900BA
:100BD000B0FBF1F86420B8FBF0F0040120096421B7
:100BE00001FB1080322101EB00106421B0FBF1F910
:100BF0000120B0EB191F04D16420B8FBF0F0401CB9
:100C0000040109F00F0004432C8106B0BDE8F08711
:100C100000380140005001400054014001468888DE
:100C2000C0F308007047C1F308028280704700BF1C
:100C3000FEE710B500F008F84FF4E130FFF7F6FEDC
:100C40009020FFF7E1FE10BD08B501210420FFF759
:100C50003FFD10208DF8030003208DF802004FF4B3
:100C60008070ADF8000069460148FFF791FC08BDAF
:100C700000080140FFF7DDFF002406E0FFF720FF3A
:100C800084B214B12046FFF72FFFF7E74FF0407012
:100C9000E1EE100A704700000000010203040102A7
:100CA00003040607080901020406080A0C102020A4
:100CB000202020202020010002000400060008005F
:100CC0000A000C001000200040008000000100011C
:100CD0000001000100010000F80C000800000020E5
:100CE00010000000D4010008080D000810000020CA
:100CF000601C0000F001000800449508000000009E
:080D00000000000000000000EB
:040000050800019955
:00000001FF
