:020000040800F2
:1000000098170020B1010008171200080F1200080D
:10001000131200089D0E0008231B000800000000BA
:10002000000000000000000000000000E9130008CC
:10003000BD0E000800000000C701000827150008D9
:10004000CB010008CB010008CB010008CB01000860
:10005000CB010008CB010008CB010008CB01000850
:10006000CB010008CB010008CB010008CB01000840
:10007000CB010008CB010008CB010008CB01000830
:10008000CB010008CB0100083D0E0008CB010008A1
:10009000CB010008CB010008CB010008CB01000810
:1000A000CB010008CB010008CB010008CB01000800
:1000B00019160008CB010008CB010008CB0100088D
:1000C000CB010008CB010008CB010008CB010008E0
:1000D000CB0100088118000819190008CB0100089D
:1000E000CB010008CB010008CB010008CB010008C0
:1000F000CB010008CB010008CB010008CB010008B0
:10010000CB010008CB010008CB010008CB0100089F
:10011000CB010008CB010008CB010008CB0100088F
:10012000CB010008CB010008CB010008CB0100087F
:10013000CB010008CB010008CB010008CB0100086F
:10014000CB010008CB010008CB010008CB0100085F
:10015000CB010008CB010008CB010008CB0100084F
:10016000CB010008CB010008CB010008CB0100083F
:10017000CB010008CB010008CB010008CB0100082F
:10018000CB010008CB010008CB010008CB0100081F
:10019000CB010008CB010008DFF810D000F0A2FB73
:1001A0000048004725280008AFF30080981700207A
:1001B0000648804706480047FEE7FEE7FEE7FEE701
:1001C000FEE7FEE7FEE7FEE7FEE7FEE7291500088B
:1001D0009901000840EA01039B0703D009E008C920
:1001E000121F08C0042AFAD203E011F8013B00F8FC
:1001F000013B521EF9D27047D2B201E000F8012B48
:10020000491EFBD270470022F6E710B513460A4696
:1002100004461946FFF7F0FF204610BD30B50546ED
:100220002A460B4612F8010B13F8014B08B1A04205
:10023000F8D01CB1002802D06D1CF1E7284630BD73
:1002400070B5064601F09AFC046805460A220021B2
:10025000304600F00FFA2C6070BD2DE9FE4F80464D
:1002600081EA0300C00F0C46009021F0004123F00A
:100270000045B8EB0200A94105D240462146904610
:100280001C460B46024623F00040104347D0270D82
:10029000C7F30A00C3F30A510290401A01904028A4
:1002A0006BDAC3F3130040F4801B0098924620B130
:1002B0000023D2EB030A63EB0B0B01985946C0F104
:1002C0004002504600F056F906460D465046594643
:1002D000019A00F06EF910EB08006141002487EAF2
:1002E000115284EAE7731A4340D0009A62B3019A2C
:1002F000012A4FEA075215DC001B61EB02014FF0A7
:10030000004202EA0752CDE90042001C41F580118B
:1003100032462B4600F0F5F903B0BDE8F08F4046B9
:100320002146F9E7001B61EB0201001C41F5801337
:1003300000185B412018A2F5001747EB030140EAC3
:10034000D570B6196D4111E06D084FEA360645EAE1
:10035000C0754FEA0752001B61EB0201001C41F51A
:10036000801149084FEA30000019514132462B46AE
:1003700003B0BDE8F04F00F0B5B90098012240008D
:100380000023D0EB020263EBE073009821464FEAB2
:10039000E074B8EB000061EB0401E9E783F000438F
:1003A0005BE781F0004158E72DE9F04D81EA030455
:1003B00004F0004B21F0004514464FF0000A23F0F2
:1003C000004150EA050220D054EA01021DD0C5F3D5
:1003D0000A570246C5F31303C1F31300C1F30A56CB
:1003E00040F4801543F48013A7EB0608101BD64693
:1003F00008F2FD3873EB050002D308F1010801E0B3
:1004000092185B41B8F1000F03DA00200146BDE805
:10041000F08D00204FF48011064684460EE0171B35
:1004200073EB050705D3121B63EB050306434CEA88
:10043000010C49084FEA300092185B4150EA01076D
:10044000EDD152EA030012D082EA040083EA0501EA
:10045000084305D0101BAB4106D20122002306E061
:1004600000224FF0004302E06FF0010253101AEB3C
:1004700006004CEB085110EB0A0041EB0B01BDE804
:10048000F04D00F02FB90EB5C10F80EAE0700844BE
:10049000CA07002140F233438DE80E000A460B469E
:1004A00000F02FF903B000BD70B5C1F30A5201F09E
:1004B00000450024C1F3130140F2FF3341F48011E1
:1004C0009A4201DA002070BD40F233439A42A2F210
:1004D000334203DC524200F05CF800E090402C43D1
:1004E000F1D0404270BD30B50B46014600202022BD
:1004F000012409E021FA02F59D4205D303FA02F531
:10050000491B04FA02F52844151EA2F10102F1DC90
:1005100030BD2DE9F05F0546002092469B46884697
:100520000646814640241BE028464146474622466F
:1005300000F02FF853465A46C01A914110D3114685
:100540001846224600F016F82D1A67EB01084F46B0
:1005500022460120002100F00DF817EB00094E4162
:10056000201EA4F10104DFDC484631462A464346FA
:10057000BDE8F09F202A04DB203A00FA02F10020B7
:1005800070479140C2F1200320FA03F319439040D1
:100590007047202A04DB203A21FA02F0002170473C
:1005A00021FA02F3D040C2F12002914008431946DB
:1005B0007047202A06DBCB17203A41FA02F043EAC3
:1005C000E07306E041FA02F3D040C2F1200291400C
:1005D00008431946704700000FB4002300B589B0E6
:1005E0000CA900910B996FF00042CB601E4B069353
:1005F0001E4B07930423CDE901321D4A089202469F
:100600006B46002000F022FA09B05DF814FB70B5CB
:1006100086B006464FF0FF300091CDE90101002081
:1006200015460C4604903246694604A8FFF7D4FFED
:1006300002460498211825B108B1084600E020467A
:100640002860049800280DD0002A02DD0098884216
:1006500008D0081B0094CDE901043246694604A87D
:10066000FFF7BAFF06B070BD850C0008A30C0008A8
:10067000110900082DE9F04791460F4680460446CF
:10068000002614F8015B2DB100F03EF90068405DD2
:10069000C007F6D12B2D02D02D2D18D0641E4A464E
:1006A0003946204600F00EFB27B13968A14201D13E
:1006B000C7F8008071054FF002040BD540420028B6
:1006C00003DD01F05BFA0460A007BDE8F08746F4A3
:1006D0008066E4E70028F8DA01F050FA04606FF071
:1006E0000040F2E710B5141E73F1000408DA401C54
:1006F00041F1000192185B411A4301D120F0010041
:1007000010BD2DE9F04D92469B4611B1B1FA81F230
:1007100002E0B0FA80F220329046FFF72BFF044649
:100720000F4640EA0A0041EA0B0153465A46084385
:1007300013D0114653EA010019D0C8F140025046C7
:10074000FFF727FF05460E46504659464246FFF73B
:1007500011FF084305D0012004E020463946BDE8DA
:10076000F08D0020054346EAE0762C4337430A9893
:100770006305E40AA0EB08000022FD0A44EA47549E
:100780000A3002D500200146E9E701051019694148
:10079000DDE9084500196941BDE8F04DA2E72DE902
:1007A000FE4F81EA030404F0004421F0004100946C
:1007B0004FF0000B23F0004350EA01045ED052EAF0
:1007C00003045BD0C3F30A54C1F30A552C44A4F2CA
:1007D000F3340194A0FB0254C1F3130141F48011DE
:1007E000C3F3130343F4801301FB024400FB034EE5
:1007F000840A970A44EA815447EA8357A4FB0768AE
:1008000002958D0A05FB07854FEA932C04FB0C54D7
:100810002705029D4FEA065847EA1637B5EB08054B
:100820006EEB070C870E920E47EA811742EA83129D
:10083000A7FB0201B6EB0B0164EB00042B0D43EAAE
:100840000C335E1844EB1C50DA465146E7FB0201BC
:10085000C5F313044FEA0B3343EA14534FEA04324F
:10086000019C43EA0603A4F10C040294009CCDE928
:1008700000B4FFF746FF03B0BDE8F08F002001464B
:10088000F9E7C1F30A52C1F3130140F2FF3341F417
:1008900080119A4202DA00200146704740F2334349
:1008A0009A42A2F2334202DC5242FFF772BEFFF7D5
:1008B00061BE000030B5041E71F1000404DB4FF08E
:1008C0000044404264EB0101141E73F1000405DB97
:1008D0001C464FF00043524263EB0403994208BFA9
:1008E000904230BD064C074D06E0E06840F0010341
:1008F00094E8070098471034AC42F6D3FFF750FC59
:10090000F037000810380008004870470437000826
:1009100010B50446FFF7F8FF0068005D00F0010025
:1009200010BD00002DE9FF4F087883B09946FF28DD
:1009300005D0491C2D2804D00024002008E0002008
:100940000BE00124F9E700EB800003EB4000491CB9
:100950000B78FF2BF7D104B14042002302931478A7
:1009600019461D462D2C01D02B2C04D1521C2D2CA8
:1009700013D000240294AA461478FF2C0FD00A2525
:10098000A3FB057801FB05814FF0000C03FB0C1164
:10099000521CE3194AEB0101EEE70124EAE7814426
:1009A00053EA010002D019F5C87F06DA0398002146
:1009B000C0E9001107B0BDE8F08F0025AE4E2F460C
:1009C000DFF8B882184600F0DAF9CDE90001B9F194
:1009D000000002DAC9F1000400E004460023A74A3F
:1009E0001AEB030B42EB045A12E0E00707D02A4649
:1009F000334638464146FFF7D2FE074688462A4628
:100A0000334610461946FFF7CAFE05460E466410E7
:100A1000002CEAD1DDE90001B9F1000F5A46534636
:100A200006DAFFF7C1FC3A464346FFF7BDFC05E096
:100A3000FFF7B5FE3A464346FFF7B1FE029A0AB108
:100A400081F00041039AC2E90001B3E72DE9FF4FAD
:100A50001F468DB0D7E901464FF0FF382E2045469E
:100A60004FF000090B90B9696D1C0E988847396AE0
:100A7000824688470028F6D1BAF1FF3F0AD024F415
:100A8000D064002E11DDBAF12B0F08D0BAF12D0F72
:100A90000BD102E0404611B08DE744F48064B9699F
:100AA0006D1C0E9888478246761E6946600501D502
:100AB0002D2000E02B208DF8000001F1010B0DF13D
:100AC000200809E0B9696D1C0E98884782460F9886
:100AD00044F40074761E0560002E02DDBAF1300F7A
:100AE000F0D00B998A453ED144F0800406E00F997E
:100AF000681CA9F1010944F400740860B9696D1C0F
:100B0000761E0E98884782463028F0D02BE00B994D
:100B10008A4505D1200603D444F08004761E18E0EF
:100B2000504601F02BF908B30DF11301761E44F481
:100B300000748B4508D2AAF130000BF8010B200697
:100B400007D5A9F1010003E0200602D409F1010054
:100B50008146A00502D50F99681C0860B9696D1C13
:100B60000E9888478246002ED1DC53E0002E51DDDE
:100B7000BAF1650F02D0BAF1450F4BD1A00549D5A6
:100B8000B9696D1C24F44074761E0E98884782461D
:100B9000002E0CDD2B2804D0BAF12D0F07D144F420
:100BA0008074B9696D1C0E9888478246761EE005F0
:100BB00001D52D2100E02B2108F8011BCDF82C8058
:100BC00021E00DF12901761E44F4007488450CD211
:100BD000AAF1300010F0FF0088F8000002D10B9954
:100BE000884509D908F1010806E0E00501D5244847
:100BF00001E042F20F708146B9696D1C0E9888477A
:100C000082460F980560002E04DD504601F0B6F8CC
:100C10000028D6D1F9690E988847FF208BF800008C
:100C200088F800000020069007904B466A4608A905
:100C300006A8FFF777FEA00502D46FF001002AE7AF
:100C400014F0240F0AD0E00714D1DDE90612386849
:100C5000031D3B600068C0E900120BE0DDE90601FE
:100C600000F099F80146E00704D13868021D3A60A7
:100C70000068016028460EE7000014400000F03FC5
:100C8000F1D8FFFF426842B1016811F8013B23B17E
:100C9000521EC0E90012184670470121C160881E2B
:100CA000704742685AB1C368016843B983688B4290
:100CB00005D0491E521CC0E90012002070474FF0B9
:100CC000FF3070472DE9F05F824600780027154617
:100CD0008B460AF10104B946302801D09DB113E0DA
:100CE00014F8010B0127782803D0582801D045B10A
:100CF0000AE00DB1102D07D10027102514F8010BC3
:100D000002E0082500E00A250026B0460EE005FBBB
:100D1000080005FB06F1012701EB10461FFA80F8D9
:100D2000B6F5803F00D3B94614F8010B294600F010
:100D300018F80028EBDABBF1000F05D00FB1641EE4
:100D400000E05446CBF80040B9F1000F06D000F0A7
:100D500015FF02210160C81EBDE8F09F48EA064069
:100D6000FAE73A2800D2303820F02002412A01D395
:100D7000A2F13700884201D34FF0FF3070470EB523
:100D800040F2334202920022CDE900221346FFF7DF
:100D9000B8FC03B000BD01F0004330B421F00041C5
:100DA00050EA010206D00A0DA2F56072C1F31301E8
:100DB000002A02DC30BC00207047440F44EAC10422
:100DC000C100E01830BC00EBC250AFF30080002936
:100DD000A8BF7047401C490008BF20F001007047C1
:100DE00010B4B0FA80FC00FA0CF050EA010404BF21
:100DF00010BC704749B1CCF1200421FA04F411FA77
:100E00000CF118BF012121430843A3EB0C01CB1DBA
:100E10004FEA00614FEA102042BF002010BC70472B
:100E200000EBC35010440029A4BF10BC7047401C05
:100E3000490008BF20F0010010BC704710B54FF406
:100E40000871074800F018F840B10221044800F08A
:100E50000BF8034800F00CF80249088010BD0000B0
:100E6000000C0240180000207F228A430260704775
:100E70000146C86C80B2704770B50246002000235E
:100E800000240B125568CEB205EA060415681D4011
:100E900015B10CB1012000E0002070BD00BFFEE7DD
:100EA00010B5C8210348FFF7AEF9002002490880B9
:100EB00010BD0000CD0200204A0000207047000055
:100EC000F0B502460C460023002600210025002034
:100ED00002F08047B7F1804F02D1844F396A11E0A8
:100EE00002F00057B7F1005F02D1804F796A09E044
:100EF00002F08057B7F1805F02D17C4FB96A01E000
:100F00007A4F7968C2F3034593B2794F1740B7F52A
:100F1000401F0AD121F07061744F7F6827F070671D
:100F2000DFF8C8C1CCF80470BDE002F48017B7F553
:100F3000801F13D102F40017B7F5001F03D1032758
:100F4000AF403E0402E0032707FA05F6B14302F082
:100F5000E047002FE8D141F07061A4E002F0807713
:100F6000B7F1807F47D102F00407042F29D102F0A6
:100F70000077B7F1007F16D1C2F340573F0103FA63
:100F800007F7B9433CB1594F786840F0010040F091
:100F90007060786087E0554F786820F0010040F07D
:100FA000706078607FE0C2F340573F0103FA07F7B3
:100FB000B9434E4F786820F0010040F070607860CF
:100FC00071E043F00407C2F3405C4FEA0C1C07FADF
:100FD0000CF7B9433CB1454F786840F0010040F050
:100FE000706078605FE0414F786820F0010040F069
:100FF0007060786057E002F08067B7F1806F47D18A
:1010000002F00807082F29D102F00077B7F1007F1E
:1010100016D1C2F340573F0103FA07F7B9433CB179
:10102000324F786840F0080040F0706078603AE035
:101030002E4F786820F0080040F07060786032E051
:10104000C2F340573F0103FA07F7B943274F7868C7
:1010500020F0080040F07060786024E043F008075A
:10106000C2F3405C4FEA0C1C07FA0CF7B9433CB1E1
:101070001E4F786840F0080040F07060786012E021
:101080001A4F786820F0080040F0706078600AE03D
:10109000C2F340573F0103FA07F7B94302F0E047B4
:1010A0000FB941F070612CB1C2F340573F0103FA10
:1010B00007F7394302F08047B7F1804F02D10B4F59
:1010C000396211E002F00057B7F1005F02D1074F1B
:1010D000796209E002F08057B7F1805F02D1034FD7
:1010E000B96201E0014F7960F0BD000000000140ED
:1010F000000030702DE9F041024600250026002056
:1011000000230024002791F803C00CF00F0591F88C
:1011100003C00CF0100CBCF1000F03D091F802C01A
:101120004CEA050591F800C0BCF1000F31D01468FD
:1011300000202BE04FF0010C0CFA00F3B1F800C0D6
:101140000CEA03069E4220D183004FF00F0C0CFAEC
:1011500003F7BC4305FA03FC4CEA040491F803C00E
:10116000BCF1280F06D14FF0010C0CFA00FCC2F8BC
:1011700014C00AE091F803C0BCF1480F05D14FF04C
:10118000010C0CFA00FCC2F810C0401C0828D1D396
:101190001460B1F800C0BCF1FF0F34DD54680020CA
:1011A0002EE000F1080C4FF0010808FA0CF3B1F83A
:1011B00000C00CEA03069E4221D183004FF00F0CC1
:1011C0000CFA03F7BC4305FA03FC4CEA040491F85B
:1011D00003C0BCF1280F05D100F1080C08FA0CF887
:1011E000C2F8148091F803C0BCF1480F07D100F198
:1011F000080C4FF0010808FA0CF8C2F81080401CE7
:101200000828CED35460BDE8F0810161704700BF6B
:10121000FEE700BFFEE7704770B5002100230F22F4
:10122000C47804B3154C246804F4E064C4F5E064A5
:10123000210AC1F10403CA40447804FA03F1847816
:101240001440214309010E4C0678A155047804F09E
:101250001F050124AC4005786D11AD0005F1E025B6
:10126000C5F8004109E0047804F01F050124AC40F2
:10127000044D0678761145F8264070BD0CED00E06F
:1012800000E400E080E100E002490143024A11600D
:10129000704700000000FA050CED00E029B1064A95
:1012A000D2690243044BDA6104E0034AD269824303
:1012B000014BDA61704700000010024029B1064A74
:1012C00092690243044B9A6104E0034A92698243A3
:1012D000014B9A617047000000100240F0B50021F8
:1012E00000BF002200250024384E7668384F06EAF9
:1012F0000702364E766806F4803502F000661EB9A5
:10130000022606EB924204E04FF4F876C6EB9246D2
:10131000721C1DB92F4E02FB06F30BE02B4E7668B4
:1013200006F400361EB12B4E02FB06F302E02A4EF5
:1013300002FB06F3254E766806F00C0121B1042964
:1013400005D0082908D105E0234E066007E0224EAB
:10135000066004E0036002E01F4E066000BF00BFAD
:101360001A4E766806F0F00109091C4E745C066896
:10137000E6404660154E766806F4E061090A174EAD
:10138000745C4668E6408660104E766806F46051EC
:10139000C90A124E745C4668E640C6600B4EF66A97
:1013A00006F00F010E4E745C4668B6FBF4F646611B
:1013B000064EF66A06F4F871090901F00F06094FA6
:1013C00037F81640B3FBF4F60661F0BD001002409A
:1013D00000003C0800093D0000127A004036000879
:1013E00050360008603600087047000030B5002114
:1013F0000022002300202B4C246844F48034294D23
:101400002C6000BF274C2468C4F340425B1C12B917
:10141000B3F5004FF6D1234C2468C4F340421AB907
:10142000214C224D2C6030BD214C206820F007005B
:1014300040F0040020601B4C64681A4D6C602C4620
:10144000646844F400546C602C46646844F4A064FE
:101450006C6000202C466068164C2040014641F428
:10146000803100BF144C21432C466160246844F055
:1014700080742C6000BF0B4C246804F00074002CB6
:10148000F9D00020074C606820F0030040F0020013
:10149000606000BF034C646804F00C04082CF9D1B0
:1014A00000BFC0E70010024000127A0000000020D8
:1014B00000200240FFFFC0F70000040800200021C8
:1014C000104AD26942F080520E4BDA610E4A11681E
:1014D000C1F304610D4AD06820F47870891C29B1E9
:1014E0001F2903D240EA4110D06003E040F4787035
:1014F000064AD060034AD26922F08052014BDA6179
:1015000070470000001002400018004000700040CA
:10151000042807D14FF0E021096941F004014FF0A0
:10152000E02211617047704710B52948006840F407
:101530007000274908602748006840F001002549ED
:101540000860084640682449084022494860084627
:101550000068224908401F4908600846006820F4D6
:1015600080200860084640681D49084019494860C5
:101570004FF46050C8624FF4615008634FF41F008D
:1015800088600846C06940F08050C8611548C0684E
:1015900040F001001349C8600E48C06920F0805037
:1015A0000C49C8611048006840F090000E4908607E
:1015B000FFF71CFF4FF000600549803908600B48B9
:1015C00000680B49884201D0FFF778FF10BD00008A
:1015D00088ED00E00010024000C0FFF8FFFFF6FEBB
:1015E000FFFF00F7007000400020024098F2FF1F4C
:1015F000424B524910B504460420FFF789FF0448C6
:10160000046000684FF47A7148430249086010BDD5
:10161000200000201C00002010B50121880700F0E8
:101620001FF828B101F036F80121880700F001F811
:1016300010BDCA43026170471AB183890B4383818D
:1016400002E083898B438381704721B1026842F0B5
:101650000102026003E0026822F0010202607047AA
:1016600030B50246002000230024156905EA010375
:10167000958905EA010413B10CB1012000E00020B6
:1016800030BD00000A46002101684D4B98420ED043
:101690004C4B98420BD0B0F1804F08D04A4B984247
:1016A00005D04A4B984202D0494B984203D121F0D1
:1016B000700153881943474B984206D0464B9842D5
:1016C00003D021F44071D388194301609388838546
:1016D000138803853A4B984202D03A4B984201D185
:1016E000137A0386012383820168354B98420ED01A
:1016F000344B98420BD0B0F1804F08D0324B984217
:1017000005D0324B984202D0314B984206D1537AE1
:1017100013B141F4006101E021F40061B0F1804FA8
:1017200008D0294B984205D0284B984202D0284B2C
:1017300098420DD1937A13B141F4805101E021F424
:101740008051D37A13B141F4005101E021F40051EA
:10175000B0F1804F05D01C4B984202D01B4B9842F1
:1017600006D1137B13B141F4804101E021F48041A3
:10177000134B98420BD0134B984208D0B0F1804FD6
:1017800005D0114B984202D0104B984206D1537BA2
:1017900013B141F4004101E021F4004101604168CE
:1017A000B0F1804F02D0094B984206D1937B13B120
:1017B00041F4807101E021F48071416070470000C4
:1017C000002C0140003401400004004000080040AB
:1017D000000C0040001000400014004010B586B01E
:1017E000044601210805FFF759FD01210920FFF7F3
:1017F00065FD18208DF8170003208DF816004FF4B2
:101800000050ADF8140005A91A48FFF773FC042036
:101810008DF8170003208DF816004FF48040ADF8C6
:10182000140005A91348FFF765FC01211248FFF7D2
:1018300047FB01940020ADF810000C20ADF80E001D
:101840000020ADF80C00ADF80A00ADF8080001A9C1
:101850000A4800F0F9F84021084800F075F8202106
:10186000064800F071F80121044800F0AAF806B01B
:1018700010BD0000000C0140400036400050004008
:1018800010B540F22551204800F0B4F8002839D0B6
:101890001D4800F03DF9C4B2242C02D100201B49A0
:1018A00008801A4801880088401C184A108018488F
:1018B0004454007824281ED1154800794D281AD1A7
:1018C00013484079432816D10A2C14D150211148CD
:1018D000FEF799FC0D4802880D490E48FEF77AFC88
:1018E00001200C4981F85000002008490880C821D7
:1018F0000748FEF788FC05480088C82802DBC82096
:101900000249088010BD0000003801404A00002054
:10191000CD0200205402002010B540F225510948A4
:1019200000F068F860B10748001D0088C4B2204686
:1019300000F0FEFE40F22551024800F00EF800BF14
:1019400010BD00000044004001F40072B2F5007FB9
:1019500000D100BFCA430280704710B500220023A7
:1019600040F66A14A14200D100BF0A12012494403B
:10197000A3B2DC43048010BDF0B50346002400266A
:101980000025002040F66A17B94200D100BF184672
:10199000C1F3421401F01F06012707FA06F5012CD6
:1019A00001D10C3004E0022C01D1103000E01430E1
:1019B0001AB107682F43076002E00768AF4307606A
:1019C000F0BD21B1828942F40052828104E0828913
:1019D0004DF6FF731A408281704702460020B1F530
:1019E000007F00D100BF13880B400BB1012000E045
:1019F0000020704770B50246002400230025002017
:101A000040F66A16B14200D100BFC1F3421501F0A1
:101A10001F03012606FA03F3012D02D196893340F4
:101A200006E0022D02D1168A334001E0968A334047
:101A30000C12012606FA04F41688344013B10CB1D6
:101A4000012000E0002070BD2DE9F04786B005467A
:101A50000F460024A24600BF00BF0026B88900B18F
:101A600000BF2E462C8A4CF6FF700440F8880443D1
:101A70002C82AC894EF6F3100440B88839890843AB
:101A8000798908430443AC81AC8A4FF6FF40044097
:101A9000B8890443AC826846FFF720FC19488642A7
:101AA00005D01948864202D01848864202D1DDF896
:101AB0000CA001E0DDF808A00AEBCA0000EB0A1058
:101AC00039688900B0FBF1F86420B8FBF0F004013C
:101AD0002009642101FB1080322101EB00106421F8
:101AE000B0FBF1F90120B0EB191F04D16420B8FB61
:101AF000F0F0401C040109F00F0004432C8106B0F3
:101B0000BDE8F0870038014000500140005401401A
:101B100001468888C0F308007047C1F3080282803C
:101B2000704700BFFEE700000FB4054B10B503A9D6
:101B3000044A029800F02AF910BC5DF814FB00007A
:101B400089270008440000200FB47CB50C0009ADC3
:101B500001D0611E00E00021CDE90001064B6A467C
:101B60002946089800F012F9002C02D0009A0021B2
:101B700011707CBC5DF814FB93240008004870478A
:101B8000500000200000000030B583B0044600F093
:101B900017F89FED090B05468DED000B002221463D
:101BA0006846FEF734FD284600F020F89DED000B56
:101BB00003B030BD00000000000000000000000085
:101BC00001480068704700005000002002E008C88B
:101BD000121F08C1002AFAD170477047002001E0A7
:101BE00001C1121F002AFBD17047000001490860A3
:101BF00070470000500000202DE9FF5F82B00021F7
:101C0000DDE90430020DDDF840B0034318D044F69E
:101C10001050A2F2FF3242431514119801281FD030
:101C2000A5EB0B00401C5FEA000A4FF000064E4F88
:101C3000DFF83891B046504615D5CAF1000413E0DC
:101C4000119801244AA3012801D16FEA0B010298DF
:101C5000119AC0E90031C0E9024206B0BDE8F09F28
:101C6000CBF10000DFE704460021404A491842EB6F
:101C70000450CDE9001012E0E00707D032463B46A1
:101C800040464946FEF78BFD8046894632463B4634
:101C900010461946FEF783FD06460F466410002CD9
:101CA000EAD1DDE90401DDE90023BAF1000F06DA2B
:101CB000FEF775FD42464B46FEF771FD05E0FEF767
:101CC00073FB42464B46FEF76FFB04460E4600226E
:101CD000284BFEF7EFFD03D84FF0FF30014607E039
:101CE0000022254B20463146FEF7B7FAFEF7C9FD24
:101CF000102409E0002C0ADB0A220023FEF709FC6D
:101D0000039B30321A55641E50EA0102F2D1641C62
:101D1000039AC4F111031444119A012A03D0012239
:101D200008430DD10AE0084304D000204FF0110B06
:101D3000119072E7A3EB0B056D1E0DE05B4504DD12
:101D40004FF0000205F1010504E003DA4FF0000254
:101D5000A5F10105002AECD002981199C0E90231E1
:101D6000C0E9004579E70000000014400000F03FA2
:101D7000300000000000F0430000E03F30380A2847
:101D800001D2012070470020704700002DE9FF4F6D
:101D900095B09A46884606460025EEE1252877D17B
:101DA00000242746F94A0121039400E0044316F871
:101DB000013F203B01FA03F01042F7D130782A2886
:101DC00011D06FF02F033078A0F13002092A16D815
:101DD000039A44F0020402EB820203EB4202104435
:101DE000761C0390EFE758F8042B0392002A03DADD
:101DF000504244F40054039044F00204761C3078BE
:101E00002E2816D116F8010F44F004042A280DD00C
:101E10006FF02F023078A0F13003092B09D807EBBF
:101E2000870302EB4303C718761CF3E758F8047BDB
:101E3000761C30786C280FD006DC4C2817D0682828
:101E40000DD06A2814D104E0742810D07A280FD15C
:101E50000DE044F400140AE044F4801401E044F47A
:101E600040147278824202D104F58014761C761CEC
:101E7000307866280BD013DC582877D009DC00288E
:101E800075D04528F6D04628F4D047281AD193E1DA
:101E900018E0632835D0642879D0652812D18BE109
:101EA000702873D008DC6728F1D069286FD06E28BD
:101EB0000DD06F2806D1ACE073282CD0752874D0D3
:101EC000782853D05246179990476D1C54E1C4F3BB
:101ED0000250022809D003280DD0D8F80010042899
:101EE0000DD00D6008F1040846E1D8F80010EA179B
:101EF000C1E90052F6E7D8F800100D80F2E70D7046
:101F0000F0E718F8041B8DF8001000208DF8010090
:101F1000EB46012003E058F804BB4FF0FF306107A7
:101F20004FF0000102D40DE009F101018946B942E8
:101F30000FDA8145F8DB1BF809100029F4D108E01D
:101F400009F1010189468142FADB1BF809100029D9
:101F5000F6D103985346A0EB090721463846179A55
:101F600000F080FA284400EB090507E044E008E1AE
:101F70000DE01BF8010B524617999047B9F1010982
:101F8000F7D2534621463846179AF2E039E00A2143
:101F9000C4F302524FF0000B0091022A06D058F809
:101FA000040BC117032A09D00AE023E008F1070057
:101FB00020F00702F2E80201904605E000B2C117E6
:101FC000042A01D140B2C117002906DA0A460021CD
:101FD000404261EB02012D2202E0220504D52B22B2
:101FE0008DF80420012203E0E20701D02022F7E768
:101FF000914657E00A2100E010214FF0000B0091BC
:102000000BE010214FF0000B44F00404082700916E
:1020100003E008204FF0000B0090C4F30252022AA4
:1020200005D058F8040B0021032A08D008E008F175
:10203000070020F00702F2E80201904603E080B2B8
:10204000042A00D1C0B24FF0000922072AD5327805
:10205000702A07D0DDF800C08CF0100C5CEA0B0C85
:1020600005D00EE040228DF80420012208E050EA5D
:10207000010306D030238DF804308DF805200222AC
:102080009146009B83F0080353EA0B030AD150EA00
:10209000010201D1620705D530228DF804204FF0EE
:1020A00001097F1E3278582A04D039A20C920CAA5A
:1020B00002920BE03BA2F9E75B46009AFEF729FA91
:1020C0000C9B9B5C029A521E0292137050EA010212
:1020D000F2D1029804A9081A00F1200B600702D57A
:1020E00024F4803400E001275F4502DDA7EB0B00FC
:1020F00000E0002000EB0B01009003984944401AD7
:102100000390E00306D453462146179A039800F043
:10211000A9F90544002706E001A85246C05D1799B9
:1021200090476D1C7F1C4F45F6DBE0030CD55346F2
:102130002146179A039800F095F9054404E03020F1
:102140005246179990476D1C0099481E009000292F
:10215000F5DC08E00298029952460078491C029189
:10216000179990476D1CBBF10001ABF1010BF1DC3D
:102170005BE100F065F90544761C307800287FF4B7
:102180000DAE19B02846BDE8F08F00000928010007
:1021900030313233343536373839616263646566DD
:1021A000000000003031323334353637383941429F
:1021B0004344454600000000600700D4062708F1AC
:1021C000070020F00700F0E80223804603F0004CEF
:1021D0005FEA0C0001D097A009E0200501D596A088
:1021E00005E0E00701D095A001E0AFF24C001390AC
:1021F000307823F0004365280CD006DC452809D050
:1022000046281DD047287FD13BE0662818D0672894
:102210007AD136E00021112F01DB112000E0781C7B
:10222000CDE9000104A90CA8FFF7E6FCDDE90D01EA
:102230000C9A4FF0000B07F10109109200914EE04B
:102240004FF000400097CDE9011004A90CA8FFF75A
:10225000D3FCDDE90D020C9B0F994FF0000B91466A
:102260001093009211B9791C00EB0109B7EB09003A
:1022700003D4C0F1FF3B07F10109A9EB070001906E
:1022800042E0012F00DA01270021112F01DD11208A
:1022900000E03846CDE9000104A90CA8FFF7ACFC2A
:1022A000DDE90D010C9A00914FF0000BB946109238
:1022B00021070FD4009A4A4503DA914601E0A9F1BB
:1022C0000109B9F1010F05DD109AA9F10101515C75
:1022D0003029F4D0B84202DA10F1040F03DA0121F8
:1022E000CDE9011010E0002803DC8344A9EB0001D4
:1022F00002E0411C494500DD8946A0EB0B00401C73
:1023000001904FF000400290200705D40198484505
:1023100002DB4FF0FF30019000208DF84B00029857
:102320000DF14B07B0F1004F25D002200C902B206F
:102330000D90029800280CDA404202902D200D905A
:1023400007E00A210298FEF7CEF83031029007F834
:10235000011D0C99481E0C900029F2DC02980028FF
:10236000EFD1791E0D980870307800F0200040F011
:10237000450007F8020D11A8C01BC01D029013985C
:10238000007800B1012000EB0901019801EBE07138
:10239000029801440398401A401E0390E00306D4BB
:1023A00053462146179A039800F05CF805441398A9
:1023B000007818B15246179990476D1CE00323D559
:1023C00053462146179A039800F04CF805441BE049
:1023D000BBF1000F07DB0098584504DD10981799F2
:1023E00010F80B0001E017993020524690470198F1
:1023F0000BF1010B401E05F10105019004D12E20C7
:102400005246179990476D1CB9F10001A9F10109D5
:10241000DEDC05E017F8010B5246179990476D1C5A
:102420000299481E02900029F4DC53462146179A6F
:1024300003989EE62D0000002B0000002000000005
:102440002DE9F041044600251E461746880404D4B1
:1024500005E039462020B0476D1C641EF9D528469A
:10246000BDE8F0812DE9F041044600251E46904666
:10247000C80301D5302700E02027880404D505E0F3
:1024800041463846B0476D1C641EF9D52846BDE864
:10249000F0814A68002A06D00A68531C0B6010704D
:1024A0004868401E4860704710B50020104981F808
:1024B000500081F8510081F8780050210C48FDF758
:1024C000A2FE0B48523000210160416001818172FF
:1024D0000B3001604160018181725D38A0F86810A5
:1024E0006A300160416081606A38A0F8761010BDE2
:1024F000540200200146114A12684A434FF0E0237B
:102500005A6100229A611A46126942F001021A6168
:1025100000BF4FF0E022106900F001021AB100F490
:102520008032002AF5D04FF0E022126922F0010239
:102530004FF0E0231A6100229A6170471C000020CE
:10254000044603E0214602A0FFF7EEFAFAE7000096
:102550004552524F5225640D0A00000010B5044642
:102560000948007868B1094909A0FFF7DDFA21465A
:102570000648FDF753FE08B1012010BD00200249B6
:1025800008700020F9E700002E0000205400002011
:102590007561727420726563763A2025730D0A00A6
:1025A0000021054A118000BF0A2190FBF1F1024A87
:1025B00012889142F8DC70473000002070B5044664
:1025C0000D461148007880B9214610A0FFF7ACFAFB
:1025D00000F09CF8204600F0C9F80A2095FBF0F0C6
:1025E0000C4908800120084908700B48007840B168
:1025F0000020094908700449087008490880012032
:1026000070BD0020FCE70000320000202025730D83
:102610000A000000360000203800002034000020AE
:1026200070B504460D461248007880B9214611A0C5
:10263000FFF77AFA00F06AF8204600F097F80A20CF
:1026400095FBF0F00F4908800120094908700E48F9
:10265000007810B90D48007840B100200A49087090
:10266000034908700A490880012070BD0020FCE77A
:1026700032000020756172742073656E643A202503
:10268000730D0A0036000020380000202E000020C4
:102690003400002015480088401C14490880144864
:1026A000007888B113480088401C12490880084609
:1026B00000880A2808DD00200D49087001200E4915
:1026C000087000200B4908800C48007868B10C485D
:1026D00000880C490988884202DD01200A490870F7
:1026E00007480088401C06490880704730000020D9
:1026F0002A0000202C0000202E00002032000020A4
:1027000034000020360000203800002010B50020E2
:1027100004490880044908704FF400710348FDF72C
:1027200072FD10BD280000202E0000205400002063
:102730000121094A11700021084A118008490988BD
:10274000B1F5007F07DA06490A880988491C044B5D
:1027500019800449885470472A0000202C0000206A
:1027600028000020540000207047000010B50446E7
:1027700004E014F8010B0349096888472078002811
:10278000F7D110BD2400002070B504460D46A1B25B
:102790000748FFF7C2F900BF40210548FFF71DF9C0
:1027A0000128F9D120210248FFF7CEF8204670BD5C
:1027B0000050004010B54FF4A060FEF765FD90207A
:1027C000FEF718FF00F018F800F0DCFC4FF4E130E1
:1027D000FFF704F800F04AFE4FF4165000F0BAFE7E
:1027E000FFF762FE0A2000F005FE024800F0FCFD43
:1027F00010BD00003535000808B501210420FEF7A2
:102800005DFD10208DF8030003208DF802004FF4C9
:102810008070ADF8000069460148FEF76BFC08BD0A
:1028200000080140FFF7C6FF08E000F027FC00F0B9
:10283000D7FC6420FFF75EFE00F03CF8F5E70000EF
:102840002DE9FC4781460D461646002700200090E2
:1028500001900024804615A14846FDF7DFFC0446A0
:1028600014B90020BDE8FC87641D00E0641C2078DA
:102870003028FBDB20783928F8DCA04600E0641C17
:1028800020782C28FBD1A4EB080241466846FDF7CE
:10289000A1FC6846FDF7D4FC0746AF4203DBB74214
:1028A00001DC0120DEE70020DCE700002B43535170
:1028B0003A00000010B500243E480068032846D0C6
:1028C00005DC58B1012813D002286FD130E004286C
:1028D0004CD0052852D0FF2868D160E041F2883101
:1028E00035A0FFF76BFE10B10120324908605EE0B1
:1028F00041F2883133A0FFF761FEC0B133A0FFF78A
:102900002DFE48B132A0FFF70FF9002032490870C0
:102910000220284908600AE02F4801780078401C0E
:102920002D4A10700A2902DDFF20224908603EE08E
:1029300000F0BCFA0446FE2C03D103201D490860B8
:1029400004E0FF2C02D105201A4908602FE000F0B6
:1029500047F80446FE2C03D104201649086004E021
:10296000FF2C02D105201349086020E000F038F95F
:10297000FF2802D105200F49086018E000F0DAF9BD
:102980000446022C02D10B49086007E0FF2C05D158
:10299000002012490870FF200649086007E0002067
:1029A0000D4908700349086001E0FFE700BF00BF60
:1029B00010BD00004000002041542B5253540D0A1A
:1029C0000000000041540D0A000000004F4B0000C1
:1029D000B1EABCC7000000003E0000203F0000201C
:1029E00010B54D480078032868D005DC48B10128AF
:1029F00026D0022873D142E0FE287ED0FF28F9D1EC
:102A000080E04FF47A7145A0FFF7D8FDB8B14AA035
:102A1000FFF7A4FD40B10020484908703E48007807
:102A2000401C3D4908700AE0444801780078401C89
:102A3000424A10700A2902DDFF203749087067E01A
:102A40004FF47A713EA0FFF7B9FDB8B147A0FFF788
:102A500085FD40B10020394908702F480078401C9E
:102A60002D4908700AE0354801780078401C334A47
:102A700010700A2902DDFF202749087048E04FF452
:102A8000FA613E48FFF79AFDB8B13DA0FFF766FD39
:102A900040B10020294908701F480078401C1E4999
:102AA00008700AE0254801780078401C234A10701D
:102AB0000A2902DDFF201849087029E04FF47A71D5
:102AC00033A0FFF77BFDB8B140A0FFF747FD40B151
:102AD00000201A490870FE200F4908700CE016E02B
:102AE0000BE0164801780078401C144A1070052944
:102AF00002DDFF20084908700AE00020064908703E
:102B0000FE2010BD002004490870FF20F9E700BF37
:102B100000BF0020F5E700003C00002041542B518D
:102B20004D544346473D2276657273696F6E222C81
:102B3000302C340D0A0000004F4B00003E000020F6
:102B400041542B514D544F50454E3D302C226D7108
:102B50007474732E6865636C6F7564732E636F6D28
:102B6000222C313838330D0A000000002B514D540F
:102B70004F50454E3A20302C3000000008370008F6
:102B80002B514D54434F4E4E3A20302C302C3000B8
:102B900041542B514D545355423D302C312C22245D
:102BA0007379732F4F317250793534385A502F67FB
:102BB000707367756964652F64702F706F73742FFD
:102BC0006A736F6E2F2B222C300D0A002B514D543F
:102BD0005355423A20302C312C302C30000000006C
:102BE00010B5C4B000243648007820B1012821D0A7
:102BF000FF2860D159E04FF47A7132A0FFF710FD41
:102C0000B8B13FA0FFF7AAFC40B100203D490870D1
:102C10002B480078401C2A4908700AE0394801789E
:102C20000078401C374A1070032902DDFF20244938
:102C3000087041E04FF4807104A8FDF7E4FA3248CF
:102C400090ED000B8DED020B304890ED000B8DEDFB
:102C5000000B2F4A4FF4807104A8FEF775FF04A9FA
:102C60002CA0FEF761FF41F2883104A8FFF7D8FCE1
:102C70001A212B48FEF751FF6420FFF791FC29A091
:102C8000FFF76CFC28B100201E4908700C49087041
:102C90000AE01C4801780078401C1A4A1070052987
:102CA00002DDFF200649087006E000200449087094
:102CB000FF2044B010BD00BF00BF0020F9E70000B6
:102CC0003C00002041542B514D545055423D302C76
:102CD000302C302C302C22247379732F4F317250CA
:102CE000793534385A502F67707367756964652F6A
:102CF00064702F706F73742F6A736F6E220D0A00E9
:102D00003E0000003E0000200800002010000020CF
:102D1000AC3700087374723A25730D0A0000000086
:102D2000004400402B514D545055423A20302C3035
:102D30002C30000010B54148007803284BD005DC4A
:102D400048B1012817D0022874D125E004284DD0BD
:102D5000FF286FD168E03A480078401C3849087075
:102D600036480078401C354908703548017835A050
:102D7000FEF7DAFE5FE032480078022806D137A07D
:102D8000FEF7D2FEFF202D49087004E02B480078A2
:102D9000401C2A4908704EE04FF4FA6137A0FFF753
:102DA0000DFCB8B138A0FFF7D9FB40B1002037497E
:102DB000087022480078401C204908700AE0334817
:102DC00001780078401C314A1070052902DDFF208F
:102DD0001A4908702FE041F2883000F00FFC20B152
:102DE00016480078401C1549087024E04FF4FA6139
:102DF00027A0FFF7E3FBB0B123A0FFF7AFFB38B18B
:102E000026A0FEF791FE00200C490870022010BD9C
:102E10001E4801780078401C1C4A1070052902DD0C
:102E2000FF200649087006E0002004490870FF20D2
:102E3000EDE7FFE700BF00BF0020E8E73C0000200F
:102E40003F000020BDF8C8EBB7C9D0D0C4A3CABDAD
:102E5000B4CECAFDA3BA25640D0A0000B5DAB6FEE9
:102E6000B4CEBDF8C8EBB7C9D0D0C4A3CABDA3AC1B
:102E7000B8B4CEBBC4A3BFE90D0A000041542B4334
:102E800046554E3D300D0A004F4B00003E000020DD
:102E900041542B4346554E3D310D0A00D4D9BFAAAB
:102EA000C6F4B9A6C4DC0D0A0000000010B55A48EB
:102EB0000078032872D005DC48B1012826D002280A
:102EC0006DD142E0FE286BD0FF28F9D196E04FF497
:102ED0007A7152A0FFF772FBB8B152A0FFF73EFB28
:102EE00040B10020504908704B480078401C4A49C6
:102EF00008700AE04C4801780078401C4A4A10707B
:102F00000A2902DDFF204449087082E04FF47A71FB
:102F100046A0FFF753FBB8B147A0FFF71FFB40B136
:102F20000020414908703C480078401C3A4908702C
:102F30000AE03D4801780078401C3B4A10700A299D
:102F400002DDFF203449087063E040F6B8313EA04E
:102F5000FFF734FB08B333A0FFF700FB28B33DA015
:102F6000FFF7FCFA58B1304801780078401C2E4A2F
:102F700010701E2924DDFF202749087020E01F2241
:102F80000F213748FFF75CFC58B100202649087034
:102F900021480078401C2049087011E011E037E01A
:102FA00031E0FF201C4908700AE01F4801780078D2
:102FB000401C1D4A10701E2902DDFF2016490870B2
:102FC00027E04FF47A7127A0FFF7F8FAA8B128A0FC
:102FD000FFF7C4FA30B1002013490870FE200E49F3
:102FE00008700AE0104801780078401C0E4A107002
:102FF0001E2902DDFF20084908700AE0002006496A
:103000000870FF2010BD002003490870FE20F9E77A
:1030100000BF00BF0020F5E73C00002041544530D0
:103020000D0A00004F4B00003E00002041542B438E
:1030300050494E3F0D0A00002B4350494E3A205252
:10304000454144590000000041542B4353510D0A9F
:10305000000000002B4353513A2039392C393900F4
:103060005400002041542B43474154543F0D0A0063
:103070002B43474154543A2031000000F8B5002654
:10308000394890F8500000286CD00020364981F86B
:10309000500036A0FEF748FD3348FEF745FD00BF5F
:1030A0005EE046B936A13048FDF7B8F8041E55D1A8
:1030B0000120FFF745FA641C31A12046FDF7AEF868
:1030C000051E48D0072E2ED2DFE806F02D040B1186
:1030D000181F26002A1B214623485230FDF77AF894
:1030E00022E02A1B21466846FDF774F81CE02A1BE3
:1030F00021461D485D30FDF76DF815E02A1B21467D
:1031000019486830FDF766F80EE02A1B214616487C
:103110006A30FDF75FF807E02A1B21461248763037
:10312000FDF758F800E000BF00BF2C4601200E4913
:1031300081F851009DF80000412803D1012081F859
:10314000780007E09DF80000562803D100200649CA
:1031500081F8780002E00220FFF7F2F9701CC6B295
:10316000062E9EDDF8BD0000540200202A2A2A2ADD
:103170002A2A2A2A2A2A2A2A2A2A0D0A0000000094
:103180002C00000008B501210820FEF797F8102058
:103190008DF8030003208DF802004FF40040ADF8D5
:1031A000000069460D48FDF7A5FF10208DF80300CB
:1031B00003208DF802004FF48050ADF800006946FE
:1031C0000648FDF797FF4FF400410448FEF71DF84D
:1031D0004FF480510148FEF718F808BD000C01407B
:1031E00010B52DED0C8B574890F8510000287CD07D
:1031F0000020544981F8510053A0FEF795FC514836
:103200005230FEF791FC56A0FEF78EFC4D4890F828
:10321000780000286AD000204A4981F8780051A03F
:10322000FEF782FC47485D30FEF77EFC4CA0FEF7BF
:103230007BFC52A0FEF778FC42486830FEF774FC35
:1032400047A0FEF771FC3F485D30FEF79DFCB0EEF5
:10325000408AF0EE608A51EC180BFDF725F96421E5
:1032600090FBF1F000FB01F42046FDF70CF953EC64
:10327000182BFDF796F89FED460B53EC102BFDF73E
:1032800093F841EC1A0B51EC180BFDF70DF9642182
:1032900090FBF1F42046FDF7F6F853EC1A2BFCF7FF
:1032A000DCFF3D4A03C23DA0FEF73EFC25486A30E4
:1032B000FEF73AFC2AA0FEF737FC3EA0FEF734FCEE
:1032C00020487630FEF730FC25A0FEF72DFC1D4887
:1032D0006A30FEF759FCB0EE409AF0EE609A51EC7D
:1032E000190BFDF7E1F8642101E027E023E090FBF2
:1032F000F1F000FB01F42046FDF7C5F853EC192B63
:10330000FDF74FF89FED220B53EC102BFDF74CF817
:1033100041EC1A0B51EC190BFDF7C6F8642190FB38
:10332000F1F42046FDF7AFF853EC1A2BFCF795FFAC
:10333000254A03C202E025A0FEF7F6FBBDEC0C8B8C
:1033400010BD000054020020536176655F44617433
:10335000612E55544354696D65203D2000000000E6
:103360000D0A0000536176655F446174612E6C61E3
:10337000746974756465203D2000000053617665B2
:103380005F446174612E4E5F53203D2000000000B9
:103390000000000000004E400800002053617665E8
:1033A0005F446174612E6C6F6E676974756465202B
:1033B0003D200000536176655F446174612E455F76
:1033C00057203D20000000001000002047505320EF
:1033D00044415441206973206E6F74207573656693
:1033E000756C6C210D0A000008B101490860704736
:1033F0002400002010B586B0044601210846FDF7E0
:103400004DFF04EB4400C0EBC4100121C1EBC00030
:1034100080B2ADF80C004720ADF808000020ADF8F0
:103420000E00ADF80A0002A94FF08040FEF72AF91D
:103430004FF4A060FDF728FF1C208DF80400012048
:103440008DF8050000208DF8060001208DF807009A
:1034500001A8FDF7E1FE012211469007FEF7ECF806
:1034600001218807FEF7F1F806B010BD00B587B05E
:1034700001210820FDF722FF01214804FDF70EFF7E
:1034800001212848FDF71CFD01212748FDF718FD03
:1034900018208DF81B0003208DF81A001020ADF8BD
:1034A000180006A92148FDF725FE04208DF81B0011
:1034B00003208DF81A002020ADF8180006A91B483B
:1034C000FDF718FE4FF4E13002900020ADF8140033
:1034D0000C20ADF812000020ADF81000ADF80E0081
:1034E000ADF80C0002A91248FEF7AEFA26208DF8BE
:1034F000040000208DF8050002208DF80600012050
:103500008DF8070001A8FDF787FE012240F2255142
:103510000748FEF731FA01210548FEF752FA07B0D5
:1035200000BD00000001300008002046000C0140F2
:103530000044004010B5044621460548FEF7EDFA68
:1035400000BF40210248FEF748FA0028F9D010BD1C
:103550000044004010B586B00446012144F2080042
:10356000FDF7ACFE4020ADF8140003208DF81600E6
:1035700018208DF8170005A91E48FDF7BBFD802017
:10358000ADF8140004208DF8170005A91948FDF7BF
:10359000B1FD25208DF8000002208DF801008DF886
:1035A000020001208DF803006846FDF735FE019406
:1035B0000020ADF80800ADF80A00ADF80C00ADF839
:1035C00010000C20ADF80E0001A90B48FEF73CFAE4
:1035D00001210420FDF774FC012240F22551064828
:1035E000FEF7CAF901210448FEF7EBF9FDF758FC94
:1035F00006B010BD000C01400038014001460C48E7
:10360000007838B90A2091FBF0F00A4A10800120B6
:10361000074A10700848007840B10020064A107030
:10362000034A1070054A1080012070470020FCE713
:103630003200002036000020380000203400002036
:103640000000000001020304010203040607080948
:1036500001020406080A0C1020202020202020202F
:10366000010002000400060008000A000C0010001F
:103670002000400080000001000100010001000165
:103680000040404040404040404041414141414075
:10369000404040404040404040404040404040402A
:1036A00040050202020202020202020202020202B9
:1036B00002202020202020202020200202020202BE
:1036C0000202909090909090101010101010101016
:1036D0001010101010101010101010100202020222
:1036E0000202888888888888080808080808080866
:1036F0000808080808080808080808080202020262
:10370000400000008136000841542B514D54434F76
:103710004E4E3D302C67707367756964652C4F3170
:103720007250793534385A502C76657273696F6EE1
:103730003D323031382D31302D3331267265733DB5
:1037400070726F64756374732532464F31725079AD
:103750003534385A50253246646576696365732579
:10376000324667707367756964652665743D3230EB
:103770003532393134363431266D6574686F643DC5
:103780006D6435267369676E3D7725324233434C4D
:10379000316B7852323167364D6C51397A4C38532F
:1037A00077253344253344200D0A00007B226964C9
:1037B000223A203132332C226470223A207B226C50
:1037C0006F636174696F6E223A205B7B2276223AC6
:1037D0007B226C6F6E223A20252E366C662C226C72
:1037E0006174223A20252E366C667D7D5D7D7D00DC
:1037F000103800080000002054000000CC1B000816
:10380000643800085400002044170000DC1B000846
:1038100000449508000000000000000000000000C7
:103820000000000000000000000000000000000098
:1038300000000000692700080000000000000000F0
:103840000000000000000000000000000000000078
:103850000000000000000000000000000000000068
:043860000000000064
:040000050800019955
:00000001FF
