:020000040800F2
:10000000480C002049010008F91C0008591000089C
:10001000F51C0008370B000843280008000000000A
:100020000000000000000000000000001D2100088A
:100030003B0B000800000000811D0008272200087B
:100040006301000863010008630100086301000800
:1000500063010008630100083D0B0008850B0008E0
:100060006301000863010008D50B00086301000864
:1000700063010008630100086301000863010008D0
:1000800063010008630100086301000863010008C0
:1000900063010008630100086301000863010008B0
:1000A00063010008630100086301000863010008A0
:1000B0006301000863010008630100086301000890
:1000C0006301000863010008630100086301000880
:1000D00063010008A525000863010008630100080A
:1000E0006301000863010008630100086301000860
:1000F0006301000863010008630100086301000850
:10010000630100086301000863010008630100083F
:1001100079240008630100086301000863010008F6
:10012000630100086301000863010008630100081F
:10013000DFF810D000F072FB00480047A937000834
:10014000AFF30080480C002006488047064800476F
:10015000FEE7FEE7FEE7FEE7FEE7FEE7FEE7FEE777
:10016000FEE7FEE7292200083101000840EA01030A
:100170009B0703D009E008C9121F08C0042AFAD25D
:1001800003E011F8013B00F8013B521EF9D2704721
:10019000D2B201E000F8012B491EFBD270470022C9
:1001A000F6E710B513460A4604461946FFF7F0FF76
:1001B000204610BD30B505462A460B4612F8010B05
:1001C00013F8014B08B1A042F8D01CB1002802D0AE
:1001D0006D1CF1E7284630BD421C10F8011B0029B8
:1001E000FBD1801A704770B5064602F0B3FD046873
:1001F00005460A220021304600F04BFA2C6070BD03
:100200002DE9FE4F804681EA0300C00F0C460090A6
:1002100021F0004123F00045B8EB0200A94105D2CE
:100220004046214690461C460B46024623F00040BD
:10023000104347D0270DC7F30A00C3F30A510290B9
:10024000401A019040286BDAC3F3130040F4801B7E
:100250000098924620B10023D2EB030A63EB0B0B0C
:1002600001985946C0F14002504600F0E1F90646B7
:100270000D4650465946019A00F0F9F910EB080076
:100280006141002487EA115284EAE7731A4340D09F
:10029000009A62B3019A012A4FEA075215DC001B4B
:1002A00061EB02014FF0004202EA0752CDE9004241
:1002B000001C41F5801132462B4600F031FA03B0A4
:1002C000BDE8F08F40462146F9E7001B61EB0201D3
:1002D000001C41F5801300185B412018A2F500179F
:1002E00047EB030140EAD570B6196D4111E06D0886
:1002F0004FEA360645EAC0754FEA0752001B61EB2C
:100300000201001C41F5801149084FEA3000001934
:10031000514132462B4603B0BDE8F04F00F0F1B931
:100320000098012240000023D0EB020263EBE0734F
:10033000009821464FEAE074B8EB000061EB04013D
:10034000E9E783F000435BE781F0004158E72DE9DE
:10035000FE4F81EA030404F0004421F000410094C0
:100360004FF0000B23F0004350EA01045ED052EA44
:1003700003045BD0C3F30A54C1F30A552C44A4F21E
:10038000F3340194A0FB0254C1F3130141F4801132
:10039000C3F3130343F4801301FB024400FB034E39
:1003A000840A970A44EA815447EA8357A4FB076802
:1003B00002958D0A05FB07854FEA932C04FB0C542C
:1003C0002705029D4FEA065847EA1637B5EB0805A0
:1003D0006EEB070C870E920E47EA811742EA8312F2
:1003E000A7FB0201B6EB0B0164EB00042B0D43EA03
:1003F0000C335E1844EB1C50DA465146E7FB020111
:10040000C5F313044FEA0B3343EA14534FEA0432A3
:10041000019C43EA0603A4F10C040294009CCDE97C
:1004200000B400F07DF903B0BDE8F08F0020014674
:10043000F9E72DE9F04D81EA030404F0004B21F0C7
:10044000004514464FF0000A23F0004150EA05022F
:1004500020D054EA01021DD0C5F30A570246C5F365
:100460001303C1F31300C1F30A5640F4801543F49B
:100470008013A7EB0608101BD64608F2FD3873EB75
:10048000050002D308F1010801E092185B41B8F1C0
:10049000000F03DA00200146BDE8F08D00204FF484
:1004A0008011064684460EE0171B73EB050705D343
:1004B000121B63EB050306434CEA010C49084FEAA3
:1004C000300092185B4150EA0107EDD152EA030077
:1004D00012D082EA040083EA0501084305D0101B0C
:1004E000AB4106D20122002306E000224FF0004378
:1004F00002E06FF0010253101AEB06004CEB0851BA
:1005000010EB0A0041EB0B01BDE8F04D00F0F9B82B
:100510000EB5C10F80EAE0700844CA07002140F21E
:1005200033438DE80E000A460B4600F0F9F803B09D
:1005300000BD70B5C1F30A5201F000450024C1F3BB
:10054000130140F2FF3341F480119A4201DA002096
:1005500070BD40F233439A42A2F2334203DC52426E
:1005600000F075F800E090402C43F1D0404270BD9F
:10057000C1F30A5210B5C1F3130140F2FF3341F445
:1005800080119A4201DA002010BD40F233439A42B2
:10059000A2F2334203DC524200F059F810BD904001
:1005A00010BD30B50B46014600202022012409E091
:1005B00021FA02F59D4205D303FA02F5491B04FA1C
:1005C00002F52844151EA2F10102F1DC30BD2DE92F
:1005D000F05F0546002092469B46884606468146C7
:1005E00040241BE0284641464746224600F02FF8AB
:1005F00053465A46C01A914110D311461846224616
:1006000000F016F82D1A67EB01084F46224601202C
:10061000002100F00DF817EB00094E41201EA4F157
:100620000104DFDC484631462A464346BDE8F09FD8
:10063000202A04DB203A00FA02F1002070479140A2
:10064000C2F1200320FA03F3194390407047202A97
:1006500004DB203A21FA02F00021704721FA02F36C
:10066000D040C2F120029140084319467047202A29
:1006700006DBCB17203A41FA02F043EAE07306E0CA
:1006800041FA02F3D040C2F12002914008431946DA
:1006900070472DE9F04791460F46804604460026F4
:1006A00014F8015B2DB100F0CBF80068405DC00785
:1006B000F6D12B2D02D02D2D18D0641E4A46394676
:1006C000204600F0C1F827B13968A14201D1C7F82E
:1006D000008071054FF002040BD54042002803DD75
:1006E00002F038FB0460A007BDE8F08746F480669E
:1006F000E4E70028F8DA02F02DFB04606FF0004018
:10070000F2E710B5141E73F1000408DA401C41F141
:10071000000192185B411A4301D120F0010010BD85
:100720002DE9F04D92469B4611B1B1FA81F202E0FB
:10073000B0FA80F220329046FFF77AFF04460F4667
:1007400040EA0A0041EA0B0153465A46084313D0D7
:10075000114653EA010019D0C8F140025046FFF794
:1007600076FF05460E46504659464246FFF760FF63
:10077000084305D0012004E020463946BDE8F08D4D
:100780000020054346EAE0762C4337430A98630588
:10079000E40AA0EB08000022FD0A44EA47540A30AC
:1007A00002D500200146E9E7010510196941DDE99C
:1007B000084500196941BDE8F04DA2E7C1F30A52AE
:1007C000C1F3130140F2FF3341F480119A4202DA7F
:1007D00000200146704740F233439A42A2F233426E
:1007E00002DC5242FFF733BFFFF722BF30B5041ED1
:1007F00071F1000404DB4FF00044404264EB01015E
:10080000141E73F1000405DB1C464FF000435242F6
:1008100063EB0403994208BF904230BD064C074D7C
:1008200006E0E06840F0010394E8070098471034C0
:10083000AC42F6D3FFF780FC485B0008685B000819
:1008400000487047A45800082DE9F05F8246007800
:10085000002715468B460AF10104B946302801D01D
:100860009DB113E014F8010B0127782803D0582814
:1008700001D045B10AE00DB1102D07D10027102598
:1008800014F8010B02E0082500E00A250026B04616
:100890000EE005FB080005FB06F1012701EB104601
:1008A0001FFA80F8B6F5803F00D3B94614F8010B63
:1008B000294600F018F80028EBDABBF1000F05D04C
:1008C0000FB1641E00E05446CBF80040B9F1000FB0
:1008D00006D002F03FFA02210160C81EBDE8F09F79
:1008E00048EA0640FAE73A2800D2303820F02002E1
:1008F000412A01D3A2F13700884201D34FF0FF30E3
:100900007047000000B587B0012140F2052001F0DA
:1009100055FA4FF4004001F035FA00208DF8070039
:100920000420ADF8040001A91C4800F0FFF90120E3
:100930008DF80D00002005904FF4602004900020F9
:10094000029001208DF8180000208DF80C0002A9FB
:10095000134800F057F8072301220221104800F045
:1009600079F801210E4800F020F80D4800F0CEF88B
:1009700000BF0B4800F03BF80128FAD0084800F00F
:10098000D5F803E00121064800F0C5F8044800F05E
:1009900017F80128F6D007B000BD0000000801409C
:1009A00000240140CA430260704721B1826842F0CE
:1009B0000102826003E0826822F0010282607047D7
:1009C000014600208A6802F004020AB1012000E01A
:1009D000002070470146C86C80B270470246002074
:1009E00013680B400BB1012000E000207047014666
:1009F00000208A6802F008020AB1012000E000200D
:100A00007047000030B502460020002350680F4CAC
:100A100020400D790C6844EA05242043506090681A
:100A20000B4C2040D1E902542C434D7944EA450453
:100A300020439060D06A20F470000C7C641EE4B205
:100A4000234340EA0350D06230BD0000FFFEF0FFB8
:100A5000FDF7F1FFF0B504460D4600200021092DF9
:100A600011DDE068A5F10A0606EB4607072606FA3F
:100A700007F18843A5F10A0606EB460603FA06F1DC
:100A80000843E0600CE0206905EB4507072606FAFD
:100A900007F1884305EB450603FA06F10843206198
:100AA000072A0FDA606B561E06EB86071F2606FA2A
:100AB00007F18843561E06EB860605FA06F1084341
:100AC000606322E00D2A0FDA206BD61F06EB860743
:100AD0001F2606FA07F18843D61F06EB860605FA9D
:100AE00006F10843206310E0E06AA2F10D0606EB70
:100AF00086071F2606FA07F18843A2F10D0606EBCA
:100B0000860605FA06F10843E062F0BD816841F00F
:100B100008018160704721B1826842F4A0028260BE
:100B200003E0826822F4A00282607047816841F08D
:100B300004018160704700BFFEE7704710B50120D7
:100B400000F076F801280FD100F06CF8142002F0C4
:100B5000B3FD0648006838B1012005490870054911
:100B6000087005A002F0A6F810BD000000012142A7
:100B7000280000200A0000204B45595F31B0B4CF57
:100B8000C20A000010B5022000F052F8012813D16B
:100B9000022000F047F8142002F08EFD074800689C
:100BA00050B9022006490870064800886438054993
:100BB000088005A002F07EF810BD0000040121426B
:100BC00028000020080000204B45595F32B0B4CF08
:100BD000C20A000010B5102000F02AF8012813D135
:100BE000102000F01FF8142002F066FD074800688E
:100BF00050B903200649087006480088643005494A
:100C0000088005A002F056F810BD00001001214236
:100C100028000020080000204B45595F33B0B4CFB6
:100C2000C20A000001490860704700001404014036
:100C3000014600200022074B1B6803EA0102054B16
:100C400014331B680B4013B10AB1012000E00020EF
:100C50007047000000040140002123498279002AE6
:100C60003AD00A46126803689A430B461A600A1D76
:100C7000126803689A430B1D1A60027911440A68CE
:100C800003681A430A60184A0832126803689A43D4
:100C9000154B08331A601A1D126803689A43124BE9
:100CA0000C331A604279102A0ED11A1F1268036899
:100CB0001A430D4B08331A601A1D126803681A4351
:100CC000094B0C331A600DE00749427911440A6858
:100CD00003681A430A6005E0027911440A68036850
:100CE0009A430A60704700000004014030B50022BA
:100CF0008B071C0F0F2303FA04F20B4B8C1053F8D5
:100D000024309343084C8D1044F8253023468C1032
:100D100053F824308C07240F00FA04F42343024CC8
:100D20008D1044F8253030BD080001402DE9F04118
:100D3000024600250026002000230024002791F809
:100D400003C00CF00F0591F803C00CF0100CBCF1BF
:100D5000000F03D091F802C04CEA050591F800C0DD
:100D6000BCF1000F31D0146800202BE04FF0010CD3
:100D70000CFA00F3B1F800C00CEA03069E4220D141
:100D800083004FF00F0C0CFA03F7BC4305FA03FC89
:100D90004CEA040491F803C0BCF1280F06D14FF0CF
:100DA000010C0CFA00FCC2F814C00AE091F803C070
:100DB000BCF1480F05D14FF0010C0CFA00FCC2F851
:100DC00010C0401C0828D1D31460B1F800C0BCF199
:100DD000FF0F34DD546800202EE000F1080C4FF0C6
:100DE000010808FA0CF3B1F800C00CEA03069E42B1
:100DF00021D183004FF00F0C0CFA03F7BC4305FA26
:100E000003FC4CEA040491F803C0BCF1280F05D19F
:100E100000F1080C08FA0CF8C2F8148091F803C02D
:100E2000BCF1480F07D100F1080C4FF0010808FA97
:100E30000CF8C2F81080401C0828CED35460BDE8DE
:100E4000F0810246002093680B400BB1012000E0C6
:100E50000020704741617047016170470AB101612C
:100E600000E041617047000070B5002510E000BF50
:100E700002210B48FFF7B2FD0128F9D10848FFF71E
:100E8000A9FD204484B202210548FFF78BFD6D1CAB
:100E90000A2DECDB0A2094FBF0F080B270BD00005C
:100EA000002401402DE9F84F0746884693469A46AC
:100EB000DDF828900097B3E099F8000080283DDA2B
:100EC00099F800600D2E05D1009F08F110001FFA5F
:100ED00080F830E0202E03DDA6F1200086B200E08D
:100EE0000026002422E000251CE004EB06105049F7
:100EF000085C80212941084040B108EB040291B20E
:100F00007A1990B25A4600F097F809E0D34507D015
:100F100008EB040291B27A1990B2524600F08CF8B4
:100F2000681CC5B2082DE0DB601CC4B2102CDADBF3
:100F300007F1080087B209F1010971E0002668E0B5
:100F400006EB06103B4911F8100099F80010884292
:100F50005DD106EB0610374901EB4000407899F867
:100F60000110884253D100244FE0002520E006EB19
:100F70000610304901EB4000801C10F8141080204E
:100F80002841014041B108EB040291B27A1990B2B4
:100F90005A4600F051F809E0D34507D008EB0402A7
:100FA00091B27A1990B2524600F046F8681CC5B268
:100FB000082DDCDB002524E006EB06101D4901EBC3
:100FC0004000801C012101EB4401405C802129414B
:100FD000084048B108EB040291B27A19083290B285
:100FE0005A4600F029F80AE0D34508D008EB04027D
:100FF00091B27A19083290B2524600F01DF8681C7E
:10100000C5B2082DD8DB601CC4B2102CADDB701C3F
:1010100086B2322E94DB09F1020907F1100087B283
:1010200099F8000000287FF447AFBDE8F88F000072
:10103000483E0008BA4B000870B504460D461646F7
:10104000681C83B2601C82B22946204600F0FEFD77
:10105000304600F0A9FC70BD00BFFEE710B54FF4AC
:10106000A06000F083FE482001F00EF94FF4E1305B
:1010700001F0B2FA00F0B8F900F0D8F900F026F863
:1010800000F048F800F014FF00F0BFFC01200E490A
:1010900008604FF6FF7000F09FFCFFF733FC02F092
:1010A00057FB02F0C1FA00F00DFB40F2671163201C
:1010B00002F06AFC4FF4E13001F01CFA01F0D2FCBE
:1010C00002F0E6FC10BD0000100C014008B5012143
:1010D000082000F073FE14208DF803004FF48060A8
:1010E000ADF8000003208DF8020069460848FFF7BC
:1010F0001DFE14208DF803004FF40060ADF80000D1
:1011000003208DF8020069460148FFF70FFE08BD75
:10111000000C014008B50121082000F04FFE04201A
:101120008DF803004002ADF8000003208DF80200A6
:1011300069460248FFF7FAFD08BD0000000C0140B7
:1011400008B50121082000F039FE14208DF80300B5
:101150004FF40060ADF8000003208DF802006946EE
:101160000148FFF7E3FD08BD000C014070B5002405
:10117000FFF7D0FF00251AE06006040E4FF48061EF
:101180000D48FFF767FE012002F0BCFA4FF48061C2
:101190000948FFF761FE012002F0B4FA4FF4006144
:1011A0000548FFF74EFE08B144F001046D1C082D00
:1011B000E2DB204670BD0000000C014010B5FFF7D7
:1011C000BFFF4FF480610F48FFF744FE012002F09B
:1011D00099FA4FF400610B48FFF73CFE012002F042
:1011E00091FA4FF480610748FFF736FE012002F0C4
:1011F00089FA4FF480610348FFF72CFE012002F0CA
:1012000081FA10BD000C014010B5FFF799FF4FF4B3
:1012100080610F48FFF71EFE012002F073FA4FF4C1
:1012200000610B48FFF718FE012002F06BFA4FF443
:1012300080610748FFF710FE012002F063FA4FF4C7
:1012400080610348FFF706FE012002F05BFA10BD43
:10125000000C014010B5FFF773FF4FF48061134895
:10126000FFF7F8FD012002F04DFA4FF400610F483E
:10127000FFF7F2FD012002F045FA4FF480610B48C0
:10128000FFF7EAFD012002F03DFA4FF40061074844
:10129000FFF7E0FD012002F035FA4FF480610348CA
:1012A000FFF7D8FD012002F02DFA10BD000C01401F
:1012B00010B5FFF745FF4FF480611348FFF7CAFDF3
:1012C000012002F01FFA4FF400610F48FFF7C2FD42
:1012D000012002F017FA4FF480610B48FFF7BCFDC4
:1012E000012002F00FFA4FF400610748FFF7B4FD48
:1012F000012002F007FA4FF480610348FFF7AAFDCE
:10130000012002F0FFF910BD000C014010B50024CF
:10131000FFF700FF4FF480611648FFF79BFD0120A7
:1013200002F0F0F94FF480611248FFF795FD0120BB
:1013300002F0E8F90DE0601CC0B204461E2805DD8D
:10134000FFF7FEFEFFF7B4FF002010BD012002F002
:10135000D9F94FF400610748FFF773FD0028EAD17F
:101360004FF480610348FFF775FD012002F0CAF9D0
:101370000120EAE7000C014070B50446FFF7E0FEEB
:1013800000252BE04FF480611648FFF763FD012034
:1013900002F0B8F904F0800028B14FF40061114860
:1013A000FFF75AFD04E04FF400610E48FFF752FDCD
:1013B000012002F0A7F94FF480610A48FFF74CFDC5
:1013C000012002F09FF94FF480610648FFF742FDCB
:1013D000012002F097F96006040E6D1C082DD1DB88
:1013E00070BD0000000C014008B50121082000F08C
:1013F000E5FC14208DF803004020ADF80000032028
:101400008DF8020069460848FFF790FC14208DF81B
:1014100003008020ADF8000003208DF8020069462B
:101420000148FFF783FC08BD000C014008B501210D
:10143000082000F0C3FC04208DF803008020ADF8E4
:10144000000003208DF8020069460248FFF76EFC99
:1014500008BD0000000C014008B50121082000F083
:10146000ADFC14208DF803008020ADF800000320AF
:101470008DF8020069460248FFF758FC08BD0000DD
:10148000000C014070B50024FFF7D0FF002517E0E5
:101490006006040E40210C48FFF7DCFC012002F03E
:1014A00031F940210848FFF7D7FC012002F02AF962
:1014B00080210548FFF7C5FC08B144F001046D1C0C
:1014C000082DE5DB204670BD000C014010B5FFF78C
:1014D000C3FF40210D48FFF7BDFC012002F012F9C7
:1014E00080210A48FFF7B6FC012002F00BF94021E9
:1014F0000648FFF7B1FC012002F004F9402103483F
:10150000FFF7A8FC012002F0FDF810BD000C01401F
:1015100010B5FFF7A1FF40210D48FFF79BFC01200C
:1015200002F0F0F880210A48FFF796FC012002F053
:10153000E9F840210648FFF78FFC012002F0E2F8AD
:1015400040210348FFF786FC012002F0DBF810BDC4
:10155000000C014010B5FFF77FFF40211148FFF755
:1015600079FC012002F0CEF880210E48FFF774FCD0
:10157000012002F0C7F840210A48FFF76DFC012066
:1015800002F0C0F880210748FFF764FC012002F058
:10159000B9F840210348FFF75DFC012002F0B2F8E2
:1015A00010BD0000000C014010B5FFF755FF4021B1
:1015B0001148FFF74FFC012002F0A4F880210E48EB
:1015C000FFF748FC012002F09DF840210A48FFF790
:1015D00043FC012002F096F880210748FFF73CFC0D
:1015E000012002F08FF840210348FFF733FC01206F
:1015F00002F088F810BD0000000C014010B5002476
:10160000FFF714FF40211548FFF724FC012002F0EA
:1016100079F840211148FFF71FFC012002F072F811
:101620000DE0601CC0B204461E2805DDFFF714FF64
:10163000FFF7BAFF002010BD012002F063F88021FF
:101640000648FFF7FEFB0028EBD140210348FFF7D7
:1016500001FC012002F056F80120ECE7000C0140EB
:1016600070B50446FFF7F8FE002526E04021144837
:10167000FFF7F0FB012002F045F804F0800020B1F4
:1016800080210F48FFF7E8FB03E080210C48FFF7BB
:10169000E1FB012002F036F840210948FFF7DCFBAE
:1016A000012002F02FF840210548FFF7D3FB01206D
:1016B00002F028F86006040E6D1C082DD6DB70BD04
:1016C000000C01401FB50121052000F077FB00212F
:1016D0000846FFF70BFB01210020FFF707FB042161
:1016E0000020FFF703FB28208DF80F000120ADF844
:1016F0000C0003208DF80E0003A93048FFF716FBFD
:1017000048208DF80F001220ADF80C0003208DF852
:101710000E0003A92948FFF709FB012001908DF86D
:101720000A0000208DF8080008208DF8090001A8A3
:10173000FFF792FA0220019001208DF80A000020A4
:101740008DF808000C208DF8090001A8FFF784FA35
:101750001020019001208DF80A0000208DF808006B
:101760000C208DF8090001A8FFF776FA06208DF805
:10177000000001208DF803008DF801008DF80200B3
:10178000684600F0BBFA07208DF8000001208DF8B4
:1017900003008DF801008DF80200684600F0AEFAF3
:1017A0000A208DF8000001208DF803008DF801005B
:1017B0008DF80200684600F0A1FA1FBD0008014044
:1017C00008B50121082000F0F9FA0121102000F0ED
:1017D000F5FA0320ADF800008DF8020010208DF816
:1017E000030069461048FFF7A1FA2020ADF8000079
:1017F00003208DF8020010208DF8030069460B4885
:10180000FFF794FA0121042000F0D8FAA820ADF8DF
:10181000000003208DF8020010208DF803006946B7
:101820000348FFF783FA08BD000C01400010014097
:1018300000080140F0B585B004460D4617461E4627
:101840004FF6FF7000F0C8F843A04FF6FF734FF457
:101850007842002100901020FFF724FB40A04FF6B3
:10186000FF731F22002100904020FFF71BFB3AA0CE
:101870004FF6FF734FF47842002100901020FFF7DD
:1018800011FB37A04FF6FF731F220021009040206C
:10189000FFF708FB34A04FF6FF73002210210090E1
:1018A0001046FFF7FFFA224631A101A801F02CFAF9
:1018B00001A84FF6FF731F22102100903C20FFF774
:1018C000F1FA2DA04FF6FF73002220210090104660
:1018D000FFF7E8FA2A462AA101A801F015FA01A8A3
:1018E0004FF6FF734FF4FC62202100903C20FFF77D
:1018F000D9FA25A04FF6FF73002230210090104640
:10190000FFF7D0FA3A4622A101A801F0FDF901A89B
:101910004FF6FF734FF47842302100903C20FFF7E0
:10192000C1FA1DA04FF6FF7300224021009010461F
:10193000FFF7B8FA32461AA101A801F0E5F901A8AB
:101940004FF6FF734FF47842402100903C20FFF7A0
:10195000A9FA05B0F0BD00004D6F64653A000000C3
:101960006F70656E0000000054656D703A000000F5
:101970002564A1E60000000048756D693A0000008A
:101980002564252500000000434F323A0000000086
:10199000256470706D000000666972653A00000091
:1019A00025644B570000000010B504460820084984
:1019B0000860022007490860201200F091FBE0B2A5
:1019C00000F08EFB08200249091F086010BD0000CE
:1019D00014080140100C014070B506467F231A46DA
:1019E0000021084600F032F92C2000F06FF90024A5
:1019F00008E0002503E03046FFF7D6FF6D1C802D80
:101A0000F9D3641C802CF4D370BD10B5FFF7D8FE59
:101A100000F00CF9112000F059F9782001F04CFE8B
:101A2000B12000F053F9012000F03CF92C2000F027
:101A300039F92D2000F036F9B22000F047F90120E5
:101A400000F030F92C2000F02DF92D2000F02AF9BB
:101A5000B32000F03BF9012000F024F92C2000F025
:101A600021F92D2000F01EF9012000F01BF92C2097
:101A700000F018F92D2000F015F9B42000F026F937
:101A8000072000F00FF9C02000F020F9A22000F09C
:101A900009F9022000F006F9842000F003F9C120C2
:101AA00000F014F9C52000F0FDF8C22000F00EF996
:101AB0000A2000F0F7F8002000F0F4F8C32000F04E
:101AC00005F98A2000F0EEF82A2000F0EBF8C42097
:101AD00000F0FCF88A2000F0E5F8EE2000F0E2F8D3
:101AE000C52000F0F3F80E2000F0DCF8362000F0FE
:101AF000EDF8C82000F0D6F8E02000F0E7F80F205D
:101B000000F0D0F81A2000F0CDF80F2000F0CAF84D
:101B1000182000F0C7F82F2000F0C4F8282000F0AB
:101B2000C1F8202000F0BEF8222000F0BBF81F20F2
:101B300000F0B8F81B2000F0B5F8232000F0B2F850
:101B4000372000F0AFF8002000F0ACF8072000F0DC
:101B5000A9F8022000F0A6F8102000F0A3F8E12078
:101B600000F0B4F80F2000F09DF81B2000F09AF868
:101B70000F2000F097F8172000F094F8332000F0C1
:101B800091F82C2000F08EF8292000F08BF82E2000
:101B900000F088F8302000F085F8302000F082F85E
:101BA000392000F07FF83F2000F07CF8002000F0A2
:101BB00079F8072000F076F8032000F073F8102081
:101BC00000F070F82A2000F081F8002000F06AF898
:101BD000002000F067F8002000F064F87F2000F09B
:101BE00061F82B2000F072F8002000F05BF8002074
:101BF00000F058F8002000F055F89F2000F052F84F
:101C0000F02000F063F8012000F04CF8F62000F01E
:101C10005DF8002000F046F83A2000F057F8052063
:101C200000F040F8292000F051F810BD10B5202038
:101C300005494861642001F03FFD20200249086108
:101C4000322001F039FD10BD00100140F0B504460E
:101C50000D4616461F462A2000F038F8002000F0F6
:101C600021F8A11CC8B200F01DF8002000F01AF8FD
:101C7000B11CC8B200F016F82B2000F027F80020A5
:101C800000F010F8E91CC8B200F00CF8002000F0D9
:101C900009F8F91CC8B200F005F82C2000F016F87D
:101CA000F0BD000010B50446082006490860022077
:101CB00005490860204600F013FA08200149091F71
:101CC000086010BD14080140100C014010B5044616
:101CD000082006490860022005490860204600F0F7
:101CE000FFF908200149091F086010BD14080140D0
:101CF000140C014000BFFEE77047000070B50021E2
:101D000000230F22C47804B3154C246804F4E06463
:101D1000C4F5E064210AC1F10403CA40447804FA1E
:101D200003F184781440214309010E4C0678A15533
:101D3000047804F01F050124AC4005786D11AD0056
:101D400005F1E025C5F8004109E0047804F01F051D
:101D50000124AC40044D0678761145F8264070BD4C
:101D60000CED00E000E400E080E100E00249014306
:101D7000024A1160704700000000FA050CED00E017
:101D80007047000001460020034A506820F440409C
:101D900008435060704700000010024029B1064A15
:101DA000D2690243044BDA6104E0034AD2698243F8
:101DB000014BDA61704700000010024029B1064A69
:101DC00092690243044B9A6104E0034A9269824398
:101DD000014B9A61704700000010024030B50021AD
:101DE0000022002400232D4D6D6805F00C0121B167
:101DF000042905D0082923D105E0294D056022E0FA
:101E0000274D05601FE0254D6D6805F47012234DC8
:101E10006D6805F48034022505EB92421CB9214D12
:101E2000554305600BE01D4D6D6805F400351DB18F
:101E30001C4D5543056002E0194D5543056002E015
:101E4000174D056000BF00BF144D6D6805F0F0012F
:101E50000909154D6B5C0568DD4045600F4D6D68E7
:101E600005F4E061090A104D6B5C4568DD40856052
:101E70000A4D6D6805F46051C90A0B4D6B5C4568ED
:101E8000DD40C560054D6D6805F44041890B074D87
:101E90006B5CC568B5FBF3F5056130BD0010024011
:101EA00000127A0000093D001400002024000020E8
:101EB00010B50321202000F03CF810BDF8B500203B
:101EC0000090FFF7C7F9B120FFF756FAFFF71EFAA7
:101ED00001282CD1FFF74AF98DF80000FFF76EF9C1
:101EE000FFF744F98DF80100FFF768F9FFF73EF9B5
:101EF000064600BFFFF762F9FFF738F98DF80200D8
:101F0000FFF75CF9FFF732F98DF80300FFF756F998
:101F1000FFF72CF9054600BFFFF776F9FFF7C8F980
:101F20009DF801009DF8001000EB012084B22046CE
:101F3000F8BD70B505460C46FFF78CF9B020FFF7E9
:101F40001BFAFFF7E3F901280FD12846FFF714FA2F
:101F5000FFF7DCF9012808D12046FFF70DFAFFF75B
:101F6000D5F9012801D1FFF7A3F970BD10B50446DA
:101F7000FFF7F0FA8820FFF773FBFFF73FFB01281C
:101F800012D1200AFFF76CFBFFF738FB01280BD1B9
:101F9000E0B2FFF765FBFFF731FB012804D1FFF743
:101FA00003FB1E2001F088FB10BD00002DE9FF5F40
:101FB0000446894642F60640FFF7D8FFFFF7CAFA03
:101FC0008920FFF74DFBFFF719FB012825D1FFF70B
:101FD00059FA8DF80800FFF779FAFFF753FA8DF8F0
:101FE0000900FFF773FAFFF74DFA8DF80A00FFF7C3
:101FF0006DFAFFF747FA8DF80B00FFF767FAFFF766
:1020000041FA8DF80C00FFF761FAFFF73BFA8DF803
:102010000D00FFF77DFAFFF7C7FA022102A801F0D1
:102020002DFB9DF80A1088424DD102210DF10B00C5
:1020300001F024FB9DF80D10884244D19DF8091051
:102040009DF8082001EB0220FEF762FA0746002205
:102050001E4BFEF77CF9054600221D4BFEF7E9F901
:10206000824600221B4BFEF7CBF8CDE90001FEF7BC
:1020700060FA20609DF80C109DF80B2001EB022007
:10208000FEF746FA07460022114BFEF7D2F9054645
:102090000022114BFEF75BF98246FEF769FAA9F8B8
:1020A000000043F2D4012068884202DD0846206027
:1020B00005E0206810F57A6F01DA084820600020FA
:1020C00004B0BDE8F09F0120FAE7000000E06540A1
:1020D000E0FFEF40008046C00000594060F0FFFF85
:1020E0000021082114E000F080021AB180220A4B7E
:1020F0001A6003E08022084B1B1D1A602022064B49
:102100001B1D1A601B1F1A604206100E4A1ED1B218
:102110000029E8DC7047000010080140704710B546
:1021200000F002F810BD00000CB5002001900090F6
:102130003348006840F480303149086000BF3048BF
:10214000006800F4003000900198401C0190009855
:1021500018B90198B0F5A06FF1D12948006800F4D2
:10216000003010B10120009001E0002000900098A4
:10217000012843D12348006840F01000214908603D
:102180000846006820F0030008600846006840F038
:10219000020008601A4840681949486008464068CB
:1021A00048600846406840F48060486008464068DF
:1021B00020F47C1048600846406840F4E81048600D
:1021C0000846006840F08070086000BF0C48006856
:1021D00000F000700028F9D00948406820F00300A2
:1021E000074948600846406840F00200486000BF68
:1021F0000348406800F00C000828F9D10CBD00002D
:10220000001002400020024070B50446002508215D
:102210002020FFF78EFE0F2001F04EFAFFF74EFE52
:102220000546258070BD704710B51348006840F022
:1022300001001149086008464068104908400E49ED
:102240004860084600680E4908400B490860084687
:10225000006820F4802008600846406820F4FE00F2
:1022600048604FF41F008860FFF759FF4FF000608F
:102270000449086010BD0000001002400000FFF893
:10228000FFFFF6FE08ED00E04FF0E021096921F0C4
:1022900004014FF0E0221161C21700EB5272D2101C
:1022A000044B1A60194609684FF47A725143024A86
:1022B00011607047300000202C00002021B10288FE
:1022C00042F08002028004E002884FF67F731A40D9
:1022D0000280704721B1028842F00102028004E0CE
:1022E00002884FF6FE731A400280704731B1B0F891
:1022F000442042F40042A0F8442005E0B0F8442015
:10230000C2F30E02A0F844207047000070B500240C
:1023100000220023058C4FF6FE7635400584028CA2
:102320008388048B4FF68F752C40B51E2C400D888A
:102330002C43751E2A400D892A434D882A43144D8B
:10234000A8420BD0134DA84208D0134DA84205D087
:10235000124DA84202D0124DA84213D14FF6F77584
:102360002A404D892A434FF6FB752A408D882A431F
:102370004FF6FF652B404FF6FF552B408D892B43C1
:10238000CD892B4383800483CD888586028470BDEC
:10239000002C014000340140004001400044014055
:1023A000004801400A460021018B4FF6F77319409F
:1023B0001143018370470021018041808180C180E9
:1023C000018141818181C18170478186704781840B
:1023D00070470000002202881D4B98420ED01D4B12
:1023E00098420BD0B0F1804F08D01B4B984205D0DB
:1023F0001A4B984202D01A4B984204D14FF68F7371
:102400001A404B881A43174B984207D0164B9842F4
:1024100004D04FF6FF431A40CB881A4302808B88C2
:1024200083850B8803850A4B98420BD0094B984251
:1024300008D00E4B984205D00D4B984202D00D4B60
:10244000984201D10B7A03860123838270470000F2
:10245000002C01400034014000040040000800400E
:10246000000C0040001000400014004000400140FB
:10247000004401400048014010B540F22551184881
:1024800000F01BF958B31748007880B91448001DB4
:10249000008820B31248001D00881349134A1268AF
:1024A000885412480068401C1049086017E00C4826
:1024B000001D00880C490D4A126888540B480068BA
:1024C00020B901210A48FFF705FF03E00021084871
:1024D000FFF77DFF05480068401C0449086010BDF7
:1024E000004C00402B000020480000203800002055
:1024F0000008004010B586B0044601211120FFF706
:102500005DFC0121C804FFF749FC18208DF8170075
:102510004FF48060ADF8140003208DF8160005A973
:102520001E48FEF703FC04208DF817004002ADF8AA
:10253000140005A91948FEF7F9FB01940020ADF835
:1025400010000C20ADF80E000020ADF80C00ADF826
:102550000A00ADF8080001A9114800F0FDF820219B
:102560000F4800F079F8012240F225510C4800F0A4
:10257000CEF834208DF8000000208DF801008DF891
:10258000020001208DF803006846FFF7B7FB012128
:10259000034800F079F806B010BD000000100140BB
:1025A000004C004010B540F225510A4800F085F873
:1025B00001280DD140F22551064800F056F8054893
:1025C00000F036F904462146024800F036F900BF13
:1025D00010BD00000038014010B586B0044601214E
:1025E00044F20500FFF7EAFB18208DF817004FF4BE
:1025F0000070ADF8140003208DF8160005A91448EA
:10260000FEF794FB48208DF817004FF48060ADF87A
:10261000140003208DF8160005A90D48FEF786FB6F
:1026200001940020ADF810000C20ADF80E00002041
:10263000ADF80C00ADF80A00ADF8080001A9054896
:1026400000F08AF80121034800F01EF806B010BD22
:10265000000801400038014001F40072B2F5007F2B
:1026600000D100BFCA430280704710B5002200238A
:1026700040F66A14A14200D100BF0A12012494401E
:10268000A3B2DC43048010BD21B1828942F4005220
:10269000828104E082894DF6FF731A40828170477F
:1026A00002460020B1F5007F00D100BF13880B4027
:1026B0000BB1012000E00020704770B502460024F5
:1026C00000230025002040F66A16B14200D100BF69
:1026D000C1F3421501F01F03012606FA03F3012D91
:1026E00002D19689334006E0022D02D1168A33408A
:1026F00001E0968A33400C12012606FA04F416888B
:10270000344013B10CB1012000E0002070BDF0B5E1
:102710000346002400260025002040F66A17B9422F
:1027200000D100BF1846C1F3421401F01F06012773
:1027300007FA06F5012C01D10C3004E0022C01D17E
:10274000103000E014301AB107682F43076002E030
:102750000768AF430760F0BD2DE9F04786B0054636
:102760000E460024A24600BFA1460027B08900B152
:1027700000BF2F462C8A4CF6FF700440F0880443BB
:102780002C82AC894EF6F3100440B088318908439E
:10279000718908430443AC81AC8A4FF6FF40044082
:1027A000B0890443AC8201A8FFF718FB1F48874299
:1027B00002D1DDF810A001E0DDF80CA0A88900F43A
:1027C000004040B10AEBCA0000EB0A103168490032
:1027D000B0FBF1F807E00AEBCA0000EB0A10316821
:1027E0008900B0FBF1F86420B8FBF0F00401200987
:1027F000642101FB1089A88900F4004040B1322017
:1028000000EBC900B0FBF1F000F00700044308E062
:10281000322000EB09106421B0FBF1F000F00F0052
:1028200004432C8106B0BDE8F08700000038014069
:1028300001468888C0F308007047C1F3080282800F
:10284000704700BFFEE7000000B5ADF5017D4FF415
:10285000007101A8FDF7A3FC2D4803882D4A4FF411
:10286000007101A800F036FA4FF4FA7101A800F0E7
:1028700015F930B128A000F01DFA02200DF5017DF8
:1028800000BD2DA000F016FA4FF4007101A8FDF76D
:1028900086FC2E482E4A4FF40071036801A800F010
:1028A00019FA4FF4FA7101A800F0F8F820B129A044
:1028B00000F000FA0220E1E72EA000F0FBF9324818
:1028C000FFF7A2FC4FF4007101A8FDF768FC2E4849
:1028D00003882E4A4FF4007101A800F0FBF94FF471
:1028E000FA7101A800F0DAF820B129A000F0E2F9AD
:1028F0000220C3E72FA000F0DDF94FF480613348D8
:10290000FDF74DFC00203249086000BFB6E700002B
:102910000E000020585A0008CAAAB6C8CAFDBEDD7B
:10292000C9CFB1A8CAA7B0DCA3ACD7BCB1B8D6D8C0
:10293000C6F40D0A00000000CAAAB6C8CAFDBEDD72
:10294000C9CFB1A8B3C9B9A60D0A00001000002074
:10295000D05A0008CEC2B6C8B6C8CAFDBEDDC9CFBF
:10296000B1A8CAA7B0DCA3ACD7BCB1B8D6D8C6F45E
:102970000D0A0000CEC2B6C8CAFDBEDDC9CFB1A8DF
:10298000B3C9B9A60D0A00000C000020D8590008F0
:10299000B6FED1F5BBAFCCBCCAFDBEDDC9CFB1A878
:1029A000CAA7B0DCA3ACD7BCB1B8D6D8C6F40D0A60
:1029B00000000000B6FED1F5BBAFCCBCCAFDBEDD49
:1029C000C9CFB1A8B3C9B9A60D0A000048000020BC
:1029D0003800002010B5044600224FF480511748FB
:1029E000FEF73CFA4FF4FA7000F066FE0122110384
:1029F0001248FEF733FA0A2111A000F04FF80FE059
:102A0000642000F059FE10A11148FDF7D3FB00B17E
:102A10000AE010A000F04EF9214610A000F04AF99B
:102A2000201EA4F10104EBD100BF0DA000F042F97B
:102A3000002C01DC012010BD0020FCE70008014053
:102A400041542B52535400007265616479000000B8
:102A500048000020B1EABCC7200000002564200027
:102A60000D0A000008B501210420FFF7A7F94FF473
:102A70008050ADF8000003208DF8020010208DF882
:102A8000030069460448FEF751F901221103024888
:102A9000FEF7E4F908BD00000008014070B50546E6
:102AA0000C460020134908604FF480611248FDF77E
:102AB00076FB294611A000F0B7FF0CE00A2000F0D9
:102AC000FBFD10A10C48FDF775FB00B107E02146A6
:102AD0000DA000F0EFF8201EA4F10104EED100BF1C
:102AE0000AA000F0E7F8002C01DC012070BD0020F6
:102AF000FCE70000380000204800002025730D0A84
:102B0000000000004F4B0000256420000D0A00006B
:102B1000F0B5C1B032A13648FDF74CFB002859D0C2
:102B20004FF4807101A8FDF73AFB4FF480723049F1
:102B300001A8FDF71BFB01A92EA000F0BBF84FF088
:102B4000FF3637462FA101A8FDF734FB05462DB10E
:102B5000AD1D2846FDF747FB064602E02BA000F01E
:102B6000A9F82EA101A8FDF725FB04462CB11134CC
:102B70002046FDF738FB074602E02DA000F09AF84A
:102B8000314632A000F096F8394634A000F092F8B1
:102B90004FF4807101A8FDF702FB3346344A4FF42D
:102BA000807101A800F096F801A932A000F082F827
:102BB000322101A8FFF772FF40B10D4800F034FF49
:102BC00030A000F077F8022041B0F0BD33A000F053
:102BD00071F802E034A000F06DF80020F4E7000086
:102BE0002B4D51545453554252454356000000005A
:102BF00048000020CFC2B7A2D6B8C1EE3A25730D67
:102C00000A000000226964223A220000CEB4D5D224
:102C1000B5BD6964D7D6B6CE0A0000002254656DF2
:102C2000705F7468726573686F6C64223A000000AC
:102C3000CEB4D5D2B5BD54656D705F7468726573DE
:102C4000686F6C64D7D6B6CE0A000000CCE1C8A18C
:102C5000B5C46964A3BA25640A000000CCE1C8A128
:102C6000B5C4CEC2B6C8E3D0D6B5A3BA25640A00AF
:102C70006C590008CFECD3A6D6B8C1EE3A25730D37
:102C80000A000000CFECD3A6CAA7B0DCA3ACD7BC27
:102C9000B1B8D6D8C6F40D0A00000000CFECD3A618
:102CA000B3C9B9A60D0A0000C3BBD3D0CFC2B7A227
:102CB0000D0A00000FB4054B10B503A9044A029891
:102CC00000F01EF910BC5DF814FB00008537000809
:102CD0003C0000200FB47CB50C0009AD01D0611E92
:102CE00000E00021CDE90001064B6A46294608981C
:102CF00000F006F9002C02D0009A002111707CBC73
:102D00005DF814FB073600080FB4084B10B504A992
:102D100002AA039800F0F4F8044602A9002000F08B
:102D20007DFC204610BC5DF814FB00001D36000839
:102D300037B514460846064B6A46214600F0E0F8CF
:102D400004466946002000F069FC20463EBD0000B4
:102D50001D360008004870474000002002E008C807
:102D6000121F08C1002AFAD170477047002001E005
:102D700001C1121F002AFBD1704700002DE9FF5F3F
:102D800082B00021DDE90430020DDDF840B00343DC
:102D900018D044F61050A2F2FF3242431514119895
:102DA00001281FD0A5EB0B00401C5FEA000A4FF082
:102DB00000064E4FDFF83891B046504615D5CAF19F
:102DC000000413E0119801244AA3012801D16FEAFD
:102DD0000B010298119AC0E90031C0E9024206B025
:102DE000BDE8F09FCBF10000DFE704460021404A38
:102DF000491842EB0450CDE9001012E0E00707D07B
:102E000032463B4640464946FDF7A1FA8046894690
:102E100032463B4610461946FDF799FA06460F46DC
:102E20006410002CEAD1DDE90401DDE90023BAF1E8
:102E3000000F06DAFDF78BFA42464B46FDF787FA9C
:102E400005E0FDF7F6FA42464B46FDF7F2FA044676
:102E50000E460022284BFDF7C9FC03D84FF0FF3087
:102E6000014607E00022254B20463146FDF7C8F910
:102E7000FDF7A4FC102409E0002C0ADB0A22002341
:102E8000FDF7A5FB039B30321A55641E50EA010280
:102E9000F2D1641C039AC4F111031444119A012A5B
:102EA00003D0012208430DD10AE0084304D00020DA
:102EB0004FF0110B119072E7A3EB0B056D1E0DE0A7
:102EC0005B4504DD4FF0000205F1010504E003DA83
:102ED0004FF00002A5F10105002AECD002981199EB
:102EE000C0E90231C0E9004579E700000000144064
:102EF0000000F03F300000000000F0430000E03F21
:102F00002DE9FF4F95B09A46884606460025EEE12A
:102F1000252877D100242746F94A0121039400E0AF
:102F2000044316F8013F203B01FA03F01042F7D1A9
:102F300030782A2811D06FF02F033078A0F13002BA
:102F4000092A16D8039A44F0020402EB820203EB2A
:102F500042021044761C0390EFE758F8042B0392CA
:102F6000002A03DA504244F40054039044F002046F
:102F7000761C30782E2816D116F8010F44F0040480
:102F80002A280DD06FF02F023078A0F13003092BE2
:102F900009D807EB870302EB4303C718761CF3E756
:102FA00058F8047B761C30786C280FD006DC4C284F
:102FB00017D068280DD06A2814D104E0742810D0E6
:102FC0007A280FD10DE044F400140AE044F4801490
:102FD00001E044F440147278824202D104F5801476
:102FE000761C761C307866280BD013DC582877D0F6
:102FF00009DC002875D04528F6D04628F4D04728AB
:103000001AD193E118E0632835D0642879D0652877
:1030100012D18BE1702873D008DC6728F1D06928C1
:103020006FD06E280DD06F2806D1ACE073282CD05D
:10303000752874D0782853D05246179990476D1C44
:1030400054E1C4F30250022809D003280DD0D8F867
:10305000001004280DD00D6008F1040846E1D8F8EE
:103060000010EA17C1E90052F6E7D8F800100D8009
:10307000F2E70D70F0E718F8041B8DF8001000203F
:103080008DF80100EB46012003E058F804BB4FF037
:10309000FF3061074FF0000102D40DE009F101019A
:1030A0008946B9420FDA8145F8DB1BF8091000297F
:1030B000F4D108E009F1010189468142FADB1BF8ED
:1030C00009100029F6D103985346A0EB09072146C1
:1030D0003846179A00F080FA284400EB090507E00B
:1030E00044E008E10DE01BF8010B524617999047A8
:1030F000B9F10109F7D2534621463846179AF2E052
:1031000039E00A21C4F302524FF0000B0091022A69
:1031100006D058F8040BC117032A09D00AE023E0AF
:1031200008F1070020F00702F2E80201904605E0EE
:1031300000B2C117042A01D140B2C117002906DA32
:103140000A460021404261EB02012D2202E02205E5
:1031500004D52B228DF80420012203E0E20701D0E0
:103160002022F7E7914657E00A2100E010214FF0B6
:10317000000B00910BE010214FF0000B44F0040411
:103180000827009103E008204FF0000B0090C4F3E3
:103190000252022A05D058F8040B0021032A08D055
:1031A00008E008F1070020F00702F2E8020190466B
:1031B00003E080B2042A00D1C0B24FF00009220718
:1031C0002AD53278702A07D0DDF800C08CF0100CB8
:1031D0005CEA0B0C05D00EE040228DF804200122A1
:1031E00008E050EA010306D030238DF804308DF852
:1031F000052002229146009B83F0080353EA0B034B
:103200000AD150EA010201D1620705D530228DF8BA
:1032100004204FF001097F1E3278582A04D039A2C9
:103220000C920CAA02920BE03BA2F9E75B46009AD3
:10323000FDF7CDF90C9B9B5C029A521E0292137013
:1032400050EA0102F2D1029804A9081A00F1200BF9
:10325000600702D524F4803400E001275F4502DDD9
:10326000A7EB0B0000E0002000EB0B01009003989F
:103270004944401A0390E00306D453462146179A66
:10328000039800F0A9F90544002706E001A852467A
:10329000C05D179990476D1C7F1C4F45F6DBE0031E
:1032A0000CD553462146179A039800F095F905442A
:1032B00004E030205246179990476D1C0099481E33
:1032C00000900029F5DC08E0029802995246007847
:1032D000491C0291179990476D1CBBF10001ABF19D
:1032E000010BF1DC5BE100F065F90544761C3078F8
:1032F00000287FF40DAE19B02846BDE8F08F00001D
:1033000009280100303132333435363738396162BB
:10331000636465660000000030313233343536377F
:10332000383941424344454600000000600700D45C
:10333000062708F1070020F00700F0E80223804686
:1033400003F0004C5FEA0C0001D097A009E02005D3
:1033500001D596A005E0E00701D095A001E0AFF20D
:103360004C001390307823F0004365280CD006DC25
:10337000452809D046281DD047287FD13BE0662844
:1033800018D067287AD136E00021112F01DB1120F7
:1033900000E0781CCDE9000104A90CA8FFF7EEFCC1
:1033A000DDE90D010C9A4FF0000B07F101091092B5
:1033B00000914EE04FF000400097CDE9011004A9C4
:1033C0000CA8FFF7DBFCDDE90D020C9B0F994FF019
:1033D000000B91461093009211B9791C00EB010982
:1033E000B7EB090003D4C0F1FF3B07F10109A9EBDA
:1033F0000700019042E0012F00DA01270021112F80
:1034000001DD112000E03846CDE9000104A90CA837
:10341000FFF7B4FCDDE90D010C9A00914FF0000BB1
:10342000B946109221070FD4009A4A4503DA914613
:1034300001E0A9F10109B9F1010F05DD109AA9F127
:103440000101515C3029F4D0B84202DA10F1040FC6
:1034500003DA0121CDE9011010E0002803DC8344E8
:10346000A9EB000102E0411C494500DD8946A0EBC3
:103470000B00401C01904FF000400290200705D443
:103480000198484502DB4FF0FF30019000208DF895
:103490004B0002980DF14B07B0F1004F25D00220F0
:1034A0000C902B200D90029800280CDA40420290DC
:1034B0002D200D9007E00A210298FDF772F83031B7
:1034C000029007F8011D0C99481E0C900029F2DCAF
:1034D00002980028EFD1791E0D980870307800F01E
:1034E000200040F0450007F8020D11A8C01BC01DC8
:1034F00002901398007800B1012000EB09010198B7
:1035000001EBE071029801440398401A401E0390B9
:10351000E00306D453462146179A039800F05CF85E
:1035200005441398007818B15246179990476D1CBE
:10353000E00323D553462146179A039800F04CF830
:1035400005441BE0BBF1000F07DB0098584504DD84
:103550001098179910F80B0001E017993020524687
:10356000904701980BF1010B401E05F101050190F8
:1035700004D12E205246179990476D1CB9F10001D5
:10358000A9F10109DEDC05E017F8010B5246179995
:1035900090476D1C0299481E02900029F4DC5346A6
:1035A0002146179A03989EE62D0000002B0000008C
:1035B000200000002DE9F041044600251E46174674
:1035C000880404D405E039462020B0476D1C641EF1
:1035D000F9D52846BDE8F0812DE9F04104460025E3
:1035E0001E469046C80301D5302700E020278804F6
:1035F00004D505E041463846B0476D1C641EF9D538
:103600002846BDE8F0814A68002A06D00A68531CA3
:103610000B6010704868401E486070470A68531C71
:103620000B6010707047000008B501211020FEF7F4
:10363000C5FB10208DF803004020ADF800000320EA
:103640008DF8020069460448FDF770FB40210248EE
:10365000FDF700FC08BD00000010014010B5044655
:1036600024B101210448FDF7F7FB03E001210248E2
:10367000FDF7F0FB10BD0000000C014030B5024624
:103680000B46FF20002113E0555C684008240BE046
:1036900000F0800525B1312585EA4005E8B201E05A
:1036A0004506280E651EECB2002CF1DC4D1CE9B27B
:1036B0009942E9DB30BD00000146114A12684A43D5
:1036C0004FF0E0235A6100229A611A46126942F0D3
:1036D00001021A6100BF4FF0E022106900F0010200
:1036E0001AB100F48032002AF5D04FF0E0221269BE
:1036F00022F001024FF0E0231A6100229A61704724
:103700002C0000200146114A12684A434FF0E02382
:103710005A6100229A611A46126942F001021A6146
:1037200000BF4FF0E022106900F001021AB100F46E
:103730008032002AF5D04FF0E022126922F0010217
:103740004FF0E0231A6100229A6170473000002098
:1037500008B501210820FEF731FB10208DF8030089
:10376000C002ADF8000003208DF80200694604484D
:10377000FDF7DCFA4FF400410148FDF76BFB08BD93
:10378000000C014070B504460D46A1B20548FFF794
:1037900054F800BF40210348FEF782FF0128F9D109
:1037A000204670BD00380140FDF758FC00BF0025E1
:1037B0000026002400274FF00208A7E008F10100CE
:1037C00000F0FF08B8F1020F7EDD4FF0000850490D
:1037D0005048FEF7EBFB5048FEF716FDFDF744FBA3
:1037E00005464C4801684DA0FFF764FA4848018837
:1037F0004DA0FFF75FFA484801884EA0FFF75AFA3C
:10380000294650A0FFF756FA42480068192803DD00
:103810000120FFF723FF02E00020FFF71FFF4D48C4
:103820000088854255DA52E036B12046641E81B2E6
:103830004948FEF7CAFD05E02046641C81B24648AF
:10384000FEF7C3FD632C00D024B90EB9012000E0BF
:10385000002006460320FFF72FFF21463FA0FFF779
:1038600029FA781CC7B21E2F27DD29492948FEF7FF
:103870009DFB2948FEF7C8FCFDF7F6FA05462548EA
:10388000016826A0FFF716FA2148018826A0FFF755
:1038900011FA2148018827A0FFF70CFA294629A030
:1038A000FFF708FA1B49098888B22B461A490A888B
:1038B00017490988FDF7BEFF00272B48007801282B
:1038C00005D10020284900E003E0087000E0ABE7E4
:1038D00000BF26A0FFF7EEF941F28830FFF7ECFEBB
:1038E000FFF716F9FEF7B0FF0120FFF7E5FE1948D4
:1038F000018822A0FFF7DEF90649098888B22B4625
:1039000005490A8802490988FDF794FF56E7000037
:103910000E000020100000200C000020CEC2B6C80F
:103920003D25640A00000000CAAAB6C83D25640A05
:1039300000000000B6FED1F5BBAFCCBC3D25640A4B
:1039400000000000BBF0D1E6C7BFB6C83D25640A41
:103950000000000008000020002C0140B2B6D7BDD6
:103960003D25640A000000000A000020CAC7B7F124
:10397000BFAACABCCFC2B7A200000000E3D0D6B530
:103980003D25640A0000000030B589B005460C46AC
:10399000012140F60500FEF711FA18208DF82300EA
:1039A0004FF48070ADF8200003208DF8220008A9A4
:1039B0001B48FDF7BBF90020ADF81A00ADF8160062
:1039C000ADF81850ADF814408DF81C0005A9154845
:1039D000FEF700FD01A8FEF7EEFC6020ADF8040044
:1039E0000020ADF80C000120ADF806000020ADF875
:1039F0000A0001A90B48FEF789FC01210948FEF7DE
:103A000075FC01210748FEF759FC08210548FEF71F
:103A1000C9FC01210348FEF75DFC09B030BD000080
:103A200000080140002C01400FB438B54FF480610C
:103A30001548FCF7B4FB05A800901348009A0499B8
:103A4000FFF776F9002000900F48FCF7C5FB05460C
:103A500000BF0E48008800F040000028F9D0002484
:103A60000CE00948005D0949091D088000BF0748AE
:103A7000008800F040000028F9D0641CAC42F0D36C
:103A800038BC5DF814FB000048040020004C0040E6
:103A900010B541A0FFF70EF93220FEF79BFF20B1D1
:103AA00041A0FFF707F9012010BD45A0FFF702F97B
:103AB00046A0FFF7FFF8322147A0FEF7EFFF20B145
:103AC00046A0FFF7F7F80120EEE747A0FFF7F2F86E
:103AD00048A0FFF7EFF832214BA0FEF7DFFF20B13F
:103AE0004CA0FFF7E7F80220DEE751A0FFF7E2F86D
:103AF00054A0FFF7DFF8322156A0FEF7CFFF20B128
:103B000058A0FFF7D7F80220CEE75EA0FFF7D2F863
:103B100061A0FFF7CFF84FF47A7163A0FEF7BEFF04
:103B200020B16BA0FFF7C6F80220BDE770A0FFF739
:103B3000C1F874A0FFF7BEF832217748FEF7AEFF58
:103B400020B176A0FFF7B6F80220ADE77AA0FFF724
:103B5000B1F87FA0FFF7AEF84FF47A7181A0FEF7BD
:103B60009DFF20B18AA0FFF7A5F802209CE790A056
:103B7000FFF7A0F894A0FFF79DF8322198A0FEF778
:103B80008DFF20B1A5A0FFF795F802208CE7AAA031
:103B9000FFF790F8002087E7D7BCB1B8B8B4CEBB28
:103BA000C4A3BFE90D0A0000B8B4CEBBCAA7B0DCFD
:103BB000A3ACD7BCB1B8D6D8C6F40D0A000000003B
:103BC000B8B4CEBBB3C9B9A60D0A0000CED5CAD6CB
:103BD000B2E2CAD40D0A000041540000CED5CAD6C4
:103BE000CAA7B0DC0D0A0000CED5CAD6B3C9B9A6A3
:103BF0000D0A0000D7BCB1B8C9E8D6C3535441C4BC
:103C0000A3CABD0D0A00000041542B43574D4F4439
:103C1000453D3100C9E8D6C3535441C4A3CABDCA07
:103C2000A7B0DCA3ACD7BCB1B8D6D8C6F40D0A0097
:103C3000C9E8D6C3535441C4A3CABDB3C9B9A60D7C
:103C40000A000000BFAAC6F444484350C4A3CABD3A
:103C50000D0A000041542B4357444843503D312C3A
:103C600031000000C9E8D6C344484350C4A3CABDCC
:103C7000CAA7B0DCA3ACD7BCB1B8D6D8C6F40D0A7D
:103C800000000000C9E8D6C344484350C4A3CABDDD
:103C9000B3C9B9A60D0A0000C1ACBDD37769666986
:103CA000C8C8B5E30D0A000041542B43574A4150A0
:103CB0003D22686F6F73746172322D323447222C4B
:103CC00022313233343536373839302200000000A3
:103CD000C1ACBDD377696669C8C8B5E3CAA7B0DC13
:103CE000A3ACD7BCB1B8D6D8C6F40D0A000000000A
:103CF000C1ACBDD377696669C8C8B5E3B3C9B9A615
:103D00000D0A0000C5E4D6C34D515454BFCDBBA726
:103D1000B6CB0D0A00000000BC580008C5E4D6C3AD
:103D20004D515454BFCDBBA7B6CBA3ACD7BCB1B893
:103D3000D6D8C6F40D0A0000C5E4D6C34D5154547C
:103D4000BFCDBBA7B6CBB3C9B9A60D0A0000000012
:103D5000C1ACBDD3B5BD4D515454B7FECEF1C6F77D
:103D60000D0A000041542B4D515454434F4E4E3DCB
:103D7000302C226D717474732E6865636C6F75647A
:103D8000732E636F6D222C313838332C31000000D4
:103D9000C1ACBDD34D515454B7FECEF1C6F7CAA73E
:103DA000B0DCA3ACD7BCB1B8D6D8C6F40D0A0000BD
:103DB000C1ACBDD34D515454B7FECEF1C6F7B3C913
:103DC000B9A60D0A00000000B6A9D4C4CFC2D0D055
:103DD000CAFDBEDDCDA8D6AACFFBCFA20D0A00003A
:103DE00041542B4D5154545355423D302C22247391
:103DF00079732F67377352363565694F312F636F8B
:103E00006F6C626F782F7468696E672F70726F7055
:103E1000657274792F736574222C3100B6A9D4C4ED
:103E2000CAFDBEDDCAA7B0DCA3ACD7BCB1B8D6D83A
:103E3000C6F40D0A00000000B6A9D4C4CAFDBEDD58
:103E4000B3C9B9A60D0A0000000000000000000080
:103E500000000000000000000010101010101010F2
:103E6000101000001010000000006C6C24240000F2
:103E700000000100000000000024242424FE484823
:103E80004848FC909090900000103C54929050381C
:103E900014121292547810000000225C94A848106A
:103EA00010242A5254880000000030484850206EE8
:103EB00054948C888A740000000030301010000088
:103EC0000000000000000000000408101020202066
:103ED0002020201010080400008040202010101026
:103EE00010101020204080000000000010543810F6
:103EF000385410000000000000000010101010FEE8
:103F00001010101000000000000000000000000071
:103F1000000000001010200000000000000000FE63
:103F20000000000000000000000000000000000091
:103F30000000000010100000000004040808101029
:103F4000202040408080000000003844828282822D
:103F5000828282824438000000001070101010101D
:103F600010101010107C00000000384482820408F9
:103F70001020408284FC0000000038448202043893
:103F800004020282443800000000040C14142424AB
:103F90004444FE04040E00000000FC808080B8C48D
:103FA000820202828478000000003C428280B8C411
:103FB000828282824438000000007E42820404082B
:103FC00008081010101000000000384482824438A5
:103FD0004482828244380000000038448282828217
:103FE000463A028244380000000000001010000031
:103FF0000000101000000000000000001010000081
:104000000000001010200000000000000618608072
:104010006018060000000000000000000000FE0024
:1040200000FE00000000000000000000C0300C0294
:104030000C30C000000000000038448282020408F6
:10404000101010001010000000003844829AAAAA34
:10405000AAAAAA9680423C00000010101028282826
:1040600044447C4444EE00000000FC424242427C56
:104070004242424242FC000000003C448280808078
:1040800080808282443800000000F844424242426C
:104090004242424244F800000000FC444240447C5A
:1040A0004440404244FC00000000FC444240447C48
:1040B0004440404040F000000000344C828080804A
:1040C0008E8484844C3400000000EE444444447CDC
:1040D0004444444444EE000000007C1010101010D2
:1040E00010101010107C000000003E08080808089E
:1040F00008080888887000000000EE4448485060B6
:104100005048484444EE00000000E0404040404039
:104110004040404244FC00000000C6446C6C6C54BB
:104120005454444444EE00000000CE44646464549B
:10413000544C4C4C44E4000000003844828282829B
:1041400082828282443800000000F84442424244A5
:104150007840404040E00000000038448282828283
:10416000828282BA443C02000000F0484444444841
:104170007048444444E6000000003C4482804030E3
:104180000C0202824478000000007C54921010104F
:1041900010101010103800000000EE444444444455
:1041A00044444444443800000000EE44444444285D
:1041B00028282810101000000000EE4454545454D5
:1041C00054542828282800000000EE4444282810D1
:1041D0001028284444EE00000000EE44442828281B
:1041E000101010101038000000007E4484080810E1
:1041F0002020408284FC0000001C101010101010C1
:104200001010101010101C000000EE445454FE5406
:104210005454282828280000007010101010101086
:1042200010101010101070000030488400000000C2
:10423000000000000000000000000000000000007E
:10424000000000000000FE00004020000000000010
:104250000000000000000000000000000000788462
:10426000047C84848C7600000000C0404040586488
:1042700042424242645800000000000000003844FE
:10428000808080804438000000000C040404344C1A
:10429000848484844C360000000000000000788490
:1042A00084FC808084780000000018242020F820FE
:1042B00020202020207000000000000000003A4470
:1042C0004478807C82827C000000C040404058647A
:1042D0004444444444EE000000001010000030103C
:1042E00010101010103800000000101000003010E6
:1042F00010101010109060000000C04040405C485A
:104300005060504844EE00000000301010101011B2
:104310001010101010390000000000000000ACD296
:104320009292929292D6000000000000000058E4A1
:104330004444444444EE00000000000000003844BF
:104340008282828244380000000000000000D864AD
:10435000424242645840E000000000000000364C39
:104360008484844C34040E000000000000006C3093
:10437000202020202070000000000000000078882D
:104380008460188444780000000000202020F82079
:104390002020202024180000000000000000C64259
:1043A00042424242463A0000000000000000EE4453
:1043B0004428282810100000000000000000EE44EF
:1043C0004454542828280000000000000000EE4457
:1043D0002810102844EE0000000000000000EE4409
:1043E0004428281010A0C0000000000000007E44F7
:1043F0008810204284FC0000000C10101010106087
:104400001010101010100C000010101010101010D0
:10441000101010101010100000C0202020202018B4
:10442000202020202020C00000000000000000729A
:104430008C000000000000000000000000001FE0F1
:1044400000003FF000003FF000001FE00001800688
:104450000003C00F0003C00F0003C00F0003C00F14
:104460000003C00F0003C00F0003C00F0003C00F04
:104470000003000300000000000000000000000036
:10448000000300030003C00F0003C00F0003C00FB0
:104490000003C00F0003C00F0003C00F0003C00FD4
:1044A0000003C00F0001800600001FE000003FF085
:1044B00000003FF000001FE00000000000000000CE
:1044C00000000080000001800000038000000780E1
:1044D00000000780000007800000078000000780C0
:1044E00000000780000007800000078000000780B0
:1044F000000001800000000000000000000000003B
:104500000000018000000780000007800000078095
:10451000000007800000078000000780000007807F
:104520000000078000000780000003800000018079
:1045300000000080000000000000000000001FE0FC
:1045400000003FF00000FFF00001FFE00000000667
:104550000000000F0000000F0000000F0000000F1F
:104560000000000F0000000F0000000F0000000F0F
:1045700000001FE300007FF800007FF800001FE04C
:10458000000300000003C0000003C0000003C000DF
:104590000003C0000003C0000003C0000003C0000F
:1045A0000003C0000001800000001FF000003FF881
:1045B00000003FFC00001FFE000000000003FF8021
:1045C0000001FFC00000FFC000007F800000001855
:1045D0000000003C0000003C0000003C0000003CEB
:1045E0000000003C0000003C0000003C0000003CDB
:1045F00000007F8C0001FFE00001FFF000007F80E1
:104600000000000C0000003C0000003C0000003CEA
:104610000000003C0000003C0000003C0000003CAA
:104620000000003C0000001800007F800000FFC078
:104630000001FFC00003FF80000000000000000038
:104640000002000100030003000380070003C00F05
:104650000003C00F0003C00F0003C00F0003C00F12
:104660000003C00F0003C00F0003C00F0003C00F02
:1046700000031FE300007FF800007FFC00001FE044
:10468000000000030000000F0000000F0000000FFA
:104690000000000F0000000F0000000F0000000FDE
:1046A0000000000F0000000F0000000700000003E2
:1046B00000000001000000000000000000001FFCDE
:1046C00000003FF800003FF000001FE00001800004
:1046D0000003C0000003C0000003C0000003C000CE
:1046E0000003C0000003C0000003C0000003C000BE
:1046F00000031FE000007FF800007FF800001FE0CB
:10470000000000030000000F0000000F0000000F79
:104710000000000F0000000F0000000F0000000F5D
:104720000000000F0000000600003FE000007FF0E6
:104730000000FFF00001FFE00000000000001FFC8F
:1047400000003FF800003FF000001FE00001800083
:104750000003C0000003C0000003C0000003C0004D
:104760000003C0000003C0000003C0000003C0003D
:1047700000031FE000007FF800007FFC00001FE046
:10478000000300030003C00F0003C00F0003C00FAD
:104790000003C00F0003C00F0003C00F0003C00FD1
:1047A0000003C00F0001800600001FE000003FF082
:1047B00000003FF000001FE0000000000007FFE0E5
:1047C0000003FFC00001FF880000FF180000003850
:1047D00000000078000000780000007800000078F9
:1047E00000000078000000780000007800000078E9
:1047F00000000018000000000000000000000000A1
:104800000000001800000078000000780000007828
:1048100000000078000000780000007800000078B8
:104820000000007800000078000000380000001848
:1048300000000008000000000000000000001FE071
:1048400000003FF000003FF000001FE00001800684
:104850000003C00F0003C00F0003C00F0003C00F10
:104860000003C00F0003C00F0003C00F0003C00F00
:1048700000031FE300007FF800007FFC00001FE042
:10488000000300030003C00F0003C00F0003C00FAC
:104890000003C00F0003C00F0003C00F0003C00FD0
:1048A0000003C00F0001800600001FE000003FF081
:1048B00000003FF000001FE00000000000001FE0CB
:1048C00000003FF000003FF000001FE00001800604
:1048D0000003C00F0003C00F0003C00F0003C00F90
:1048E0000003C00F0003C00F0003C00F0003C00F80
:1048F00000031FE300007FF800007FFC00001FE0C2
:10490000000000030000000F0000000F0000000F77
:104910000000000F0000000F0000000F0000000F5B
:104920000000000F0000000600001FE000003FF044
:1049300000007FF00000FFE0000000000000000029
:104940000000000000000000000000000000000067
:104950000000000000000000000000000000000057
:104960000000000000000000000000000000000047
:104970000000000000000000000000000000000037
:1049800000000000000000000000000000007800AF
:104990000000780000007800000078000000780037
:1049A000000078000000000000000000000000008F
:1049B00000000000000000000000000000000000F7
:1049C00000000000000000000000000000000000E7
:1049D00000000000000000000000070000000F8041
:1049E00000000F8000000F800000070000000000A2
:1049F00000000000000000000000000000000000B7
:104A0000000000000000070000000F8000000F8081
:104A100000000F8000000700000000000000000000
:104A20000000000000000000000000000000000086
:104A30000000000000000000000000000000000076
:104A400000000000000000000007C006000FE006A4
:104A50000000000C00301818003018180030183012
:104A60000030183000301860003008C00007C0C0A7
:104A7000000FE080000000000000000FE0000607CB
:104A8000C000063018000C3018000C301800183028
:104A90001800303018003030180060000000C00FDF
:104AA000E000C007C000000000000000000000009F
:104AB00000000000000000000000000000000000F6
:104AC00000000000000000000000000000000000E6
:104AD000000700E0000887FC00088E03000898012A
:104AE00080071800800030000000300000007000D7
:104AF0000000600000006000000060000000600036
:104B00000000600000007000000030000000300075
:104B1000000038000000180100000C03000007FC32
:104B2000000001F000000000000000000000000094
:104B30000000000000000000000000000000000075
:104B40000000000000000000000000000000000065
:104B50000000000000000000000000000000000055
:104B60000000000000000000000000000000000045
:104B70000000000000003FF000007FF000007FE038
:104B80000000FFC000000000000000000000000066
:104B90000000000000000000000000000000000015
:104BA0000000000000000000000000000000000005
:104BB00000000000000000000000B5E70200020055
:104BC00002007FF0421042107FF0421042107FF04E
:104BD00042000208020801F800000000D7D37FF06D
:104BE00000200040008001000200FFF802000200E7
:104BF00002000200020002000E0000000000C8AB2C
:104C00000100010002800440082010102FE8C106B6
:104C1000010001001FF00100010001007FFC000005
:104C2000B6AF004000407C40004001FC0044FE4420
:104C300020442044208448844484FD044504022800
:104C40000410BCBC10201020102013FEFC201020EB
:104C5000102015FC18843088D048105010201050B7
:104C600051882606CAF501000120011001107FFCC1
:104C7000038005400540092011102108410401026C
:104C8000010001000100D2BA0080404027F8114025
:104C900001408278424816A81AD023502220422090
:104CA0004250028800000000BEA73FE020203FE005
:104CB00020203FE00000FDF885088508FDF8850804
:104CC0008508FDF8850800000000B2E200084F8862
:104CD00028880AA88AA84AA80AA82AA82AA842288E
:104CE000450884888888103800000000CAD44050E5
:104CF000204820400FF80040E0402740224022405A
:104D000022202A2833A82E18000800000000B3CC67
:104D100000001BF0E210221023F0F800200033F016
:104D200068806080A3F02080208027F800000000C9
:104D3000D0F2020001003FF820002FF02020224096
:104D400021803FF8208820904080408083800000B0
:104D50000000D1D5200010F87E20444028F87E883D
:104D600048A850A864A848A872A884501888610868
:104D700000000000C9AB100010003FE04040808000
:104D80007FF04210421042107FF04000400840087F
:104D90003FF800000000CCEE20802FF8208027F0A4
:104DA000F41027F0241027F0241027F03410CFF847
:104DB0000220041000000000B3E404000200FFF829
:104DC0000800104020207FF00890088008800880AC
:104DD00010882088C07800000000CEC404000200C3
:104DE0000200FFF810401040088008800500020013
:104DF000050008803060C01800000000D7D604000D
:104E00000200FFF8800880083FC000800100020017
:104E1000FFF80200020002000E0000000000CFD4E4
:104E20003FE0202020203FE0202020203FE008809D
:104E30004890289028A008800880FFF80000000013
:104E4000CABE00003FE0000000000000FFF80200C2
:104E50001240122022104208820802000E000000B8
:104E60000000CDBC7FF84008440847C84848548833
:104E700043084CC8733840884C08430840887FF882
:104E800000000000C6AC00802080208020803FF021
:104E90002000200020003FC0204020402040404013
:104EA000804000000000B4A520403840484091F008
:104EB0007D50555055507D5055F054407C405450D5
:104EC00057F88C0800000000C3FE2220222027F89B
:104ED000FA2027F0241027F03410E7F020802FF874
:104EE00021402220EC1800000000CAE4408041402C
:104EF000F22044108BE8A000F78824A827A834A843
:104F0000E7A824A8248825B800000000C8EB080002
:104F1000040004000200020005000500088008806B
:104F20001040104020204010800800000000C8AB56
:104F3000020002000500088010402020DFD8020097
:104F400002001FC0020002000200FFF80000000083
:104F5000B3CC00001BF0E210221023F0F800200078
:104F600033F068806080A3F02080208027F8000064
:104F70000000BCBC208020802080F7F020802080B2
:104F800027E03220E2202140208021402220EC181E
:104F900000000000CAF50200024002200200FFF8F3
:104FA00007000A800A801240222042108208020074
:104FB000020000000000D6A702000200FFF8020075
:104FC00002007FE01020104008800500020005006C
:104FD00018C0E03800000000B3D62080208023F005
:104FE000F880208027F828203020E7F82020222091
:104FF00021202020E0E000000000D7A802000200ED
:105000007FF004000400FFF8080010003FE00020DB
:1050100000401C800300008000000000D7A20100B7
:105020004080200017F0008080804080008017F0D2
:1050300010802080208040804FF800000000C5FADA
:10504000204024402440F448245027602440344029
:10505000E4402440244025482648E438000000006D
:10506000B7A202002220221044007FF804000800AA
:105070000FE0142024404280810006C03838000030
:105080000000B3C900A0009000807FF840804090ED
:105090007C90449044A044A0444858A841188208F9
:1050A00000000000B9A601000100F90023F0211062
:1050B00021102110211021103910C21002100410EB
:1050C000086000000000D2C60000002000780CE458
:1050D0007904516810307E6019981A3C2FE448E436
:1050E0000838003000600000D1A10000012001203C
:1050F00003FC62203420042003FC240021B0212082
:105100002220323E18000FE00000D4F10000000021
:1051100010FC1304110C3DF8703E10D015907CF07B
:10512000503E18101BFE023000200000CFEE0000A1
:10513000000003FE00607C4012FC110411061136D1
:1051400011241F44794400C0009C01860000C4BFA4
:10515000000000000FE03C18200820043E0460041A
:1051600060047E046004200C20081FF00180000011
:10517000B6CC0000080011FC103E3EF82D8C29042E
:10518000490409043E8C50FC10881EC811FC100E06
:105190000000B0B400000040006012FE13023A426A
:1051A0007F4410C41BFE3C987190113011A0007810
:1051B000004C0000C8B70000004000F878C41F8C05
:1051C000313821EC2126413A7DE2272225FA3D267D
:1051D000012401040000B6A80000010001705FFC7A
:1051E000700420042FF801001100113821C431008F
:1051F0003F0063E040380000B3A40000000008183E
:10520000086008C00B001E00181C7FF01000118001
:1052100010E01838098E0F000000B0B40000004004
:10522000006012FE13023A427F4410C41BFE3C98F9
:105230007190113011A00078004C0000B7B500004B
:10524000000007F80600240014F8078C0404240862
:10525000261825F0647C64C220801FC00000BBD8E3
:10526000000000001FF030182008278C2C44284430
:1052700028442CC427842004300C1FF8038000002D
:10528000000000000000000000000000000000001E
:10529000000000000000000000000000000000000E
:1052A0000000B4BF000000000000020100063FC083
:1052B0000C3FE01803001002003336603726203E12
:1052C00066301C643018642031FEE03F1FC01C0CA7
:1052D00000000C000704003E07F00001C0000000C1
:1052E000000000000000000000000000C9AB00004A
:1052F0000000000001FE0003E3000703000C0300B0
:105300001C3F003BFFC03F30600C30200C30200CB5
:1053100010200C10600FFFC0083F000800000800BC
:10532000600E3FE007FC00000000000000000000ED
:10533000000000000000CCEE0000000000000003B0
:105340000000FFE00C07F00C06000CFF803FF0E0CF
:105350001FC0600CFE300CCC3004F83004FF200479
:10536000C0201FFE603EC06001FFF001FFF0006042
:10537000600040000000000000000000000000008D
:10538000B3E400000000000000200000300007FF30
:10539000F03FFFE00300000601800C01800801C01F
:1053A0001807E00FFE7007E0000206000604000484
:1053B00004000404000C06700C07E000000000006C
:1053C00000000000000000000000B2E20000000049
:1053D000000000003039FC301FCC300706B00F064B
:1053E000F01907B03137B03136F01F27F00167F000
:1053F00001E5F001E1F00041F00CF8B03CD83000DC
:105400008C30008030000000000000000000000030
:1054100000000000CAD40000000000000803600C77
:1054200003700C0330003FE0003F800801003C01A6
:1054300080047F80047D800C00800C10C00C10C0A4
:105440000C18400C1C600F7E6006703000003000AD
:105450000000000000000000000000000000CEC4BA
:1054600000000000C00000E00000700001FFE01F2D
:10547000FFC0180100000300000600000E00001C21
:10548000000E180007300001E00000F00000FC00F2
:10549000018F000303C00201E000000000000000D3
:1054A0000000000000000000D7D60000000000004F
:1054B000002000003F0031FFE03FC02038003030C6
:1054C000FE2033C660100200000C00001800001817
:1054D00000000C0007FFE03FFFE0000400000C00AC
:1054E000000C0000000000000000000000000000B0
:1054F0000000CFD400000000000007FF000F03C031
:105500000C00401FF8601800600800400E01C00742
:10551000FF000000000184000184001987800F8CC7
:10552000E0078C2000CC0003FFE01FFFC00000005C
:10553000000000000000000000000000CABE0000E3
:10554000000000000E00001FFFC0007FE000000010
:10555000000000000000000000003FC03FFFE0002E
:1055600030000030000030000613000C13C00C188F
:10557000F0181800181800000000000000000000DB
:10558000000000000000CDBC00000000000007FF8C
:10559000000F03801CC0C019FC6011C660330620D8
:1055A00033E63036FF30301FF030703030FC3033AF
:1055B0009F3036002010E060187C400E01C003FFD1
:1055C00000003800000000000000000000000000A3
:1055D000C6AC0000000000000818001808001808F9
:1055E00000180800180C201FFFF01FF8001800001A
:1055F00010000010F8001FFE001E03001003001032
:105600000300100300100300180200000000000057
:1056100000000000000000000000CFD400000000E7
:10562000000007FF000F03C00C00401FF8601800C7
:10563000600800400E01C007FF0000000001840068
:105640000184001987800F8CE0078C2000CC0003B8
:10565000FFE01FFFC000000000000000000000008D
:1056600000000000CABE0000000000000E00001F85
:10567000FFC0007FE000000000000000000000000C
:1056800000003FC03FFFE00030000030000030006D
:105690000613000C13C00C18F0181800181800009E
:1056A0000000000000000000000000000000B4A5A1
:1056B0000000000000000601800FC1801E618030E4
:1056C0004FC020CFE0078D303FC930337930337978
:1056D000303FFB3037FF203267E03FE3803FE3C0DD
:1056E0003263603267F0304FB0000000000000000D
:1056F0000000000000000000C3FE000000000000E9
:105700000030C000FFF00C79C00C1F800C7FE03F20
:10571000E0600CC0300CFC3004C03007C0301E60AC
:10572000603C3FC0041C00047FE000FFE00030C08C
:1057300000606000000000000000000000000000A9
:105740000000CAE40000000000000C03800C0FC041
:10575000081C703F70001F9FC0101FC01000003653
:105760007C3017E6301FE3B0067FB00277F007E326
:10577000F03F7FF01336F0032630032630000000A0
:10578000000000000000000000000000C8EB000066
:105790000000000006000003800001C00000E000DF
:1057A00000700000780000CC0000C60001830003F8
:1057B00001800700C00600E00C00701800301800DF
:1057C00000300000000000000000000000000000A9
:1057D00000000000000000000000000000000000C9
:1057E00000000000000000000000000000000000B9
:1057F00000000000000000000000000000000000A9
:105800000000000000000000000000000000000098
:105810000000000000000000000000000000000088
:1058200000404040404040404040414141414140B3
:105830004040404040404040404040404040404068
:1058400040050202020202020202020202020202F7
:1058500002202020202020202020200202020202FC
:105860000202909090909090101010101010101054
:105870001010101010101010101010100202020260
:1058800002028888888888880808080808080808A4
:1058900008080808080808080808080802020202A0
:1058A00040000000215800086D717474732E686503
:1058B000636C6F7564732E636F6D000041542B4DE4
:1058C000515454555345524346473D302C312C22B8
:1058D000636F6F6C626F78222C2267377352363594
:1058E00065694F31222C2276657273696F6E3D3285
:1058F0003031382D31302D3331267265733D707261
:105900006F64756374732532466737735236356535
:10591000694F312532466465766963657325324681
:10592000636F6F6C626F782665743D323035323943
:105930003134363431266D6574686F643D6D64357D
:10594000267369676E3D5A726E30564D4346436CFE
:105950004B5451614E4D575A576274772533442545
:105960003344222C302C302C2222000041542B4D69
:105970005154545055423D302C302C2224737973AD
:105980002F67377352363565694F312F636F6F6CF0
:10599000626F782F7468696E672F70726F706572AE
:1059A00074792F7365745F7265706C79222C227B19
:1059B000226964223A222564222C22636F646522C4
:1059C0003A3230302C226D7367223A22737563634A
:1059D000227D222C302C300041542B4D51545450F8
:1059E00055423D302C22247379732F67377352361A
:1059F0003565694F312F636F6F6C626F782F7468F4
:105A0000696E672F70726F70657274792F706F7323
:105A100074222C227B5C2269645C223A5C22313243
:105A2000335C225C2C5C22706172616D735C223A83
:105A30007B5C22636F325F76616C75655C223A7BBA
:105A40005C2276616C75655C223A25647D7D7D22E1
:105A50002C302C300000000041542B4D5154545038
:105A600055423D302C22247379732F673773523699
:105A70003565694F312F636F6F6C626F782F746873
:105A8000696E672F70726F70657274792F706F73A3
:105A900074222C227B5C2269645C223A5C223132C3
:105AA000335C225C2C5C22706172616D735C223A03
:105AB0007B5C2248756D695C223A7B5C2276616C66
:105AC00075655C223A25647D7D7D222C302C30006A
:105AD00041542B4D5154545055423D302C22247387
