:020000040800F2
:100000002004002049010008D9020008AD020008C0
:10001000D5020008910100084F0900080000000007
:10002000000000000000000000000000E9030008DC
:100030009501000800000000F1020008D504000846
:100040006301000863010008630100086301000800
:1000500063010008630100086301000863010008F0
:1000600063010008630100086301000863010008E0
:1000700063010008630100086301000863010008D0
:1000800063010008630100086301000863010008C0
:1000900063010008630100086301000863010008B0
:1000A00063010008630100086301000863010008A0
:1000B0006301000863010008630100086301000890
:1000C0006301000863010008630100086301000880
:1000D00063010008250700086301000863010008A8
:1000E0006301000863010008630100086301000860
:1000F0006301000863010008630100086301000850
:10010000630100086301000863010008630100083F
:10011000630100086301000863010008630100082F
:10012000630100086301000863010008630100081F
:10013000DFF810D000F01AF800480047BD090008A9
:10014000AFF300802004002006488047064800479F
:10015000FEE7FEE7FEE7FEE7FEE7FEE7FEE7FEE777
:10016000FEE7FEE7D904000831010008064C074D00
:1001700006E0E06840F0010394E807009847103477
:10018000AC42F6D3FFF7D8FF7C0A00089C0A0008AF
:1001900000BFFEE770472DE9F0410246002500262A
:1001A000002000230024002791F803C00CF00F0565
:1001B00091F803C00CF0100CBCF1000F03D091F8C3
:1001C00002C04CEA050591F800C0BCF1000F31D027
:1001D000146800202BE04FF0010C0CFA00F3B1F88A
:1001E00000C00CEA03069E4220D183004FF00F0CA2
:1001F0000CFA03F7BC4305FA03FC4CEA040491F83B
:1002000003C0BCF1280F06D14FF0010C0CFA00FC22
:10021000C2F814C00AE091F803C0BCF1480F05D140
:100220004FF0010C0CFA00FCC2F810C0401C08286A
:10023000D1D31460B1F800C0BCF1FF0F34DD5468B5
:1002400000202EE000F1080C4FF0010808FA0CF332
:10025000B1F800C00CEA03069E4221D183004FF0A2
:100260000F0C0CFA03F7BC4305FA03FC4CEA040438
:1002700091F803C0BCF1280F05D100F1080C08FA71
:100280000CF8C2F8148091F803C0BCF1480F07D1F4
:1002900000F1080C4FF0010808FA0CF8C2F81080C1
:1002A000401C0828CED35460BDE8F08100BFFEE7B3
:1002B00010B54FF4A06000F011F8482000F03CF9B0
:1002C0004FF4E13000F048FA40F26711632000F08B
:1002D00085FB10BD00BFFEE77047000002490143E7
:1002E000024A1160704700000000FA050CED00E0C2
:1002F0007047000029B1064A92690243044B9A6193
:1003000004E0034A92698243014B9A6170470000FE
:100310000010024030B500210022002400232D4DA2
:100320006D6805F00C0121B1042905D0082923D1FD
:1003300005E0294D056022E0274D05601FE0254DB1
:100340006D6805F47012234D6D6805F48034022544
:1003500005EB92421CB9214D554305600BE01D4D44
:100360006D6805F400351DB11C4D5543056002E074
:10037000194D5543056002E0174D056000BF00BFF1
:10038000144D6D6805F0F0010909154D6B5C0568A9
:10039000DD4045600F4D6D6805F4E061090A104DC0
:1003A0006B5C4568DD4085600A4D6D6805F4605101
:1003B000C90A0B4D6B5C4568DD40C560054D6D6835
:1003C00005F44041890B074D6B5CC568B5FBF3F53F
:1003D000056130BD0010024000127A0000093D00A6
:1003E0000000002010000020704710B500F002F857
:1003F00010BD00000CB5002001900090334800684B
:1004000040F480303149086000BF3048006800F493
:10041000003000900198401C0190009818B9019894
:10042000B0F5A06FF1D12948006800F4003010B198
:100430000120009001E0002000900098012843D1A5
:100440002348006840F01000214908600846006811
:1004500020F0030008600846006840F002000860D1
:100460001A4840681949486008464068486008468C
:10047000406840F4806048600846406820F47C1082
:1004800048600846406840F4E81048600846006844
:1004900040F08070086000BF0C48006800F00070F9
:1004A0000028F9D00948406820F003000749486057
:1004B0000846406840F00200486000BF03484068BA
:1004C00000F00C000828F9D10CBD0000001002401B
:1004D000002002407047000010B51348006840F04B
:1004E00001001149086008464068104908400E495B
:1004F0004860084600680E4908400B4908600846F5
:10050000006820F4802008600846406820F4FE005F
:1005100048604FF41F008860FFF767FF4FF00060EE
:100520000449086010BD0000001002400000FFF800
:10053000FFFFF6FE08ED00E04FF0E021096921F031
:1005400004014FF0E0221161C21700EB5272D21089
:10055000044B1A60194609684FF47A725143024AF3
:1005600011607047180000201400002021B102889B
:1005700042F08002028004E002884FF67F731A4046
:100580000280704721B1028842F00102028004E03B
:1005900002884FF6FE731A400280704731B1B0F8FE
:1005A000442042F40042A0F8442005E0B0F8442082
:1005B000C2F30E02A0F844207047000070B500247A
:1005C00000220023058C4FF6FE7635400584028C10
:1005D0008388048B4FF68F752C40B51E2C400D88F8
:1005E0002C43751E2A400D892A434D882A43144DF9
:1005F000A8420BD0134DA84208D0134DA84205D0F5
:10060000124DA84202D0124DA84213D14FF6F775F1
:100610002A404D892A434FF6FB752A408D882A438C
:100620004FF6FF652B404FF6FF552B408D892B432E
:10063000CD892B4383800483CD888586028470BD59
:10064000002C0140003401400040014000440140C2
:10065000004801400A460021018B4FF6F77319400C
:100660001143018370470021018041808180C18056
:10067000018141818181C18170478186704700007D
:10068000002202881D4B98420ED01D4B98420BD081
:10069000B0F1804F08D01B4B984205D01A4B9842BE
:1006A00002D01A4B984204D14FF68F731A404B88F0
:1006B0001A43174B984207D0164B984204D04FF676
:1006C000FF431A40CB881A4302808B8883850B88AE
:1006D00003850A4B98420BD0094B984208D00E4B29
:1006E000984205D00D4B984202D00D4B984201D153
:1006F0000B7A03860123838270470000002C01409F
:10070000003401400004004000080040000C00409C
:10071000001000400014004000400140004401402F
:100720000048014010B540F225510A4800F06FF82A
:1007300001280DD140F22551064800F04DF805483A
:1007400000F0FCF804462146024800F0FCF800BF27
:1007500010BD00000038014010B586B004460121EC
:1007600044F20500FFF7C6FD18208DF817004FF47E
:100770000070ADF8140003208DF8160005A9144888
:10078000FFF709FD48208DF817004FF48060ADF8A1
:10079000140003208DF8160005A90D48FFF7FBFC97
:1007A00001940020ADF810000C20ADF80E000020E0
:1007B000ADF80C00ADF80A00ADF8080001A9054835
:1007C00000F050F80121034800F015F806B010BD04
:1007D000000801400038014010B50022002340F617
:1007E0006A14A14200D100BF0A1201249440A3B2AE
:1007F000DC43048010BD21B1828942F40052828121
:1008000004E082894DF6FF731A408281704770B50B
:100810000246002400230025002040F66A16B1425B
:1008200000D100BFC1F3421501F01F03012606FAF3
:1008300003F3012D02D19689334006E0022D02D147
:10084000168A334001E0968A33400C12012606FADC
:1008500004F41688344013B10CB1012000E00020EC
:1008600070BD00002DE9F04786B005460E46002415
:10087000A24600BFA1460027B08900B100BF2F46A5
:100880002C8A4CF6FF700440F08804432C82AC891B
:100890004EF6F3100440B08831890843718908434B
:1008A0000443AC81AC8A4FF6FF400440B089044356
:1008B000AC8201A8FFF72EFD1F48874202D1DDF868
:1008C00010A001E0DDF80CA0A88900F4004040B1C0
:1008D0000AEBCA0000EB0A1031684900B0FBF1F8DE
:1008E00007E00AEBCA0000EB0A1031688900B0FB90
:1008F000F1F86420B8FBF0F004012009642101FB49
:100900001089A88900F4004040B1322000EBC900F2
:10091000B0FBF1F000F00700044308E0322000EBE8
:1009200009106421B0FBF1F000F00F0004432C81AA
:1009300006B0BDE8F0870000003801400146888815
:10094000C0F308007047C1F308028280704700BFFF
:10095000FEE702E008C8121F08C1002AFAD170475A
:100960007047002001E001C1121F002AFBD170472F
:100970000146114A12684A434FF0E0235A610022AF
:100980009A611A46126942F001021A6100BF4FF0E3
:10099000E022106900F001021AB100F48032002A4E
:1009A000F5D04FF0E022126922F001024FF0E0236F
:1009B0001A6100229A61704714000020FFF778FC4A
:1009C00000BF00BF06E05A210348FFF756FE05208E
:1009D000FFF7CEFFF7E70000002C014030B589B0EB
:1009E00005460C46012140F60500FFF783FC182060
:1009F0008DF823004FF48070ADF8200003208DF8AF
:100A0000220008A91B48FFF7C6FB0020ADF81A001A
:100A1000ADF81600ADF81850ADF814408DF81C0074
:100A200005A91548FFF72CFE01A8FFF71CFE602062
:100A3000ADF804000020ADF80C000120ADF8060070
:100A40000020ADF80A0001A90B48FFF7B7FD01210E
:100A50000948FFF7A3FD01210748FFF787FD08219B
:100A60000548FFF7F7FD01210348FFF78BFD09B0AB
:100A700030BD000000080140002C01409C0A000825
:100A8000000000201C00000052090008B80A0008FD
:100A90001C0000200404000062090008000000009F
:100AA0000102030401020304060708090204060800
:080AB00000000000000000003E
:0400000508000131BD
:00000001FF
