:020000040800F2
:1000000020040020490100083D030008B102000857
:1000100039030008910100081F0A000800000000D1
:10002000000000000000000000000000DD040008E7
:100030009501000800000000C5030008C90500087C
:100040006301000863010008630100086301000800
:1000500063010008630100086301000863010008F0
:1000600063010008630100086301000863010008E0
:1000700063010008630100086301000863010008D0
:1000800063010008630100086301000863010008C0
:1000900063010008630100086301000863010008B0
:1000A00063010008630100086301000863010008A0
:1000B0006301000863010008630100086301000890
:1000C0006301000863010008630100086301000880
:1000D00063010008F50700086301000863010008D8
:1000E0006301000863010008630100086301000860
:1000F0006301000863010008630100086301000850
:10010000630100086301000863010008630100083F
:10011000630100086301000861060008630100082C
:10012000630100086301000863010008630100081F
:10013000DFF810D000F01AF800480047410A000824
:10014000AFF300802004002006488047064800479F
:10015000FEE7FEE7FEE7FEE7FEE7FEE7FEE7FEE777
:10016000FEE7FEE7CD05000831010008064C074D0B
:1001700006E0E06840F0010394E807009847103477
:10018000AC42F6D3FFF7D8FF540A0008740A0008FF
:1001900000BFFEE770472DE9F0410246002500262A
:1001A000002000230024002791F803C00CF00F0565
:1001B00091F803C00CF0100CBCF1000F03D091F8C3
:1001C00002C04CEA050591F800C0BCF1000F31D027
:1001D000146800202BE04FF0010C0CFA00F3B1F88A
:1001E00000C00CEA03069E4220D183004FF00F0CA2
:1001F0000CFA03F7BC4305FA03FC4CEA040491F83B
:1002000003C0BCF1280F06D14FF0010C0CFA00FC22
:10021000C2F814C00AE091F803C0BCF1480F05D140
:100220004FF0010C0CFA00FCC2F810C0401C08286A
:10023000D1D31460B1F800C0BCF1FF0F34DD5468B5
:1002400000202EE000F1080C4FF0010808FA0CF332
:10025000B1F800C00CEA03069E4221D183004FF0A2
:100260000F0C0CFA03F7BC4305FA03FC4CEA040438
:1002700091F803C0BCF1280F05D100F1080C08FA71
:100280000CF8C2F8148091F803C0BCF1480F07D1F4
:1002900000F1080C4FF0010808FA0CF8C2F81080C1
:1002A000401C0828CED35460BDE8F081016170473E
:1002B00000BFFEE710B54FF4A06000F079F84820C9
:1002C00000F0B4F94FF4E13000F0AEFA00F008F8B5
:1002D0004FF4E15141F2883000F05CFA10BD0000AB
:1002E00008B50121182000F07FF80420ADF80000C7
:1002F00010208DF8030003208DF8020069460C4899
:10030000FFF749FF2020ADF8000010208DF8030012
:1003100003208DF8020069460648FFF73CFF0421E0
:100320000348FFF7C3FF20210248FFF7BFFF08BDC6
:10033000000C01400010014000BFFEE770470000C4
:1003400070B5002100230F22C47804B3154C246833
:1003500004F4E064C4F5E064210AC1F10403CA4076
:10036000447804FA03F184781440214309010E4CC7
:100370000678A155047804F01F050124AC400578E7
:100380006D11AD0005F1E025C5F8004109E00478E4
:1003900004F01F050124AC40044D0678761145F8A1
:1003A000264070BD0CED00E000E400E080E100E0DC
:1003B00002490143024A1160704700000000FA053B
:1003C0000CED00E07047000029B1064AD2690243F3
:1003D000044BDA6104E0034AD2698243014BDA61DB
:1003E000704700000010024029B1064A926902439A
:1003F000044B9A6104E0034A92698243014B9A617B
:10040000704700000010024030B500210022002497
:1004100000232D4D6D6805F00C0121B1042905D094
:10042000082923D105E0294D056022E0274D05600C
:100430001FE0254D6D6805F47012234D6D6805F4BD
:100440008034022505EB92421CB9214D55430560CD
:100450000BE01D4D6D6805F400351DB11C4D554375
:10046000056002E0194D5543056002E0174D056037
:1004700000BF00BF144D6D6805F0F0010909154D6E
:100480006B5C0568DD4045600F4D6D6805F4E0610B
:10049000090A104D6B5C4568DD4085600A4D6D684A
:1004A00005F46051C90A0B4D6B5C4568DD40C560C1
:1004B000054D6D6805F44041890B074D6B5CC568BF
:1004C000B5FBF3F5056130BD0010024000127A0063
:1004D00000093D000000002010000020704710B50A
:1004E00000F002F810BD00000CB500200190009053
:1004F0003348006840F480303149086000BF30481C
:10050000006800F4003000900198401C01900098B1
:1005100018B90198B0F5A06FF1D12948006800F42E
:10052000003010B10120009001E000200090009800
:10053000012843D12348006840F010002149086099
:100540000846006820F0030008600846006840F094
:10055000020008601A484068194948600846406827
:1005600048600846406840F480604860084640683B
:1005700020F47C1048600846406840F4E810486069
:100580000846006840F08070086000BF0C480068B2
:1005900000F000700028F9D00948406820F00300FE
:1005A000074948600846406840F00200486000BFC4
:1005B0000348406800F00C000828F9D10CBD000089
:1005C00000100240002002407047000010B51348A0
:1005D000006840F001001149086008464068104971
:1005E00008400E494860084600680E4908400B491B
:1005F00008600846006820F48020086008464068CB
:1006000020F4FE0048604FF41F008860FFF767FF8A
:100610004FF000600449086010BD00000010024067
:100620000000FFF8FFFFF6FE08ED00E04FF0E021CC
:10063000096921F004014FF0E0221161C21700EBBB
:100640005272D210044B1A60194609684FF47A723C
:100650005143024A11607047180000201400002026
:1006600010B501210D4800F030F8012814D1012106
:100670000A4800F01BF80A48006808B9012000E0A9
:100680000020074908600748D0F8940108B9012004
:1006900000E000200449086010BD00000010004088
:1006A000888121420000224294012242CA430282F0
:1006B000704721B1028842F00102028004E0028802
:1006C0004FF6FE731A400280704702460020138ADC
:1006D0000B400BB1012000E0002070471AB1838964
:1006E0000B43838102E083898B4383817047000041
:1006F000002202881D4B98420ED01D4B98420BD011
:10070000B0F1804F08D01B4B984205D01A4B98424D
:1007100002D01A4B984204D14FF68F731A404B887F
:100720001A43174B984207D0164B984204D04FF605
:10073000FF431A40CB881A4302808B8883850B883D
:1007400003850A4B98420BD0094B984208D00E4BB8
:10075000984205D00D4B984202D00D4B984201D1E2
:100760000B7A03860123838270470000002C01402E
:10077000003401400004004000080040000C00402C
:1007800000100040001400400040014000440140BF
:10079000004801407FB505460C4601211020FFF7B7
:1007A00013FE0020ADF80600ADF80200ADF80450CD
:1007B000ADF800408DF8080069460D48FFF798FF36
:1007C000012211460A48FFF789FF36208DF80C00F8
:1007D00001208DF80F008DF80D008DF80E0003A894
:1007E000FFF7AEFD01210248FFF763FF7FBD000068
:1007F0000010004010B540F225510A4800F06FF893
:1008000001280DD140F22551064800F04DF8054869
:1008100000F0FCF804462146024800F0FCF800BF56
:1008200010BD00000038014010B586B0044601211B
:1008300044F20500FFF7D8FD18208DF817004FF49B
:100840000070ADF8140003208DF8160005A91448B7
:10085000FFF7A1FC48208DF817004FF48060ADF839
:10086000140003208DF8160005A90D48FFF793FC2E
:1008700001940020ADF810000C20ADF80E0000200F
:10088000ADF80C00ADF80A00ADF8080001A9054864
:1008900000F050F80121034800F015F806B010BD33
:1008A000000801400038014010B50022002340F646
:1008B0006A14A14200D100BF0A1201249440A3B2DD
:1008C000DC43048010BD21B1828942F40052828150
:1008D00004E082894DF6FF731A408281704770B53B
:1008E0000246002400230025002040F66A16B1428B
:1008F00000D100BFC1F3421501F01F03012606FA23
:1009000003F3012D02D19689334006E0022D02D176
:10091000168A334001E0968A33400C12012606FA0B
:1009200004F41688344013B10CB1012000E000201B
:1009300070BD00002DE9F04786B005460E46002444
:10094000A24600BFA1460027B08900B100BF2F46D4
:100950002C8A4CF6FF700440F08804432C82AC894A
:100960004EF6F3100440B08831890843718908437A
:100970000443AC81AC8A4FF6FF400440B089044385
:10098000AC8201A8FFF740FD1F48874202D1DDF885
:1009900010A001E0DDF80CA0A88900F4004040B1EF
:1009A0000AEBCA0000EB0A1031684900B0FBF1F80D
:1009B00007E00AEBCA0000EB0A1031688900B0FBBF
:1009C000F1F86420B8FBF0F004012009642101FB78
:1009D0001089A88900F4004040B1322000EBC90022
:1009E000B0FBF1F000F00700044308E0322000EB18
:1009F00009106421B0FBF1F000F00F0004432C81DA
:100A000006B0BDE8F0870000003801400146888844
:100A1000C0F308007047C1F308028280704700BF2E
:100A2000FEE702E008C8121F08C1002AFAD1704789
:100A30007047002001E001C1121F002AFBD170475E
:100A4000FFF738FC01200249086000BFFEE7000004
:100A500094012242740A0008000000201C000000DB
:100A6000220A0008900A00081C000020040400006C
:100A7000320A00080000000001020304010203041E
:100A80000607080902040608000000000000000034
:0400000508000131BD
:00000001FF
