:020000040800F2
:10000000300400204901000849130008F90E0008D7
:100010000D1300083B0A0008031900080000000047
:100020000000000000000000000000003D15000876
:10003000F10A000800000000D1130008291600088A
:100040006301000863010008630100086301000800
:1000500063010008630100086301000863010008F0
:10006000F50A000863010008630100086301000845
:1000700063010008630100086301000863010008D0
:1000800063010008630100086301000863010008C0
:1000900063010008630100086301000863010008B0
:1000A00063010008630100086301000863010008A0
:1000B0006301000863010008630100086301000890
:1000C0006301000863010008630100086301000880
:1000D00063010008C11600086301000863010008FD
:1000E0006301000863010008630100086301000860
:1000F0006301000863010008630100086301000850
:10010000630100086301000863010008630100083F
:10011000630100086301000863010008630100082F
:10012000630100086301000863010008630100081F
:10013000DFF810D000F0C6FA00480047012300089D
:10014000AFF300803004002006488047064800478F
:10015000FEE7FEE7FEE7FEE7FEE7FEE7FEE7FEE777
:10016000FEE7FEE72D160008310100082DE9FE4FDD
:1001700081EA030404F0004421F0004100944FF0B0
:10018000000B23F0004350EA01045ED052EA03045E
:100190005BD0C3F30A54C1F30A552C44A4F2F334E0
:1001A0000194A0FB0254C1F3130141F48011C3F385
:1001B000130343F4801301FB024400FB034E840A43
:1001C000970A44EA815447EA8357A4FB07680295DB
:1001D0008D0A05FB07854FEA932C04FB0C54270579
:1001E000029D4FEA065847EA1637B5EB08056EEB55
:1001F000070C870E920E47EA811742EA8312A7FB8B
:100200000201B6EB0B0164EB00042B0D43EA0C3347
:100210005E1844EB1C50DA465146E7FB0201C5F379
:1002200013044FEA0B3343EA14534FEA0432019CA0
:1002300043EA0603A4F10C040294009CCDE900B447
:1002400000F01AF903B0BDE8F08F00200146F9E78D
:100250002DE9F04D81EA030404F0004B21F0004544
:1002600014464FF0000A23F0004150EA050220D066
:1002700054EA01021DD0C5F30A570246C5F3130321
:10028000C1F31300C1F30A5640F4801543F4801300
:10029000A7EB0608101BD64608F2FD3873EB0500E5
:1002A00002D308F1010801E092185B41B8F1000F98
:1002B00003DA00200146BDE8F08D00204FF48011E4
:1002C000064684460EE0171B73EB050705D3121B89
:1002D00063EB050306434CEA010C49084FEA300082
:1002E00092185B4150EA0107EDD152EA030012D0A7
:1002F00082EA040083EA0501084305D0101BAB41E4
:1003000006D20122002306E000224FF0004302E063
:100310006FF0010253101AEB06004CEB085110EB82
:100320000A0041EB0B01BDE8F04D00F096B89623B2
:100330000022114600F063B800F0004230F00040A7
:100340000AD0C10D01F56071C0F3160042EA0151F7
:10035000C20840071143704700200146704730B57E
:100360000B46014600202022012409E021FA02F573
:100370009D4205D303FA02F5491B04FA02F528440D
:10038000151EA2F10102F1DC30BD2DE9F05F05463A
:10039000002092469B4688460646814640241BE044
:1003A000284641464746224600F0ADF953465A4694
:1003B000C01A914110D311461846224600F094F914
:1003C0002D1A67EB01084F4622460120002100F05C
:1003D0008BF917EB00094E41201EA4F10104DFDC6C
:1003E000484631462A464346BDE8F09F0029A8BF4B
:1003F0007047401C490008BF20F00100704710B44E
:10040000B0FA80FC00FA0CF050EA010404BF10BC02
:10041000704749B1CCF1200421FA04F411FA0CF12F
:1004200018BF012121430843A3EB0C01CB1D4FEA68
:1004300000614FEA102042BF002010BC704700EB63
:10044000C35010440029A4BF10BC7047401C490091
:1004500008BF20F0010010BC704710B5141E73F1E6
:10046000000408DA401C41F1000192185B411A4374
:1004700001D120F0010010BD2DE9F04D92469B46C0
:1004800011B1B1FA81F202E0B0FA80F22032904666
:1004900000F02AF904460F4640EA0A0041EA0B013F
:1004A00053465A46084313D0114653EA010019D067
:1004B000C8F14002504600F026F905460E46504667
:1004C0005946424600F010F9084305D0012004E0E7
:1004D00020463946BDE8F08D0020054346EAE07627
:1004E0002C4337430A986305E40AA0EB0800002276
:1004F000FD0A44EA47540A3002D500200146E9E7E4
:10050000010510196941DDE9084500196941BDE897
:10051000F04DA2E72DE9FE4F804681EA0300C00FAF
:100520000C46009021F0004123F00045B8EB02009A
:10053000A94105D24046214690461C460B4602463C
:1005400023F00040104347D0270DC7F30A00C3F340
:100550000A510290401A019040286BDAC3F313004D
:1005600040F4801B0098924620B10023D2EB030A8E
:1005700063EB0B0B01985946C0F14002504600F066
:10058000B3F806460D4650465946019A00F0CBF89E
:1005900010EB08006141002487EA115284EAE773F6
:1005A0001A4340D0009A62B3019A012A4FEA0752D7
:1005B00015DC001B61EB02014FF0004202EA07521A
:1005C000CDE90042001C41F5801132462B46FFF771
:1005D00053FF03B0BDE8F08F40462146F9E7001B0A
:1005E00061EB0201001C41F5801300185B412018EB
:1005F000A2F5001747EB030140EAD570B6196D412B
:1006000011E06D084FEA360645EAC0754FEA075219
:10061000001B61EB0201001C41F5801149084FEA03
:1006200030000019514132462B4603B0BDE8F04F6F
:10063000FFF713BF0098012240000023D0EB020215
:1006400063EBE073009821464FEAE074B8EB0000DA
:1006500061EB0401E9E783F000435BE781F00041CF
:1006600058E7C1F30A52C1F3130140F2FF3341F4DA
:1006700080119A4202DA00200146704740F233436B
:100680009A42A2F2334202DC524200F03CB800F03F
:100690002BB8000030B5041E71F1000404DB4FF0EC
:1006A0000044404264EB0101141E73F1000405DBB9
:1006B0001C464FF00043524263EB0403994208BFCB
:1006C000904230BD064C074D06E0E06840F0010363
:1006D00094E8070098471034AC42F6D3FFF72CFD9E
:1006E0008C230008AC230008202A04DB203A00FAFF
:1006F00002F1002070479140C2F1200320FA03F379
:10070000194390407047202A04DB203A21FA02F076
:100710000021704721FA02F3D040C2F1200291403B
:10072000084319467047202A06DBCB17203A41FAC6
:1007300002F043EAE07306E041FA02F3D040C2F16E
:1007400020029140084319467047000000B587B069
:10075000012140F2052000F059FE4FF4004000F066
:1007600039FE00208DF807001020ADF8040001A923
:100770001E4800F0A3FA01208DF80D00002005901E
:100780004FF4602004900020029002208DF81800A1
:1007900001208DF80C0002A9154800F0B5F80723D8
:1007A00001220421124800F0D7F80121104800F07E
:1007B00078F80F4800F02CF900BF0D4800F09AF8C7
:1007C0000128FAD00A4800F033F903E00121084873
:1007D00000F072F8064800F07AF80128F6D00121FE
:1007E000034800F01AF907B000BD000000080140FE
:1007F0000024014000B587B0012140F2112000F033
:1008000005FE4FF4004000F0E5FD00208DF80700E4
:100810000420ADF8040001A91E4800F04FFA0120A1
:100820008DF80D00002005904FF46020049000200A
:10083000029002208DF8180001208DF80C0002A90A
:10084000154800F061F8072302220C21124800F03D
:1008500083F80121104800F024F80F4800F0D8F880
:1008600000BF0D4800F046F80128FAD00A4800F011
:10087000DFF803E00121084800F01EF8064800F008
:1008800026F80128F6D00121034800F0C6F807B089
:1008900000BD00000010014000240140CA43026076
:1008A000704721B1826842F00102826003E08268F1
:1008B00022F001028260704721B1826842F48072A6
:1008C000826003E0826822F4807282607047014691
:1008D00000208A6802F004020AB1012000E0002032
:1008E00070470246002013680B400BB1012000E066
:1008F00000207047014600208A6802F008020AB111
:10090000012000E00020704730B50246002000239F
:1009100050680F4C20400D790C6844EA05242043B0
:10092000506090680B4C2040D1E902542C434D7923
:1009300044EA450420439060D06A20F470000C7CA7
:10094000641EE4B2234340EA0350D06230BD00008D
:10095000FFFEF0FFFDF7F1FFF0B504460D46002065
:100960000021092D11DDE068A5F10A0606EB460716
:10097000072606FA07F18843A5F10A0606EB4606A4
:1009800003FA06F10843E0600CE0206905EB450737
:10099000072606FA07F1884305EB450603FA06F138
:1009A00008432061072A0FDA606B561E06EB8607A4
:1009B0001F2606FA07F18843561E06EB860605FA3F
:1009C00006F10843606322E00D2A0FDA206BD61F80
:1009D00006EB86071F2606FA07F18843D61F06EBAB
:1009E000860605FA06F10843206310E0E06AA2F1EA
:1009F0000D0606EB86071F2606FA07F18843A2F1CB
:100A00000D0606EB860605FA06F10843E062F0BD26
:100A1000816841F008018160704721B1826842F429
:100A2000A002826003E0826822F4A0028260704724
:100A3000816841F004018160704700BFFEE700005B
:100A400000B58BB00121084600F0D0FC02200390D5
:100A5000002002900A900E4801904FF480600790A9
:100A600080200590202008900A480090801506906C
:100A7000002004904FF4405009906946064800F069
:100A800019F80121044800F009F80BB000BD00007E
:100A9000140000204C2401400800024021B10268EB
:100AA00042F00102026004E002684FF6FE731A4051
:100AB0000260704710B50022026847F6F0739A434F
:100AC0000C6A8B6823430C6923434C6923438C696C
:100AD0002343CC6923434C6A23438C6A23431A4340
:100AE0000260CB6843600B6883604B68C36010BDD5
:100AF000704700002DE9F041002400260027002562
:100B0000042000F05DF801283ED100202149086052
:100B100038E00421204800F05CF9012832D100F0CF
:100B2000D5F90446FA2C00DB2DE0552C03DB5F2CB5
:100B300001DA01260AE0192C03DB282C01DA01274F
:100B400004E0082C02DB0F2C00DA0027012E19D15B
:100B50001048006840000F490860084600683843A4
:100B60000860681CC5B2202D0CDB084601680BA08C
:100B700000F0CAFE29460CA000F0C6FE01200C4978
:100B8000087000E0C5E700BF042000F013F8BDE8DE
:100B9000F0810000180000200008014068775F6ABB
:100BA000736D3D25640A00004E756D3D25640A0095
:100BB0001C00002001490860704700001404014037
:100BC000014600200022074B1B6803EA0102054B87
:100BD00014331B680B4013B10AB1012000E0002060
:100BE0007047000000040140002123498279002A57
:100BF0003AD00A46126803689A430B461A600A1DE7
:100C0000126803689A430B1D1A60027911440A683E
:100C100003681A430A60184A0832126803689A4344
:100C2000154B08331A601A1D126803689A43124B59
:100C30000C331A604279102A0ED11A1F1268036809
:100C40001A430D4B08331A601A1D126803681A43C1
:100C5000094B0C331A600DE00749427911440A68C8
:100C600003681A430A6005E0027911440A680368C0
:100C70009A430A60704700000004014030B500222A
:100C80008B071C0F0F2303FA04F20B4B8C1053F845
:100C900024309343084C8D1044F8253023468C10A3
:100CA00053F824308C07240F00FA04F42343024C39
:100CB0008D1044F8253030BD080001402DE9F04189
:100CC000024600250026002000230024002791F87A
:100CD00003C00CF00F0591F803C00CF0100CBCF130
:100CE000000F03D091F802C04CEA050591F800C04E
:100CF000BCF1000F31D0146800202BE04FF0010C44
:100D00000CFA00F3B1F800C00CEA03069E4220D1B1
:100D100083004FF00F0C0CFA03F7BC4305FA03FCF9
:100D20004CEA040491F803C0BCF1280F06D14FF03F
:100D3000010C0CFA00FCC2F814C00AE091F803C0E0
:100D4000BCF1480F05D14FF0010C0CFA00FCC2F8C1
:100D500010C0401C0828D1D31460B1F800C0BCF109
:100D6000FF0F34DD546800202EE000F1080C4FF036
:100D7000010808FA0CF3B1F800C00CEA03069E4221
:100D800021D183004FF00F0C0CFA03F7BC4305FA96
:100D900003FC4CEA040491F803C0BCF1280F05D110
:100DA00000F1080C08FA0CF8C2F8148091F803C09E
:100DB000BCF1480F07D100F1080C4FF0010808FA08
:100DC0000CF8C2F81080401C0828CED35460BDE84F
:100DD000F0810246002093680B400BB1012000E037
:100DE00000207047416170470161704770B5002570
:100DF0000FE000BF02210A48FFF773FD0128F9D177
:100E000008480088204484B202210548FFF746FDC7
:100E10006D1C0A2DEDDB0A2094FBF0F080B270BD52
:100E2000002401401400002070B500250FE000BF31
:100E300002210A48FFF755FD0128F9D108484088EA
:100E4000204484B202210548FFF728FD6D1C0A2DBD
:100E5000EDDB0A2094FBF0F080B270BD002401406D
:100E6000140000201FB50121052000F0CFFA042056
:100E7000ADF80C008DF80F0003A91348FFF71EFF13
:100E800002210020FFF7FAFE0420FFF793FE042062
:100E9000019000208DF8080008208DF8090001203D
:100EA0008DF80A0001A8FFF79FFE08208DF80000CA
:100EB00000208DF8010001208DF802008DF803005C
:100EC000684600F043FA1FBD0008014010B5002439
:100ED00008E0601CC4B2322001F0C0F9FA2C01DB3A
:100EE000204610BD04210348FFF773FF0128F0D00E
:100EF0002046F6E70008014000BFFEE710B54FF4BA
:100F0000A06000F05BFA482000F0C0FB4FF4E13035
:100F100000F0F0FBFFF71AFCFFF76CFC01F0C4F9DE
:100F2000FFF78EFD00F0F4F9FFF79CFF00F079F871
:100F30004FF48060034908604FF6FF7000F058F8E6
:100F400010BD0000100C014008B50121082000F080
:100F50005DFA0121102000F059FA40F20240ADF88C
:100F6000000003208DF8020010208DF80300694670
:100F70001048FFF7A3FE2020ADF8000003208DF8F5
:100F8000020010208DF8030069460B48FFF796FE1B
:100F90000121042000F03AFAA820ADF80000032057
:100FA0008DF8020010208DF8030069460348FFF712
:100FB00085FE08BD000C0140001001400008014002
:100FC00010B5044608200849086002200749086057
:100FD000201200F095FAE0B200F092FA08200249DF
:100FE000091F086010BD000014080140100C0140EA
:100FF00070B506467F231A460021084600F032F9F4
:101000002C2000F06FF9002408E0002503E03046B2
:10101000FFF7D6FF6D1C802DF9D3641C802CF4D310
:1010200070BD10B5FFF790FF00F00CF9112000F033
:1010300059F9782001F0ECF8B12000F053F90120C3
:1010400000F03CF92C2000F039F92D2000F036F9A1
:10105000B22000F047F9012000F030F92C2000F018
:101060002DF92D2000F02AF9B32000F03BF90120E2
:1010700000F024F92C2000F021F92D2000F01EF9B9
:10108000012000F01BF92C2000F018F92D2000F0B1
:1010900015F9B42000F026F9072000F00FF9C02060
:1010A00000F020F9A22000F009F9022000F006F972
:1010B000842000F003F9C12000F014F9C52000F0ED
:1010C000FDF8C22000F00EF90A2000F0F7F8002029
:1010D00000F0F4F8C32000F005F98A2000F0EEF8E3
:1010E0002A2000F0EBF8C42000F0FCF88A2000F081
:1010F000E5F8EE2000F0E2F8C52000F0F3F80E204D
:1011000000F0DCF8362000F0EDF8C82000F0D6F84A
:10111000E02000F0E7F80F2000F0D0F81A2000F0EF
:10112000CDF80F2000F0CAF8182000F0C7F82F20E3
:1011300000F0C4F8282000F0C1F8202000F0BEF82C
:10114000222000F0BBF81F2000F0B8F81B2000F0B0
:10115000B5F8232000F0B2F8372000F0AFF80020F7
:1011600000F0ACF8072000F0A9F8022000F0A6F883
:10117000102000F0A3F8E12000F0B4F80F2000F0F8
:101180009DF81B2000F09AF80F2000F097F8172028
:1011900000F094F8332000F091F82C2000F08EF845
:1011A000292000F08BF82E2000F088F8302000F085
:1011B00085F8302000F082F8392000F07FF83F20D9
:1011C00000F07CF8002000F079F8072000F076F8B5
:1011D000032000F073F8102000F070F82A2000F0CF
:1011E00081F8002000F06AF8002000F067F8002085
:1011F00000F064F87F2000F061F82B2000F072F816
:10120000002000F05BF8002000F058F8002000F00B
:1012100055F89F2000F052F8F02000F063F801200C
:1012200000F04CF8F62000F05DF8002000F046F8E1
:101230003A2000F057F8052000F040F8292000F08F
:1012400051F810BD10B5202005494861642000F018
:10125000DFFF202002490861322000F0D9FF10BDD5
:1012600000100140F0B504460D4616461F462A20E0
:1012700000F038F8002000F021F8A11CC8B200F0FE
:101280001DF8002000F01AF8B11CC8B200F016F8E2
:101290002B2000F027F8002000F010F8E91CC8B25D
:1012A00000F00CF8002000F009F8F91CC8B200F0BA
:1012B00005F82C2000F016F8F0BD000010B504462B
:1012C000082006490860022005490860204600F011
:1012D00017F908200149091F086010BD14080140D2
:1012E000100C014010B50446082006490860022091
:1012F00005490860204600F003F908200149091F4C
:10130000086010BD14080140140C014000BFFEE746
:1013100008B50121082000F079F84FF47070ADF89D
:10132000000010208DF8030003208DF802006946AC
:101330000448FFF7C3FC4FF470710248FFF752FDF9
:1013400008BD0000000C01407047000070B500218E
:1013500000230F22C47804B3154C246804F4E0641D
:10136000C4F5E064210AC1F10403CA40447804FAD8
:1013700003F184781440214309010E4C0678A155ED
:10138000047804F01F050124AC4005786D11AD0010
:1013900005F1E025C5F8004109E0047804F01F05D7
:1013A0000124AC40044D0678761145F8264070BD06
:1013B0000CED00E000E400E080E100E002490143C0
:1013C000024A1160704700000000FA050CED00E0D1
:1013D0007047000001460020034A506820F4404056
:1013E00008435060704700000010024029B1064ACF
:1013F00052690243044B5A6104E0034A5269824332
:10140000014B5A61704700000010024029B1064AA2
:1014100092690243044B9A6104E0034A9269824351
:10142000014B9A61704700000010024030B5002166
:101430000022002400232D4D6D6805F00C0121B120
:10144000042905D0082923D105E0294D056022E0B3
:10145000274D05601FE0254D6D6805F47012234D82
:101460006D6805F48034022505EB92421CB9214DCC
:10147000554305600BE01D4D6D6805F400351DB149
:101480001C4D5543056002E0194D5543056002E0CF
:10149000174D056000BF00BF144D6D6805F0F001E9
:1014A0000909154D6B5C0568DD4045600F4D6D68A1
:1014B00005F4E061090A104D6B5C4568DD4085600C
:1014C0000A4D6D6805F46051C90A0B4D6B5C4568A7
:1014D000DD40C560054D6D6805F44041890B074D41
:1014E0006B5CC568B5FBF3F5056130BD00100240CB
:1014F00000127A0000093D000000002010000020CA
:101500000021082114E000F080021AB180220A4B69
:101510001A6003E08022084B1B1D1A602022064B34
:101520001B1D1A601B1F1A604206100E4A1ED1B204
:101530000029E8DC7047000010080140704710B532
:1015400000F002F810BD00000CB5002001900090E2
:101550003348006840F480303149086000BF3048AB
:10156000006800F4003000900198401C0190009841
:1015700018B90198B0F5A06FF1D12948006800F4BE
:10158000003010B10120009001E000200090009890
:10159000012843D12348006840F010002149086029
:1015A0000846006820F0030008600846006840F024
:1015B000020008601A4840681949486008464068B7
:1015C00048600846406840F48060486008464068CB
:1015D00020F47C1048600846406840F4E8104860F9
:1015E0000846006840F08070086000BF0C48006842
:1015F00000F000700028F9D00948406820F003008E
:10160000074948600846406840F00200486000BF53
:101610000348406800F00C000828F9D10CBD000018
:1016200000100240002002407047000010B513482F
:10163000006840F001001149086008464068104900
:1016400008400E494860084600680E4908400B49AA
:1016500008600846006820F480200860084640685A
:1016600020F4FE0048604FF41F008860FFF767FF1A
:101670004FF000600449086010BD000000100240F7
:101680000000FFF8FFFFF6FE08ED00E04FF0E0215C
:10169000096921F004014FF0E0221161C21700EB4B
:1016A0005272D210044B1A60194609684FF47A72CC
:1016B0005143024A1160704724000020200000209E
:1016C00010B540F225510A4800F07CF801280DD1F0
:1016D00040F22551064800F04DF8054800F008F9A1
:1016E00004462146024800F008F900BF10BD000082
:1016F0000038014010B586B00446012144F20500CF
:10170000FFF784FE18208DF817004FF40070ADF835
:10171000140003208DF8160005A91448FFF7CEFA2F
:1017200048208DF817004FF48060ADF814000320B6
:101730008DF8160005A90D48FFF7C0FA01940020A6
:10174000ADF810000C20ADF80E000020ADF80C0034
:10175000ADF80A00ADF8080001A9054800F05CF8F2
:101760000121034800F015F806B010BD0008014043
:101770000038014010B50022002340F66A14A1424F
:1017800000D100BF0A1201249440A3B2DC430480BC
:1017900010BD21B1828942F40052828104E0828925
:1017A0004DF6FF731A408281704702460020B1F562
:1017B000007F00D100BF13880B400BB1012000E077
:1017C0000020704770B50246002400230025002049
:1017D00040F66A16B14200D100BFC1F3421501F0D4
:1017E0001F03012606FA03F3012D02D19689334027
:1017F00006E0022D02D1168A334001E0968A33407A
:101800000C12012606FA04F41688344013B10CB108
:10181000012000E0002070BD2DE9F04786B00546AC
:101820000E460024A24600BFA1460027B08900B1A1
:1018300000BF2F462C8A4CF6FF700440F08804430A
:101840002C82AC894EF6F3100440B08831890843ED
:10185000718908430443AC81AC8A4FF6FF400440D1
:10186000B0890443AC8201A8FFF7E0FD1F4887421E
:1018700002D1DDF810A001E0DDF80CA0A88900F489
:10188000004040B10AEBCA0000EB0A103168490081
:10189000B0FBF1F807E00AEBCA0000EB0A10316870
:1018A0008900B0FBF1F86420B8FBF0F004012009D6
:1018B000642101FB1089A88900F4004040B1322066
:1018C00000EBC900B0FBF1F000F00700044308E0B2
:1018D000322000EB09106421B0FBF1F000F00F00A2
:1018E00004432C8106B0BDE8F087000000380140B9
:1018F00001468888C0F308007047C1F3080282805F
:10190000704700BFFEE700000FB4054B10B503A9F8
:10191000044A029800F0DAF810BC5DF814FB0000ED
:10192000DD2200082800002002E008C8121F08C1BC
:10193000002AFAD170477047002001E001C1121F50
:10194000002AFBD1704700002DE9FF5F82B0002123
:10195000DDE90430020DDDF840B0034318D044F651
:101960001050A2F2FF3242431514119801281FD0E3
:10197000A5EB0B00401C5FEA000A4FF000064E4F3B
:10198000DFF83891B046504615D5CAF1000413E08F
:10199000119801244AA3012801D16FEA0B01029892
:1019A000119AC0E90031C0E9024206B0BDE8F09FDB
:1019B000CBF10000DFE704460021404A491842EB22
:1019C0000450CDE9001012E0E00707D032463B4654
:1019D00040464946FEF7CAFB8046894632463B46AA
:1019E00010461946FEF7C2FB06460F466410002C4F
:1019F000EAD1DDE90401DDE90023BAF1000F06DADE
:101A0000FEF7B4FB42464B46FEF7B0FB05E0FEF79F
:101A10001FFC42464B46FEF71BFC04460E460022C6
:101A2000284BFEF737FE03D84FF0FF30014607E0A2
:101A30000022254B20463146FEF76CFDFEF711FED5
:101A4000102409E0002C0ADB0A220023FEF79DFC8B
:101A5000039B30321A55641E50EA0102F2D1641C15
:101A6000039AC4F111031444119A012A03D00122EC
:101A700008430DD10AE0084304D000204FF0110BB9
:101A8000119072E7A3EB0B056D1E0DE05B4504DDC5
:101A90004FF0000205F1010504E003DA4FF0000207
:101AA000A5F10105002AECD002981199C0E9023194
:101AB000C0E9004579E70000000014400000F03F55
:101AC000300000000000F0430000E03F2DE9FF4F30
:101AD00095B09A46884606460025EEE1252877D13E
:101AE00000242746F94A0121039400E0044316F834
:101AF000013F203B01FA03F01042F7D130782A2849
:101B000011D06FF02F033078A0F13002092A16D8D7
:101B1000039A44F0020402EB820203EB42021044F7
:101B2000761C0390EFE758F8042B0392002A03DA9F
:101B3000504244F40054039044F00204761C307880
:101B40002E2816D116F8010F44F004042A280DD0CF
:101B50006FF02F023078A0F13003092B09D807EB82
:101B6000870302EB4303C718761CF3E758F8047B9E
:101B7000761C30786C280FD006DC4C2817D06828EB
:101B80000DD06A2814D104E0742810D07A280FD11F
:101B90000DE044F400140AE044F4801401E044F43D
:101BA00040147278824202D104F58014761C761CAF
:101BB000307866280BD013DC582877D009DC002851
:101BC00075D04528F6D04628F4D047281AD193E19D
:101BD00018E0632835D0642879D0652812D18BE1CC
:101BE000702873D008DC6728F1D069286FD06E2880
:101BF0000DD06F2806D1ACE073282CD0752874D096
:101C0000782853D05246179990476D1C54E1C4F37D
:101C10000250022809D003280DD0D8F8001004285B
:101C20000DD00D6008F1040846E1D8F80010EA175D
:101C3000C1E90052F6E7D8F800100D80F2E70D7008
:101C4000F0E718F8041B8DF8001000208DF8010053
:101C5000EB46012003E058F804BB4FF0FF3061076A
:101C60004FF0000102D40DE009F101018946B942AB
:101C70000FDA8145F8DB1BF809100029F4D108E0E0
:101C800009F1010189468142FADB1BF8091000299C
:101C9000F6D103985346A0EB090721463846179A18
:101CA00000F080FA284400EB090507E044E008E171
:101CB0000DE01BF8010B524617999047B9F1010945
:101CC000F7D2534621463846179AF2E039E00A2106
:101CD000C4F302524FF0000B0091022A06D058F8CC
:101CE000040BC117032A09D00AE023E008F107001A
:101CF00020F00702F2E80201904605E000B2C117A9
:101D0000042A01D140B2C117002906DA0A4600218F
:101D1000404261EB02012D2202E0220504D52B2274
:101D20008DF80420012203E0E20701D02022F7E72A
:101D3000914657E00A2100E010214FF0000B00917E
:101D40000BE010214FF0000B44F004040827009131
:101D500003E008204FF0000B0090C4F30252022A67
:101D600005D058F8040B0021032A08D008E008F138
:101D7000070020F00702F2E80201904603E080B27B
:101D8000042A00D1C0B24FF0000922072AD53278C8
:101D9000702A07D0DDF800C08CF0100C5CEA0B0C48
:101DA00005D00EE040228DF80420012208E050EA20
:101DB000010306D030238DF804308DF8052002226F
:101DC0009146009B83F0080353EA0B030AD150EAC3
:101DD000010201D1620705D530228DF804204FF0B1
:101DE00001097F1E3278582A04D039A20C920CAA1D
:101DF00002920BE03BA2F9E75B46009AFEF7C5FAB8
:101E00000C9B9B5C029A521E0292137050EA0102D4
:101E1000F2D1029804A9081A00F1200B600702D53C
:101E200024F4803400E001275F4502DDA7EB0B00BE
:101E300000E0002000EB0B01009003984944401A99
:101E40000390E00306D453462146179A039800F006
:101E5000A9F90544002706E001A85246C05D17997C
:101E600090476D1C7F1C4F45F6DBE0030CD55346B5
:101E70002146179A039800F095F9054404E03020B4
:101E80005246179990476D1C0099481E00900029F2
:101E9000F5DC08E00298029952460078491C02914C
:101EA000179990476D1CBBF10001ABF1010BF1DC00
:101EB0005BE100F065F90544761C307800287FF47A
:101EC0000DAE19B02846BDE8F08F000009280100CA
:101ED00030313233343536373839616263646566A0
:101EE0000000000030313233343536373839414262
:101EF0004344454600000000600700D4062708F16F
:101F0000070020F00700F0E80223804603F0004CB1
:101F10005FEA0C0001D097A009E0200501D596A04A
:101F200005E0E00701D095A001E0AFF24C0013906E
:101F3000307823F0004365280CD006DC452809D012
:101F400046281DD047287FD13BE0662818D0672857
:101F50007AD136E00021112F01DB112000E0781C3E
:101F6000CDE9000104A90CA8FFF7EEFCDDE90D01A5
:101F70000C9A4FF0000B07F10109109200914EE00E
:101F80004FF000400097CDE9011004A90CA8FFF71D
:101F9000DBFCDDE90D020C9B0F994FF0000B914625
:101FA0001093009211B9791C00EB0109B7EB0900FD
:101FB00003D4C0F1FF3B07F10109A9EB0700019031
:101FC00042E0012F00DA01270021112F01DD11204D
:101FD00000E03846CDE9000104A90CA8FFF7B4FCE5
:101FE000DDE90D010C9A00914FF0000BB9461092FB
:101FF00021070FD4009A4A4503DA914601E0A9F17E
:102000000109B9F1010F05DD109AA9F10101515C37
:102010003029F4D0B84202DA10F1040F03DA0121BA
:10202000CDE9011010E0002803DC8344A9EB000196
:1020300002E0411C494500DD8946A0EB0B00401C35
:1020400001904FF000400290200705D401984845C8
:1020500002DB4FF0FF30019000208DF84B0002981A
:102060000DF14B07B0F1004F25D002200C902B2032
:102070000D90029800280CDA404202902D200D901D
:1020800007E00A210298FEF76AF93031029007F85A
:10209000011D0C99481E0C900029F2DC02980028C2
:1020A000EFD1791E0D980870307800F0200040F0D4
:1020B000450007F8020D11A8C01BC01D029013981F
:1020C000007800B1012000EB0901019801EBE071FB
:1020D000029801440398401A401E0390E00306D47E
:1020E00053462146179A039800F05CF8054413986C
:1020F000007818B15246179990476D1CE00323D51C
:1021000053462146179A039800F04CF805441BE00B
:10211000BBF1000F07DB0098584504DD10981799B4
:1021200010F80B0001E017993020524690470198B3
:102130000BF1010B401E05F10105019004D12E2089
:102140005246179990476D1CB9F10001A9F1010998
:10215000DEDC05E017F8010B5246179990476D1C1D
:102160000299481E02900029F4DC53462146179A32
:1021700003989EE62D0000002B00000020000000C8
:102180002DE9F041044600251E461746880404D474
:1021900005E039462020B0476D1C641EF9D528465D
:1021A000BDE8F0812DE9F041044600251E46904629
:1021B000C80301D5302700E02027880404D505E0B6
:1021C00041463846B0476D1C641EF9D52846BDE827
:1021D000F081000070B5044694B108210B48FEF769
:1021E00003FE002505E04FF47A7000F011F8681C3A
:1021F00085B2062DF7DB08210448FEF7F3FD03E066
:1022000008210248FEF7EEFD70BD0000000C014001
:102210000146114A12684A434FF0E0235A610022F6
:102220009A611A46126942F001021A6100BF4FF02A
:10223000E022106900F001021AB100F48032002A95
:10224000F5D04FF0E022126922F001024FF0E023B6
:102250001A6100229A617047200000200146114A4D
:1022600012684A434FF0E0235A6100229A611A46ED
:10227000126942F001021A6100BF4FF0E0221069BA
:1022800000F001021AB100F48032002AF5D04FF0BC
:10229000E022126922F001024FF0E0231A610022CD
:1022A0009A6170472400002008B501210820FFF73B
:1022B000ADF810208DF803000820ADF800000320D1
:1022C0008DF8020069460448FEF7F8FC0821024830
:1022D000FEF788FD08BD0000000C014070B5044603
:1022E0000D46A1B20548FFF708FB00BF4021034897
:1022F000FFF75BFA0128F9D1204670BD0038014094
:10230000FEF7FCFD002400252846FFF763FF00BF11
:1023100000BFA04620E0FEF769FD064631460FA04B
:10232000FFF7F2FAFEF762FD044614B90FA0FFF7BB
:10233000EBFAFEF779FD0646FDF7F9FF80464046C9
:10234000FDF7FAFF064632460B460CA0FFF7DCFA13
:102350004FF47A70FFF75CFFDDE70000D5F1B6AF10
:10236000C7BFB6C8203D2025640A0000D3D0C8CB23
:10237000B6AFB3B5D7D3C1CB0A000000B5E7D1B92A
:10238000C7BFB6C8203D2025660A0000AC23000860
:10239000000000202C00000028190008D8230008A5
:1023A0002C00002004040000381900080000000080
:1023B00001020304010203040607080902040608D7
:1023C000000000000000000000000000000000000D
:0823D000000000000000000005
:0400000508000131BD
:00000001FF
