:020000040800F2
:10000000280400204901000821040008DD0200083E
:100010001D040008BD010008F708000800000000EA
:100020000000000000000000000000003105000892
:10003000C101000800000000390400081D06000886
:100040006301000863010008630100086301000800
:1000500063010008630100086301000863010008F0
:1000600063010008630100086301000863010008E0
:1000700063010008630100086301000863010008D0
:1000800063010008630100086301000863010008C0
:1000900063010008630100086301000863010008B0
:1000A00063010008630100086301000863010008A0
:1000B0006301000863010008630100086301000890
:1000C0006301000863010008630100086301000880
:1000D00063010008B5060008630100086301000819
:1000E0006301000863010008630100086301000860
:1000F0006301000863010008630100086301000850
:10010000630100086301000863010008630100083F
:10011000630100086301000863010008630100082F
:10012000630100086301000863010008630100081F
:10013000DFF810D000F030F800480047310B00081D
:10014000AFF3008028040020064880470648004797
:10015000FEE7FEE7FEE7FEE7FEE7FEE7FEE7FEE777
:10016000FEE7FEE7210600083101000830B50B4626
:10017000014600202022012409E021FA02F59D42D7
:1001800005D303FA02F5491B04FA02F52844151EAB
:10019000A2F10102F1DC30BD064C074D06E0E0683B
:1001A00040F0010394E8070098471034AC42F6D3BE
:1001B000FFF7C2FFA00B0008C00B000800BFFEE75E
:1001C00070472DE9F041024600250026002000235B
:1001D0000024002791F803C00CF00F0591F803C02C
:1001E0000CF0100CBCF1000F03D091F802C04CEAE7
:1001F000050591F800C0BCF1000F31D01468002053
:100200002BE04FF0010C0CFA00F3B1F800C00CEA3F
:1002100003069E4220D183004FF00F0C0CFA03F727
:10022000BC4305FA03FC4CEA040491F803C0BCF19A
:10023000280F06D14FF0010C0CFA00FCC2F814C0D4
:100240000AE091F803C0BCF1480F05D14FF0010C52
:100250000CFA00FCC2F810C0401C0828D1D314606E
:10026000B1F800C0BCF1FF0F34DD546800202EE06F
:1002700000F1080C4FF0010808FA0CF3B1F800C0C7
:100280000CEA03069E4221D183004FF00F0C0CFABA
:1002900003F7BC4305FA03FC4CEA040491F803C0DD
:1002A000BCF1280F05D100F1080C08FA0CF8C2F8CF
:1002B000148091F803C0BCF1480F07D100F1080C7D
:1002C0004FF0010808FA0CF8C2F81080401C08280A
:1002D000CED35460BDE8F0810161704700BFFEE7F6
:1002E00010B54FF4A06000F09DF8482000F0C8F968
:1002F00000F068F84FF4E13000F0F6F900F002F891
:1003000010BD000008B50121042000F097F8282056
:100310008DF803000120ADF8000003208DF80200E5
:1003200069460848FFF74DFF48208DF8030012206A
:10033000ADF8000003208DF8020069460148FFF780
:1003400040FF08BD0008014070B504460025012C9F
:1003500001D11A4908701A48006838B91848001DB8
:10036000006818B1164810300068B8B91348007812
:10037000A0B1142000F08CFB002010490870104838
:10038000006800B101250E48001D006800B9022573
:100390000B481030006878B903250DE00848006864
:1003A00050B90748001D006830B10548103000689A
:1003B00010B1012001490870284670BD14000020CA
:1003C0000001214208B50121182000F037F804206F
:1003D000ADF8000010208DF8030003208DF8020016
:1003E00069460C48FFF7EDFE2020ADF80000102014
:1003F0008DF8030003208DF8020069460648FFF7D8
:10040000E0FE04210348FFF767FF20210248FFF7C1
:1004100063FF08BD000C01400010014000BFFEE773
:100420007047000002490143024A11607047000012
:100430000000FA050CED00E07047000029B1064A03
:1004400092690243044B9A6104E0034A9269824331
:10045000014B9A61704700000010024030B5002146
:100460000022002400232D4D6D6805F00C0121B100
:10047000042905D0082923D105E0294D056022E093
:10048000274D05601FE0254D6D6805F47012234D62
:100490006D6805F48034022505EB92421CB9214DAC
:1004A000554305600BE01D4D6D6805F400351DB129
:1004B0001C4D5543056002E0194D5543056002E0AF
:1004C000174D056000BF00BF144D6D6805F0F001C9
:1004D0000909154D6B5C0568DD4045600F4D6D6881
:1004E00005F4E061090A104D6B5C4568DD408560EC
:1004F0000A4D6D6805F46051C90A0B4D6B5C456887
:10050000DD40C560054D6D6805F44041890B074D20
:100510006B5CC568B5FBF3F5056130BD00100240AA
:1005200000127A0000093D000000002010000020A9
:10053000704710B500F002F810BD00000CB50020A7
:10054000019000903348006840F4803031490860E1
:1005500000BF3048006800F4003000900198401C53
:100560000190009818B90198B0F5A06FF1D1294811
:10057000006800F4003010B10120009001E000207C
:1005800000900098012843D12348006840F01000F3
:10059000214908600846006820F00300086008460A
:1005A000006840F0020008601A4840681949486035
:1005B0000846406848600846406840F480604860EB
:1005C0000846406820F47C1048600846406840F4C3
:1005D000E81048600846006840F08070086000BF7E
:1005E0000C48006800F000700028F9D00948406805
:1005F00020F00300074948600846406840F00200C8
:10060000486000BF0348406800F00C000828F9D19A
:100610000CBD0000001002400020024070470000A6
:1006200010B51348006840F0010011490860084601
:100630004068104908400E494860084600680E4965
:1006400008400B4908600846006820F480200860D4
:100650000846406820F4FE0048604FF41F008860A0
:10066000FFF767FF4FF000600449086010BD00000D
:10067000001002400000FFF8FFFFF6FE08ED00E06A
:100680004FF0E021096921F004014FF0E0221161EF
:10069000C21700EB5272D210044B1A601946096857
:1006A0004FF47A725143024A116070471C000020D7
:1006B0001800002010B540F225510A4800F07CF8DF
:1006C00001280DD140F22551064800F04DF80548AB
:1006D00000F008F904462146024800F008F900BF7E
:1006E00010BD00000038014010B586B0044601215D
:1006F00044F20500FFF7A2FE18208DF817004FF412
:100700000070ADF8140003208DF8160005A91448F8
:10071000FFF757FD48208DF817004FF48060ADF8C3
:10072000140003208DF8160005A90D48FFF749FDB8
:1007300001940020ADF810000C20ADF80E00002050
:10074000ADF80C00ADF80A00ADF8080001A90548A5
:1007500000F05CF80121034800F015F806B010BD68
:10076000000801400038014010B50022002340F687
:100770006A14A14200D100BF0A1201249440A3B21E
:10078000DC43048010BD21B1828942F40052828191
:1007900004E082894DF6FF731A4082817047024659
:1007A0000020B1F5007F00D100BF13880B400BB1D2
:1007B000012000E00020704770B5024600240023AD
:1007C0000025002040F66A16B14200D100BFC1F3F7
:1007D000421501F01F03012606FA03F3012D02D191
:1007E0009689334006E0022D02D1168A334001E09B
:1007F000968A33400C12012606FA04F41688344017
:1008000013B10CB1012000E0002070BD2DE9F047CC
:1008100086B005460E460024A24600BFA14600272A
:10082000B08900B100BF2F462C8A4CF6FF700440FF
:10083000F08804432C82AC894EF6F3100440B08853
:1008400031890843718908430443AC81AC8A4FF66F
:10085000FF400440B0890443AC8201A8FFF7FEFDCD
:100860001F48874202D1DDF810A001E0DDF80CA09E
:10087000A88900F4004040B10AEBCA0000EB0A105E
:1008800031684900B0FBF1F807E00AEBCA0000EB61
:100890000A1031688900B0FBF1F86420B8FBF0F071
:1008A00004012009642101FB1089A88900F400409B
:1008B00040B1322000EBC900B0FBF1F000F00700BE
:1008C000044308E0322000EB09106421B0FBF1F092
:1008D00000F00F0004432C8106B0BDE8F087000053
:1008E0000038014001468888C0F308007047C1F312
:1008F00008028280704700BFFEE700000FB4054B7E
:1009000010B503A9044A029800F018F810BC5DF86D
:1009100014FB00000D0B00082000002002E008C8B6
:10092000121F08C1002AFAD170477047002001E069
:1009300001C1121F002AFBD1704700002DE9FF4FB3
:1009400089B09B460446002506E025280BD05A4670
:100950000B999047641C6D1C20780028F5D10DB0D0
:100960002846BDE8F08F0027B8460122474900E03D
:10097000074314F8013F203B02FA03F00842F7D185
:1009800020782E2819D114F8010F47F004072A28DF
:100990000ED06FF02F022078A0F1300109290CD879
:1009A00008EB880102EB410100EB0108641CF2E74F
:1009B0000A98641C50F8048B0A9020780028CED046
:1009C000642808D0692806D075281ED05A460B998D
:1009D00090476D1C58E00A994FF00A0901C90A9125
:1009E000002802DA40422D2102E0390504D52B21EE
:1009F0008DF82010012103E0F90704D02021F7E74A
:100A00008A4608AE0DE00021FAE70A994FF00A097C
:100A100001C90A91F7E74946FFF7A8FB303106F80C
:100A2000011D0028F7D1ADEB060000F12009780781
:100A300001D44FF00108C84502DDA8EB090000E031
:100A400000208046002706E008A85A46C05D0B99A2
:100A500090476D1C7F1C5745F6DB04E030205A465A
:100A60000B9990476D1CB8F10001A8F10108F5DC65
:100A700005E016F8010B5A460B9990476D1CB9F129
:100A80000001A9F10109F4DC641C65E709280100F3
:100A90000146114A12684A434FF0E0235A6100228E
:100AA0009A611A46126942F001021A6100BF4FF0C2
:100AB000E022106900F001021AB100F48032002A2D
:100AC000F5D04FF0E022126922F001024FF0E0234E
:100AD0001A6100229A61704718000020F0B50446A0
:100AE0004FF4E160B4FBF0F7B4FBF0F100FB11450B
:100AF000002604E04FF4E160FFF7CAFF761CBE4217
:100B0000F8D315B12846FFF7C3FFF0BD70B5044612
:100B10000D46A1B20548FFF7EAFE00BF4021034899
:100B2000FFF73DFE0128F9D1204670BD0038014095
:100B3000FFF7D6FB1DE04FF49670FFF7CFFF0D488F
:100B400001680DA0FFF7DAFE0120FFF7FDFB044668
:100B5000012C03D109A0FFF7D1FE0AE0022C03D13A
:100B600009A0FFF7CBFE04E0032C02D109A0FFF798
:100B7000C5FEE0E70401214225640A004B45595FA8
:100B800031B0B4CFC20A00004B45595F32B0B4CF88
:100B9000C20A00004B45595F33B0B4CFC20A00000F
:100BA000C00B000800000020240000001C09000801
:100BB000E40B000824000020040400002C090008B5
:100BC00000000000010203040102030406070809F3
:100BD0000204060801000000000000000000000000
:040BE0000000000011
:0400000508000131BD
:00000001FF
