:020000040800F2
:1000000028070020490100087504000805040008BD
:1000100071040008AD020008EB0C000800000000AD
:10002000000000000000000000000000730600084F
:10003000B102000800000000FD0400085D07000890
:100040006301000863010008630100086301000800
:1000500063010008630100086301000863010008F0
:1000600063010008630100086301000863010008E0
:1000700063010008630100086301000863010008D0
:1000800063010008630100086301000863010008C0
:1000900063010008630100086301000863010008B0
:1000A00063010008630100086301000863010008A0
:1000B0006301000863010008630100086301000890
:1000C0006301000863010008630100086301000880
:1000D0006301000863010008190A000863010008B1
:1000E0006301000863010008630100086301000860
:1000F0006301000863010008630100086301000850
:10010000630100086301000863010008630100083F
:10011000A109000863010008F50700086301000851
:10012000630100086301000863010008630100081F
:10013000DFF810D000F05EF8004800472D120008EC
:10014000AFF3008028070020064880470648004794
:10015000FEE7FEE7FEE7FEE7FEE7FEE7FEE7FEE777
:10016000FEE7FEE79507000831010008D2B201E082
:1001700000F8012B491EFBD270470022F6E710B5AC
:1001800013460A4604461946FFF7F0FF204610BD05
:100190002DE9F05F0546002092469B4688460646BC
:1001A000814640241BE0284641464746224600F04F
:1001B00042F853465A46C01A914110D31146184688
:1001C000224600F029F82D1A67EB01084F46224617
:1001D0000120002100F020F817EB00094E41201EFD
:1001E000A4F10104DFDC484631462A464346BDE817
:1001F000F09F0000064C074D06E0E06840F0010368
:1002000094E8070098471034AC42F6D3FFF794FF08
:100210001417000834170008202A04DB203A00FADB
:1002200002F1002070479140C2F1200320FA03F34D
:10023000194390407047202A04DB203A21FA02F04B
:100240000021704721FA02F3D040C2F12002914010
:1002500008431946704770B58C1810F8015B15F00B
:10026000070301D110F8013B2A1106D110F8012B28
:1002700003E010F8016B01F8016B5B1EF9D12B074D
:1002800005D40023521E0DD401F8013BFAE710F803
:10029000013BCB1A921C03E013F8015B01F8015BF0
:1002A000521EF9D5A142D8D3002070BD00BFFEE791
:1002B00070472DE9F041024600250026002000236A
:1002C0000024002791F803C00CF00F0591F803C03B
:1002D0000CF0100CBCF1000F03D091F802C04CEAF6
:1002E000050591F800C0BCF1000F31D01468002062
:1002F0002BE04FF0010C0CFA00F3B1F800C00CEA4F
:1003000003069E4220D183004FF00F0C0CFA03F736
:10031000BC4305FA03FC4CEA040491F803C0BCF1A9
:10032000280F06D14FF0010C0CFA00FCC2F814C0E3
:100330000AE091F803C0BCF1480F05D14FF0010C61
:100340000CFA00FCC2F810C0401C0828D1D314607D
:10035000B1F800C0BCF1FF0F34DD546800202EE07E
:1003600000F1080C4FF0010808FA0CF3B1F800C0D6
:100370000CEA03069E4221D183004FF00F0C0CFAC9
:1003800003F7BC4305FA03FC4CEA040491F803C0EC
:10039000BCF1280F05D100F1080C08FA0CF8C2F8DE
:1003A000148091F803C0BCF1480F07D100F1080C8C
:1003B0004FF0010808FA0CF8C2F81080401C082819
:1003C000CED35460BDE8F0810161704770B502463C
:1003D0000C46FF25FF2309E012F8010B80EA030118
:1003E0000648405C80EA05030548455C201EA4F1F0
:1003F0000106B4B2F0D143EA052070BD1000002020
:100400001001002000BFFEE710B54FF4A06000F01F
:100410006BF8482000F0A4F900F00EF84FF4E1303A
:1004200000F066FC4FF4165000F00EFB40F2CF21B6
:10043000632000F017FA10BD08B50121042000F078
:100440006FF84FF48070ADF8000010208DF80300B5
:1004500003208DF8020069460448FFF72AFF4FF495
:1004600080710248FFF7B0FF08BD0000000801409E
:1004700000BFFEE77047000070B5002100230F2287
:10048000C47804B3154C246804F4E064C4F5E06453
:10049000210AC1F10403CA40447804FA03F18478C4
:1004A0001440214309010E4C0678A155047804F04C
:1004B0001F050124AC4005786D11AD0005F1E02564
:1004C000C5F8004109E0047804F01F050124AC40A0
:1004D000044D0678761145F8264070BD0CED00E01D
:1004E00000E400E080E100E002490143024A1160BB
:1004F000704700000000FA050CED00E070470000B6
:1005000029B1064AD2690243044BDA6104E0034A86
:10051000D2698243014BDA6170470000001002404B
:1005200029B1064A92690243044B9A6104E0034AE6
:1005300092698243014B9A617047000000100240AB
:1005400030B500210022002400232D4D6D6805F0F8
:100550000C0121B1042905D0082923D105E0294D3A
:10056000056022E0274D05601FE0254D6D6805F40C
:100570007012234D6D6805F48034022505EB92421C
:100580001CB9214D554305600BE01D4D6D6805F408
:1005900000351DB11C4D5543056002E0194D554312
:1005A000056002E0174D056000BF00BF144D6D6887
:1005B00005F0F0010909154D6B5C0568DD404560EB
:1005C0000F4D6D6805F4E061090A104D6B5C4568DC
:1005D000DD4085600A4D6D6805F46051C90A0B4D18
:1005E0006B5C4568DD40C560054D6D6805F44041B4
:1005F000890B074D6B5CC568B5FBF3F5056130BD34
:100600000010024000127A0000093D001002002094
:10061000200200202DE9F04107460D461646002431
:1006200010E0295D384600F05CFB00BF40213846F1
:1006300000F08AFA0128F9D14021384600F060FA2A
:10064000601C84B2B442ECDBBDE8F08170B50446B6
:100650000D462946204600F044FB00BF40212046BD
:1006600000F072FA0128F9D14021204600F048FA42
:1006700070BD704710B500F001F810BD0CB500203A
:10068000019000903348006840F4803031490860A0
:1006900000BF3048006800F4003000900198401C12
:1006A0000190009818B90198B0F5A06FF1D12948D0
:1006B000006800F4003010B10120009001E000203B
:1006C00000900098012843D12348006840F01000B2
:1006D000214908600846006820F0030008600846C9
:1006E000006840F0020008601A48406819494860F4
:1006F0000846406848600846406840F480604860AA
:100700000846406820F47C1048600846406840F481
:10071000E81048600846006840F08070086000BF3C
:100720000C48006800F000700028F9D009484068C3
:1007300020F00300074948600846406840F0020086
:10074000486000BF0348406800F00C000828F9D159
:100750000CBD000000100240002002407047000065
:100760004FF0E021096921F004014FF0E02211610E
:10077000C21700EB5272D210044B1A601946096876
:100780004FF47A725143024A11607047080000200A
:100790000C00002010B51348006840F0010011491A
:1007A000086008464068104908400E4948600846FD
:1007B00000680E4908400B4908600846006820F4AC
:1007C000802008600846406820F4FE0048604FF42E
:1007D0001F008860FFF74EFF4FF00060044908607B
:1007E00010BD0000001002400000FFF8FFFFF6FE01
:1007F00008ED00E010B501210E4800F065F8B8B131
:1008000001210C4800F01EF80B48007880B10B481D
:100810000078401C0949087008460078052807DB65
:100820000020087001200649087000200249087065
:1008300010BD000000100040020000200400002055
:1008400003000020CA430282704721B1028842F0AF
:100850000102028004E002884FF6FE731A40028013
:10086000704700007FB505460C4601211020FFF7B8
:1008700047FE0020ADF80A00ADF80600A8B2ADF8BA
:100880000800A0B2ADF8040001A90E4800F036F847
:10089000012211460B4800F028F836208DF80000A0
:1008A00001208DF8030002208DF8010000208DF852
:1008B00002006846FFF7E0FD01210248FFF7C5FF8F
:1008C0007FBD00000010004030B50246002000232C
:1008D0000024158A05EA0103958905EA010413B18C
:1008E0000CB1012000E0002030BD1AB183890B4318
:1008F000838102E083898B438381704700220288D1
:100900001D4B98420ED01D4B98420BD0B0F1804F3A
:1009100008D01B4B984205D01A4B984202D01A4B74
:10092000984204D14FF68F731A404B881A43174BE5
:10093000984207D0164B984204D04FF6FF431A4016
:10094000CB881A4302808B8883850B8803850A4BEA
:1009500098420BD0094B984208D00E4B984205D0D4
:100960000D4B984202D00D4B984201D10B7A038671
:100970000123838270470000002C014000340140B5
:100980000004004000080040000C0040001000403F
:100990000014004000400140004401400048014074
:1009A00010B540F22551164800F0DBF830B340F2A4
:1009B0002551134800F0ADF81248007810B9012015
:1009C000104908700020104908700E480078A8B13E
:1009D0000E48007890B90E480088FF2802DD0020FC
:1009E0000B490880064800F077F9C1B20848028830
:1009F0000088401C064B18800648815410BD00003A
:100A0000004C0040020000200400002003000020F1
:100A1000000000202802002010B540F225510948AE
:100A200000F09FF860B140F22551064800F071F8DF
:100A3000044800F051F9C4B221460248FFF706FE0F
:100A400010BD00000044004010B586B004460121EE
:100A50001120FFF765FD0121C804FFF751FD1820A3
:100A60008DF817004FF48060ADF8140003208DF866
:100A7000160005A92048FFF71CFC04208DF817007C
:100A80004002ADF8140005A91B48FFF712FC0194C1
:100A90000020ADF810000C20ADF80E004FF480607F
:100AA000ADF80C000020ADF80A004FF48050ADF80E
:100AB000080001A9114800F0A3F8012240F22551D5
:100AC0000E4800F078F834208DF8000001208DF8F1
:100AD00003008DF8010000208DF802006846FFF742
:100AE000CBFC6021054800F00BF80121034800F021
:100AF0001FF806B010BD000000100140004C00407F
:100B000001F40072B2F5007F00D100BFCA43028039
:100B1000704710B50022002340F66A14A14200D1AC
:100B200000BF0A1201249440A3B2DC43048010BD2C
:100B300021B1828942F40052828104E082894DF61B
:100B4000FF731A408281704702460020B1F5007F92
:100B500000D100BF13880B400BB1012000E0002042
:100B6000704770B50246002400230025002040F69F
:100B70006A16B14200D100BFC1F3421501F01F0354
:100B8000012606FA03F3012D02D19689334006E0CF
:100B9000022D02D1168A334001E0968A33400C12AE
:100BA000012606FA04F41688344013B10CB1012072
:100BB00000E0002070BDF0B50346002400260025AB
:100BC000002040F66A17B94200D100BF1846C1F3B1
:100BD000421401F01F06012707FA06F5012C01D186
:100BE0000C3004E0022C01D1103000E014301AB1B6
:100BF00007682F43076002E00768AF430760F0BD56
:100C00002DE9F04786B005460E460024A24600BFF7
:100C1000A1460027B08900B100BF2F462C8A4CF6B0
:100C2000FF700440F08804432C82AC894EF6F31028
:100C30000440B08831890843718908430443AC817A
:100C4000AC8A4FF6FF400440B0890443AC8201A84F
:100C5000FFF776FC1F48874202D1DDF810A001E0C3
:100C6000DDF80CA0A88900F4004040B10AEBCA00EE
:100C700000EB0A1031684900B0FBF1F807E00AEB1D
:100C8000CA0000EB0A1031688900B0FBF1F864205B
:100C9000B8FBF0F004012009642101FB1089A88948
:100CA00000F4004040B1322000EBC900B0FBF1F08D
:100CB00000F00700044308E0322000EB0910642133
:100CC000B0FBF1F000F00F0004432C8106B0BDE84A
:100CD000F08700000038014001468888C0F3080012
:100CE0007047C1F308028280704700BFFEE7000032
:100CF00010B586B00446012144F20500FFF710FC50
:100D000018208DF817004FF40070ADF81400032080
:100D10008DF8160005A91448FFF7CBFA04208DF8CA
:100D200017000002ADF8140005A90F48FFF7C1FA3B
:100D300001940020ADF810000C20ADF80E0000204A
:100D4000ADF80C00ADF80A00ADF8080001A907489D
:100D5000FFF756FF60210548FFF7D2FE0121034847
:100D6000FFF7E6FE06B010BD000801400038014064
:100D70000FB4054B10B503A9044A029800F018F807
:100D800010BC5DF814FB00000912000824020020CA
:100D900002E008C8121F08C1002AFAD17047704744
:100DA000002001E001C1121F002AFBD170470000A2
:100DB0002DE9FF4F8DB00F460546002606E0252899
:100DC0000BD0DDE90F1290476D1C761C28780028A7
:100DD000F5D111B03046BDE8F08F0024A246A146FF
:100DE0000122E94900E0044315F8013F203B02FAE3
:100DF00003F00842F7D128782A2810D06FF02F028C
:100E00002878A0F13001092914D80AEB8A0102EBF5
:100E1000410144F0020400EB010A6D1CF0E701CF30
:100E20005FEA000A03D544F40054CAF1000A44F012
:100E300002046D1C28782E2817D115F8010F44F0F4
:100E400004042A280ED06FF02F022878A0F1300178
:100E500009290AD809EB890102EB410100EB0109DC
:100E60006D1CF2E757F8049B6D1C28786C280FD096
:100E700006DC4C2817D068280DD06A2814D104E06D
:100E8000742810D07A280FD10DE044F400140AE041
:100E900044F4801401E044F440146978814202D1A2
:100EA00004F580146D1C6D1C28786E281ED00CDC97
:100EB000632830D004DC00288BD0582811D19FE063
:100EC000642867D069280CD164E073282DD004DC35
:100ED0006F2872D0702804D194E075286ED07828DD
:100EE0006DD0DDE90F129047761C4BE1C4F3025040
:100EF000022806D0032809D0042801CF09D00660B3
:100F000040E101CFF117C0E900613BE101CF06806C
:100F100038E1067036E117F8040B8DF80000002068
:100F20008DF80100EB46012003E057F804BB4FF0B9
:100F3000FF3061074FF0000102D40DE008F101011C
:100F4000884649450FDA8045F8DB1BF80810002970
:100F5000F4D108E008F1010188468142FADB1BF870
:100F600008100029F6D1DDE90F23AAEB080081461D
:100F7000214600F031F9304400EB080604E0DDE9D9
:100F80000F121BF8010B9047B8F10108F7D2214668
:100F90004846F2E00A21C4F302524FF0000B0891D8
:100FA000022A04D001CFC117032A09D00AE0FF1D8D
:100FB00027F00707F7E8020108E02CE01EE01FE039
:100FC00000B2C117042A01D140B2C117021E71F14B
:100FD000000206DA0023D0EB030063EB01012D22AF
:100FE00002E0220504D52B228DF82420012203E003
:100FF000E20701D02022F7E7904653E00A210BE0F8
:10100000102109E010214FF0000B44F004044FF0D0
:101010000809089103E008214FF0000B0891C4F380
:101020000252022A04D001CF0021032A06D006E092
:10103000FF1D27F00707F7E8020103E080B2042A4A
:1010400000D1C0B24FF0000822072BD52A78702AB1
:1010500007D0DDF820C08CF0100C5CEA0B0C05D03A
:101060000EE040228DF82420012208E050EA01031E
:1010700006D030238DF824308DF8252002229046AA
:10108000089B83F0080353EA0B030BD150EA0102DB
:1010900001D1620706D530228DF824204FF00108D7
:1010A000A9F101092A78582A04D038A20B9208AA7B
:1010B0000A920BE03AA2F9E75B46089AFFF768F854
:1010C0000B9B9B5C0A9A521E0A92137050EA010213
:1010D000F2D10A98ADEB000000F1200B600702D5B9
:1010E00024F4803401E04FF00109D94502DDA9EB79
:1010F0000B0000E0002000EB0B0141440890AAEB3C
:10110000010AE00306D4DDE90F232146504600F032
:1011100063F806444FF0000908E009A911F8090036
:10112000DDE90F12904709F10109761CC145F4DB96
:10113000E0030CD5DDE90F232146504600F04CF8C2
:10114000064404E0DDE90F1230209047761C089930
:10115000481E08900029F5DC08E00A980A990078F2
:10116000491C0A91DDE90F129047761CBBF1000182
:10117000ABF1010BF1DC21465046DDE90F2300F015
:1011800019F806446D1C21E609280100303132337C
:1011900034353637383961626364656600000000B3
:1011A000303132333435363738394142434445469D
:1011B000000000002DE9F041044600251E461746B8
:1011C000880404D405E039462020B0476D1C641E15
:1011D000F9D52846BDE8F0812DE9F0410446002507
:1011E0001E469046C80301D5302700E0202788041A
:1011F00004D505E041463846B0476D1C641EF9D55C
:101200002846BDE8F081000070B504460D46E1B205
:101210000548FFF766FD00BF40210348FFF794FC37
:101220000128F9D1204670BD0038014092B0FFF787
:10123000EBF8FE4800681190FDA207CA0EAB07C389
:101240005DE2FE4800780028FAD0FDA0FFF790FD8F
:10125000302102A8FEF791FF0024A04609E0FC48D7
:1012600010F80810FBA0FFF783FD08F101001FFA3A
:1012700080F8FA4800888045F1DBF9A0FFF778FD97
:10128000F6480088801EF249095CF4480088401E38
:10129000EF4A105C41EA00200190F0480088801E6F
:1012A00081B21046FFF792F881460198814502D03D
:1012B000ECA0FFF75DFDE6480078012802D0EDA024
:1012C000FFF756FDE2484578C078E149897840EA61
:1012D00001270026012D06D0032D7DD00F2D7CD0B7
:1012E000102D7BD147E1DA484079D949097940EAA4
:1012F00001284FF0000A00200090834640464FEA44
:10130000E87108EB5171C1F3C70A4FEAE87108EBC5
:101310005171C910A8EBC10119B10AF1010000F027
:10132000FF0A002F36DB07EB0800042832DCC84830
:1013300002782046611CCCB202A90A542046611CE6
:10134000CCB202A90D542046611CCCB202A901F80E
:1013500000A000201BE000210FE001EBC002009282
:101360004FEA6B0B009A424505DA0EAB009A9A5C85
:101370000AB14BF0800B4A1CD1B20829EDDB2146A3
:10138000621CD4B202AA02F801B0411CC8B2504596
:10139000E1DB13E0AE4802782046611CCCB202A922
:1013A0000A5445F080022046611CCCB202A90A54BE
:1013B00002222046611CCCB202A90A54214602A88E
:1013C000FFF704F806462046611CCCB202A90E5471
:1013D00032122046611C02E009E06EE058E1CCB216
:1013E00002A90A542246A748FFF714F97AE198485F
:1013F00040799749097940EA01284FF0000A4FEAFD
:1014000048604FEA106A102F2DDB07EB0800122806
:1014100029DC8F4802782046611CCCB202A90A540C
:101420002046611CCCB202A90D542046611CCCB2EE
:1014300002A901F800A0002012E011A931F8101053
:101440000B122146621CD4B202AA535411A911F8FE
:1014500010302146621CD4B202AA5354411CC8B2B7
:101460004045EADB13E07A4802782046611CCCB2A2
:1014700002A90A5445F080022046611CCCB202A9A0
:101480000A5402222046611CCCB202A90A54214609
:1014900002A8FEF79BFF06462046611CCCB202A9BB
:1014A0000E5432122146601CC4B202A84254224695
:1014B00002A97448FFF7AEF814E165484079644921
:1014C000097940EA0128002F2CDB07EB08000428EB
:1014D00028DC5F4802782146601CC4B202A842544E
:1014E0002046611CCCB202A90D545948827820468E
:1014F000611CCCB202A90A545548C2782046611C2E
:10150000CCB202A90A54524802792046611CCCB2DE
:1015100002A90A544E4842792046611CCCB202A965
:101520000A5413E04A4802782046611CCCB202A952
:101530000A5445F080022046611CCCB202A90A542C
:1015400002222046611CCCB202A90A54214602A8FC
:10155000FEF73CFF06462146601CC4B202A8465472
:1015600032122046611CCCB202A90A5422464548D8
:10157000FFF750F8B6E0364840793549097940EA36
:101580000128102F2CDB07EB0800122828DC30483C
:1015900002782046611CCCB202A90A542046611C84
:1015A000CCB202A90D542A4882782046611CCCB2E4
:1015B00002A90A542648C2782046611CCCB202A96E
:1015C0000A54234802792046611CCCB202A90A546D
:1015D0001F4842792046611CCCB202A90A5413E08C
:1015E0001B4802782046611CCCB202A90A5445F07F
:1015F00080022046611CCCB202A90A540222204675
:10160000611CCCB202A90A54214602A8FEF7DEFEF4
:1016100006462046611CCCB202A90E543212204666
:10162000611CCCB202A90A5422462DE01017000812
:101630000000010100010101010000000300002081
:10164000CED2CAC7B4D3BBFAA3BA0D0A00000000B9
:101650002802002025303258200000000000002021
:101660000D0A000063726320D0A3D1E9B3F6B4ED94
:101670000D0A0000C9E8B1B8B5D8D6B7B4EDCEF3BD
:101680000D0A0000004C00401D48FEF7C3FF29E092
:101690001C4802782046611CCCB202A90A5445F0CD
:1016A00080022146601CC4B202A842540122204696
:1016B000611CCCB202A90A54214602A8FEF786FE9C
:1016C00006462046611CCCB202A90E5432122146B5
:1016D000601CC4B202A84254224602A90848FEF780
:1016E00099FF00BF00BF0020074908704FF48071C8
:1016F0000448FEF742FD00200449088000BFA0E531
:10170000004C0040280200200300002000000020C0
:1017100005000A003417000800000020280200001D
:10172000560200086C18000828020020000500007E
:10173000A00D000801112808C1814001C0804104AA
:10174000690C2908E918A91C091A30091638093644
:1017500060092E70092F6000FF00C0C101C30302A1
:10176000C2C60607C705C5C404CC0C0DCD0FCFCE2D
:101770000E0ACACB0BC90908C8D81819D91BDBDA5D
:101780001A1EDEDF1FDD1D1CDC14D4D515D717167D
:10179000D6D21213D311D1D010F03031F133F3F28D
:1017A0003236F6F737F53534F43CFCFD3DFF3F3E6D
:1017B000FEFA3A3BFB39F9F83828E8E929EB2B2AFD
:1017C000EAEE2E2FEF2DEDEC2CE42425E527E7E6BD
:1017D0002622E2E323E12120E0A06061A163A3A22D
:1017E0006266A6A767A56564A46CACAD6DAF6F6EAD
:1017F000AEAA6A6BAB69A9A86878B8B979BB7B7ADD
:10180000BABE7E7FBF7DBDBC7CB47475B577B7B6FC
:101810007672B2B373B17170B050909151935352CC
:101820009296565797559594549C5C5D9D5F9F9EEC
:101830005E5A9A9B5B99595898884849894B8B8A7C
:101840004A4E8E8F4F8D4D4C8C448485458747463C
:10185000868242438341818042402D010203040479
:0C18600040090607080902040608000001
:0400000508000131BD
:00000001FF
